8=FIX.4.4|9=85|35=A|34=1|49=OrderGenerator|52=20250620-00:00:04.824|56=OrderAccumulator|98=0|108=30|10=021|8=FIX.4.4|9=85|35=A|34=2|49=OrderGenerator|52=20250620-00:00:09.852|56=OrderAccumulator|98=0|108=30|10=028|8=FIX.4.4|9=85|35=A|34=3|49=OrderGenerator|52=20250620-00:00:14.885|56=OrderAccumulator|98=0|108=30|10=031|8=FIX.4.4|9=85|35=A|34=4|49=OrderGenerator|52=20250620-00:00:19.911|56=OrderAccumulator|98=0|108=30|10=027|8=FIX.4.4|9=85|35=A|34=5|49=OrderGenerator|52=20250620-00:00:24.945|56=OrderAccumulator|98=0|108=30|10=031|8=FIX.4.4|9=85|35=A|34=6|49=OrderGenerator|52=20250620-00:00:29.976|56=OrderAccumulator|98=0|108=30|10=041|8=FIX.4.4|9=85|35=A|34=7|49=OrderGenerator|52=20250620-00:00:35.014|56=OrderAccumulator|98=0|108=30|10=022|8=FIX.4.4|9=85|35=A|34=8|49=OrderGenerator|52=20250620-00:00:40.043|56=OrderAccumulator|98=0|108=30|10=021|8=FIX.4.4|9=85|35=A|34=9|49=OrderGenerator|52=20250620-00:00:45.081|56=OrderAccumulator|98=0|108=30|10=029|8=FIX.4.4|9=86|35=A|34=10|49=OrderGenerator|52=20250620-00:00:50.118|56=OrderAccumulator|98=0|108=30|10=067|8=FIX.4.4|9=86|35=A|34=11|49=OrderGenerator|52=20250620-00:00:55.157|56=OrderAccumulator|98=0|108=30|10=076|8=FIX.4.4|9=86|35=A|34=12|49=OrderGenerator|52=20250620-00:01:00.185|56=OrderAccumulator|98=0|108=30|10=069|8=FIX.4.4|9=86|35=A|34=13|49=OrderGenerator|52=20250620-00:01:05.218|56=OrderAccumulator|98=0|108=30|10=072|8=FIX.4.4|9=86|35=A|34=14|49=OrderGenerator|52=20250620-00:01:10.245|56=OrderAccumulator|98=0|108=30|10=069|8=FIX.4.4|9=86|35=A|34=15|49=OrderGenerator|52=20250620-00:01:15.278|56=OrderAccumulator|98=0|108=30|10=081|8=FIX.4.4|9=86|35=A|34=16|49=OrderGenerator|52=20250620-00:01:20.320|56=OrderAccumulator|98=0|108=30|10=066|8=FIX.4.4|9=86|35=A|34=17|49=OrderGenerator|52=20250620-00:01:25.345|56=OrderAccumulator|98=0|108=30|10=079|8=FIX.4.4|9=86|35=A|34=18|49=OrderGenerator|52=20250620-00:01:30.380|56=OrderAccumulator|98=0|108=30|10=075|8=FIX.4.4|9=86|35=A|34=19|49=OrderGenerator|52=20250620-00:01:35.410|56=OrderAccumulator|98=0|108=30|10=075|8=FIX.4.4|9=86|35=A|34=20|49=OrderGenerator|52=20250620-00:01:40.460|56=OrderAccumulator|98=0|108=30|10=068|8=FIX.4.4|9=86|35=A|34=21|49=OrderGenerator|52=20250620-00:01:45.512|56=OrderAccumulator|98=0|108=30|10=072|8=FIX.4.4|9=86|35=A|34=22|49=OrderGenerator|52=20250620-00:01:50.545|56=OrderAccumulator|98=0|108=30|10=075|8=FIX.4.4|9=86|35=A|34=23|49=OrderGenerator|52=20250620-00:01:55.572|56=OrderAccumulator|98=0|108=30|10=081|8=FIX.4.4|9=86|35=A|34=24|49=OrderGenerator|52=20250620-00:02:00.606|56=OrderAccumulator|98=0|108=30|10=071|8=FIX.4.4|9=86|35=A|34=25|49=OrderGenerator|52=20250620-00:02:05.634|56=OrderAccumulator|98=0|108=30|10=078|8=FIX.4.4|9=86|35=A|34=26|49=OrderGenerator|52=20250620-00:02:10.678|56=OrderAccumulator|98=0|108=30|10=083|8=FIX.4.4|9=86|35=A|34=27|49=OrderGenerator|52=20250620-00:02:15.703|56=OrderAccumulator|98=0|108=30|10=078|8=FIX.4.4|9=86|35=A|34=28|49=OrderGenerator|52=20250620-00:02:20.741|56=OrderAccumulator|98=0|108=30|10=077|8=FIX.4.4|9=86|35=A|34=29|49=OrderGenerator|52=20250620-00:02:25.784|56=OrderAccumulator|98=0|108=30|10=090|8=FIX.4.4|9=86|35=A|34=30|49=OrderGenerator|52=20250620-00:02:30.821|56=OrderAccumulator|98=0|108=30|10=070|8=FIX.4.4|9=86|35=A|34=31|49=OrderGenerator|52=20250620-00:02:35.857|56=OrderAccumulator|98=0|108=30|10=085|8=FIX.4.4|9=86|35=A|34=32|49=OrderGenerator|52=20250620-00:02:40.901|56=OrderAccumulator|98=0|108=30|10=072|8=FIX.4.4|9=86|35=A|34=33|49=OrderGenerator|52=20250620-00:02:45.938|56=OrderAccumulator|98=0|108=30|10=088|8=FIX.4.4|9=86|35=A|34=34|49=OrderGenerator|52=20250620-00:02:50.975|56=OrderAccumulator|98=0|108=30|10=086|8=FIX.4.4|9=86|35=A|34=35|49=OrderGenerator|52=20250620-00:02:55.999|56=OrderAccumulator|98=0|108=30|10=098|8=FIX.4.4|9=86|35=A|34=36|49=OrderGenerator|52=20250620-00:03:01.024|56=OrderAccumulator|98=0|108=30|10=070|8=FIX.4.4|9=86|35=A|34=37|49=OrderGenerator|52=20250620-00:03:06.058|56=OrderAccumulator|98=0|108=30|10=083|8=FIX.4.4|9=86|35=A|34=38|49=OrderGenerator|52=20250620-00:03:11.082|56=OrderAccumulator|98=0|108=30|10=077|8=FIX.4.4|9=86|35=A|34=39|49=OrderGenerator|52=20250620-00:03:16.117|56=OrderAccumulator|98=0|108=30|10=082|8=FIX.4.4|9=86|35=A|34=40|49=OrderGenerator|52=20250620-00:03:21.168|56=OrderAccumulator|98=0|108=30|10=076|8=FIX.4.4|9=86|35=A|34=41|49=OrderGenerator|52=20250620-00:03:26.201|56=OrderAccumulator|98=0|108=30|10=070|8=FIX.4.4|9=86|35=A|34=42|49=OrderGenerator|52=20250620-00:03:31.223|56=OrderAccumulator|98=0|108=30|10=071|8=FIX.4.4|9=86|35=A|34=43|49=OrderGenerator|52=20250620-00:03:36.257|56=OrderAccumulator|98=0|108=30|10=084|8=FIX.4.4|9=86|35=A|34=44|49=OrderGenerator|52=20250620-00:03:41.290|56=OrderAccumulator|98=0|108=30|10=078|8=FIX.4.4|9=86|35=A|34=45|49=OrderGenerator|52=20250620-00:03:46.323|56=OrderAccumulator|98=0|108=30|10=081|8=FIX.4.4|9=86|35=A|34=46|49=OrderGenerator|52=20250620-00:03:51.359|56=OrderAccumulator|98=0|108=30|10=087|8=FIX.4.4|9=86|35=A|34=47|49=OrderGenerator|52=20250620-00:03:56.404|56=OrderAccumulator|98=0|108=30|10=084|8=FIX.4.4|9=86|35=A|34=48|49=OrderGenerator|52=20250620-00:04:01.423|56=OrderAccumulator|98=0|108=30|10=077|8=FIX.4.4|9=86|35=A|34=49|49=OrderGenerator|52=20250620-00:04:06.448|56=OrderAccumulator|98=0|108=30|10=090|8=FIX.4.4|9=86|35=A|34=50|49=OrderGenerator|52=20250620-00:04:11.478|56=OrderAccumulator|98=0|108=30|10=081|8=FIX.4.4|9=86|35=A|34=51|49=OrderGenerator|52=20250620-00:04:16.509|56=OrderAccumulator|98=0|108=30|10=082|8=FIX.4.4|9=86|35=A|34=52|49=OrderGenerator|52=20250620-00:04:21.538|56=OrderAccumulator|98=0|108=30|10=081|8=FIX.4.4|9=86|35=A|34=53|49=OrderGenerator|52=20250620-00:04:26.578|56=OrderAccumulator|98=0|108=30|10=091|8=FIX.4.4|9=86|35=A|34=54|49=OrderGenerator|52=20250620-00:04:31.604|56=OrderAccumulator|98=0|108=30|10=078|8=FIX.4.4|9=86|35=A|34=55|49=OrderGenerator|52=20250620-00:04:36.630|56=OrderAccumulator|98=0|108=30|10=083|8=FIX.4.4|9=86|35=A|34=56|49=OrderGenerator|52=20250620-00:04:41.670|56=OrderAccumulator|98=0|108=30|10=084|8=FIX.4.4|9=86|35=A|34=57|49=OrderGenerator|52=20250620-00:04:46.703|56=OrderAccumulator|98=0|108=30|10=087|8=FIX.4.4|9=86|35=A|34=58|49=OrderGenerator|52=20250620-00:04:51.736|56=OrderAccumulator|98=0|108=30|10=090|8=FIX.4.4|9=86|35=A|34=59|49=OrderGenerator|52=20250620-00:04:56.764|56=OrderAccumulator|98=0|108=30|10=097|8=FIX.4.4|9=86|35=A|34=60|49=OrderGenerator|52=20250620-00:05:01.796|56=OrderAccumulator|98=0|108=30|10=085|8=FIX.4.4|9=86|35=A|34=61|49=OrderGenerator|52=20250620-00:05:06.837|56=OrderAccumulator|98=0|108=30|10=087|8=FIX.4.4|9=86|35=A|34=62|49=OrderGenerator|52=20250620-00:05:11.881|56=OrderAccumulator|98=0|108=30|10=083|8=FIX.4.4|9=86|35=A|34=63|49=OrderGenerator|52=20250620-00:05:16.916|56=OrderAccumulator|98=0|108=30|10=088|8=FIX.4.4|9=86|35=A|34=64|49=OrderGenerator|52=20250620-00:05:21.964|56=OrderAccumulator|98=0|108=30|10=088|8=FIX.4.4|9=86|35=A|34=65|49=OrderGenerator|52=20250620-00:05:26.996|56=OrderAccumulator|98=0|108=30|10=099|8=FIX.4.4|9=86|35=A|34=66|49=OrderGenerator|52=20250620-00:05:32.029|56=OrderAccumulator|98=0|108=30|10=084|8=FIX.4.4|9=86|35=A|34=67|49=OrderGenerator|52=20250620-00:05:37.063|56=OrderAccumulator|98=0|108=30|10=088|8=FIX.4.4|9=86|35=A|34=68|49=OrderGenerator|52=20250620-00:05:42.100|56=OrderAccumulator|98=0|108=30|10=077|8=FIX.4.4|9=86|35=A|34=69|49=OrderGenerator|52=20250620-00:05:47.147|56=OrderAccumulator|98=0|108=30|10=094|8=FIX.4.4|9=86|35=A|34=70|49=OrderGenerator|52=20250620-00:05:52.192|56=OrderAccumulator|98=0|108=30|10=082|8=FIX.4.4|9=86|35=A|34=71|49=OrderGenerator|52=20250620-00:05:57.227|56=OrderAccumulator|98=0|108=30|10=087|8=FIX.4.4|9=86|35=A|34=72|49=OrderGenerator|52=20250620-00:06:02.263|56=OrderAccumulator|98=0|108=30|10=079|8=FIX.4.4|9=86|35=A|34=73|49=OrderGenerator|52=20250620-00:06:07.291|56=OrderAccumulator|98=0|108=30|10=086|8=FIX.4.4|9=86|35=A|34=74|49=OrderGenerator|52=20250620-00:06:12.322|56=OrderAccumulator|98=0|108=30|10=078|8=FIX.4.4|9=86|35=A|34=75|49=OrderGenerator|52=20250620-00:06:17.358|56=OrderAccumulator|98=0|108=30|10=093|8=FIX.4.4|9=86|35=A|34=76|49=OrderGenerator|52=20250620-00:06:22.390|56=OrderAccumulator|98=0|108=30|10=086|8=FIX.4.4|9=86|35=A|34=77|49=OrderGenerator|52=20250620-00:06:27.422|56=OrderAccumulator|98=0|108=30|10=088|8=FIX.4.4|9=86|35=A|34=78|49=OrderGenerator|52=20250620-00:06:32.453|56=OrderAccumulator|98=0|108=30|10=089|8=FIX.4.4|9=86|35=A|34=79|49=OrderGenerator|52=20250620-00:06:37.490|56=OrderAccumulator|98=0|108=30|10=096|8=FIX.4.4|9=86|35=A|34=80|49=OrderGenerator|52=20250620-00:06:42.525|56=OrderAccumulator|98=0|108=30|10=083|8=FIX.4.4|9=86|35=A|34=81|49=OrderGenerator|52=20250620-00:06:47.559|56=OrderAccumulator|98=0|108=30|10=096|8=FIX.4.4|9=86|35=A|34=82|49=OrderGenerator|52=20250620-00:06:52.592|56=OrderAccumulator|98=0|108=30|10=090|8=FIX.4.4|9=86|35=A|34=83|49=OrderGenerator|52=20250620-00:06:57.619|56=OrderAccumulator|98=0|108=30|10=096|8=FIX.4.4|9=86|35=A|34=84|49=OrderGenerator|52=20250620-00:07:02.655|56=OrderAccumulator|98=0|108=30|10=088|8=FIX.4.4|9=86|35=A|34=85|49=OrderGenerator|52=20250620-00:07:07.686|56=OrderAccumulator|98=0|108=30|10=098|8=FIX.4.4|9=86|35=A|34=86|49=OrderGenerator|52=20250620-00:07:12.724|56=OrderAccumulator|98=0|108=30|10=088|8=FIX.4.4|9=86|35=A|34=87|49=OrderGenerator|52=20250620-00:07:17.751|56=OrderAccumulator|98=0|108=30|10=094|8=FIX.4.4|9=86|35=A|34=88|49=OrderGenerator|52=20250620-00:07:22.791|56=OrderAccumulator|98=0|108=30|10=095|8=FIX.4.4|9=86|35=A|34=89|49=OrderGenerator|52=20250620-00:07:27.824|56=OrderAccumulator|98=0|108=30|10=098|8=FIX.4.4|9=86|35=A|34=90|49=OrderGenerator|52=20250620-00:07:32.875|56=OrderAccumulator|98=0|108=30|10=092|8=FIX.4.4|9=86|35=A|34=91|49=OrderGenerator|52=20250620-00:07:37.903|56=OrderAccumulator|98=0|108=30|10=090|8=FIX.4.4|9=86|35=A|34=92|49=OrderGenerator|52=20250620-00:07:42.932|56=OrderAccumulator|98=0|108=30|10=089|8=FIX.4.4|9=86|35=A|34=93|49=OrderGenerator|52=20250620-00:07:47.976|56=OrderAccumulator|98=0|108=30|10=103|8=FIX.4.4|9=86|35=A|34=94|49=OrderGenerator|52=20250620-00:07:53.006|56=OrderAccumulator|98=0|108=30|10=085|8=FIX.4.4|9=86|35=A|34=95|49=OrderGenerator|52=20250620-00:07:58.041|56=OrderAccumulator|98=0|108=30|10=090|8=FIX.4.4|9=86|35=A|34=96|49=OrderGenerator|52=20250620-00:08:03.086|56=OrderAccumulator|98=0|108=30|10=091|8=FIX.4.4|9=86|35=A|34=97|49=OrderGenerator|52=20250620-00:08:08.114|56=OrderAccumulator|98=0|108=30|10=089|8=FIX.4.4|9=86|35=A|34=98|49=OrderGenerator|52=20250620-00:08:13.139|56=OrderAccumulator|98=0|108=30|10=093|8=FIX.4.4|9=86|35=A|34=99|49=OrderGenerator|52=20250620-00:08:18.170|56=OrderAccumulator|98=0|108=30|10=094|8=FIX.4.4|9=87|35=A|34=100|49=OrderGenerator|52=20250620-00:08:23.197|56=OrderAccumulator|98=0|108=30|10=131|8=FIX.4.4|9=87|35=A|34=101|49=OrderGenerator|52=20250620-00:08:28.231|56=OrderAccumulator|98=0|108=30|10=126|8=FIX.4.4|9=87|35=A|34=102|49=OrderGenerator|52=20250620-00:08:33.281|56=OrderAccumulator|98=0|108=30|10=128|8=FIX.4.4|9=87|35=A|34=103|49=OrderGenerator|52=20250620-00:08:38.312|56=OrderAccumulator|98=0|108=30|10=129|8=FIX.4.4|9=87|35=A|34=104|49=OrderGenerator|52=20250620-00:08:43.351|56=OrderAccumulator|98=0|108=30|10=129|8=FIX.4.4|9=87|35=A|34=105|49=OrderGenerator|52=20250620-00:08:48.391|56=OrderAccumulator|98=0|108=30|10=139|8=FIX.4.4|9=87|35=A|34=106|49=OrderGenerator|52=20250620-00:08:53.424|56=OrderAccumulator|98=0|108=30|10=133|8=FIX.4.4|9=87|35=A|34=107|49=OrderGenerator|52=20250620-00:08:58.462|56=OrderAccumulator|98=0|108=30|10=141|8=FIX.4.4|9=87|35=A|34=108|49=OrderGenerator|52=20250620-00:09:03.498|56=OrderAccumulator|98=0|108=30|10=142|8=FIX.4.4|9=87|35=A|34=109|49=OrderGenerator|52=20250620-00:09:08.526|56=OrderAccumulator|98=0|108=30|10=140|8=FIX.4.4|9=87|35=A|34=110|49=OrderGenerator|52=20250620-00:09:13.558|56=OrderAccumulator|98=0|108=30|10=133|8=FIX.4.4|9=87|35=A|34=111|49=OrderGenerator|52=20250620-00:09:18.595|56=OrderAccumulator|98=0|108=30|10=140|8=FIX.4.4|9=87|35=A|34=112|49=OrderGenerator|52=20250620-00:09:23.626|56=OrderAccumulator|98=0|108=30|10=132|8=FIX.4.4|9=87|35=A|34=113|49=OrderGenerator|52=20250620-00:09:28.668|56=OrderAccumulator|98=0|108=30|10=144|8=FIX.4.4|9=87|35=A|34=114|49=OrderGenerator|52=20250620-00:09:33.695|56=OrderAccumulator|98=0|108=30|10=141|8=FIX.4.4|9=87|35=A|34=115|49=OrderGenerator|52=20250620-00:09:38.743|56=OrderAccumulator|98=0|108=30|10=141|8=FIX.4.4|9=87|35=A|34=116|49=OrderGenerator|52=20250620-00:09:43.766|56=OrderAccumulator|98=0|108=30|10=143|8=FIX.4.4|9=87|35=A|34=117|49=OrderGenerator|52=20250620-00:09:48.795|56=OrderAccumulator|98=0|108=30|10=151|8=FIX.4.4|9=87|35=A|34=118|49=OrderGenerator|52=20250620-00:09:53.829|56=OrderAccumulator|98=0|108=30|10=146|8=FIX.4.4|9=87|35=A|34=119|49=OrderGenerator|52=20250620-00:09:58.863|56=OrderAccumulator|98=0|108=30|10=150|8=FIX.4.4|9=87|35=A|34=120|49=OrderGenerator|52=20250620-00:10:03.902|56=OrderAccumulator|98=0|108=30|10=118|8=FIX.4.4|9=87|35=A|34=121|49=OrderGenerator|52=20250620-00:10:08.947|56=OrderAccumulator|98=0|108=30|10=133|8=FIX.4.4|9=87|35=A|34=122|49=OrderGenerator|52=20250620-00:10:13.983|56=OrderAccumulator|98=0|108=30|10=130|8=FIX.4.4|9=87|35=A|34=123|49=OrderGenerator|52=20250620-00:10:19.025|56=OrderAccumulator|98=0|108=30|10=124|8=FIX.4.4|9=87|35=A|34=124|49=OrderGenerator|52=20250620-00:10:24.057|56=OrderAccumulator|98=0|108=30|10=126|8=FIX.4.4|9=87|35=A|34=125|49=OrderGenerator|52=20250620-00:10:29.088|56=OrderAccumulator|98=0|108=30|10=136|8=FIX.4.4|9=87|35=A|34=126|49=OrderGenerator|52=20250620-00:10:34.122|56=OrderAccumulator|98=0|108=30|10=122|8=FIX.4.4|9=87|35=A|34=127|49=OrderGenerator|52=20250620-00:10:39.161|56=OrderAccumulator|98=0|108=30|10=131|8=FIX.4.4|9=87|35=A|34=128|49=OrderGenerator|52=20250620-00:10:44.200|56=OrderAccumulator|98=0|108=30|10=122|8=FIX.4.4|9=87|35=A|34=129|49=OrderGenerator|52=20250620-00:10:49.232|56=OrderAccumulator|98=0|108=30|10=133|8=FIX.4.4|9=87|35=A|34=130|49=OrderGenerator|52=20250620-00:10:54.272|56=OrderAccumulator|98=0|108=30|10=125|8=FIX.4.4|9=87|35=A|34=131|49=OrderGenerator|52=20250620-00:10:59.317|56=OrderAccumulator|98=0|108=30|10=131|8=FIX.4.4|9=87|35=A|34=132|49=OrderGenerator|52=20250620-00:11:04.353|56=OrderAccumulator|98=0|108=30|10=123|8=FIX.4.4|9=87|35=A|34=133|49=OrderGenerator|52=20250620-00:11:09.386|56=OrderAccumulator|98=0|108=30|10=135|8=FIX.4.4|9=87|35=A|34=134|49=OrderGenerator|52=20250620-00:11:14.412|56=OrderAccumulator|98=0|108=30|10=122|8=FIX.4.4|9=87|35=A|34=135|49=OrderGenerator|52=20250620-00:11:19.447|56=OrderAccumulator|98=0|108=30|10=136|8=FIX.4.4|9=87|35=A|34=136|49=OrderGenerator|52=20250620-00:11:24.478|56=OrderAccumulator|98=0|108=30|10=137|8=FIX.4.4|9=87|35=A|34=137|49=OrderGenerator|52=20250620-00:11:29.512|56=OrderAccumulator|98=0|108=30|10=132|8=FIX.4.4|9=87|35=A|34=138|49=OrderGenerator|52=20250620-00:11:34.552|56=OrderAccumulator|98=0|108=30|10=133|8=FIX.4.4|9=87|35=A|34=139|49=OrderGenerator|52=20250620-00:11:39.586|56=OrderAccumulator|98=0|108=30|10=146|8=FIX.4.4|9=87|35=A|34=140|49=OrderGenerator|52=20250620-00:11:44.611|56=OrderAccumulator|98=0|108=30|10=123|8=FIX.4.4|9=87|35=A|34=141|49=OrderGenerator|52=20250620-00:11:49.646|56=OrderAccumulator|98=0|108=30|10=137|8=FIX.4.4|9=87|35=A|34=142|49=OrderGenerator|52=20250620-00:11:54.679|56=OrderAccumulator|98=0|108=30|10=140|8=FIX.4.4|9=87|35=A|34=143|49=OrderGenerator|52=20250620-00:11:59.720|56=OrderAccumulator|98=0|108=30|10=133|8=FIX.4.4|9=87|35=A|34=144|49=OrderGenerator|52=20250620-00:12:04.753|56=OrderAccumulator|98=0|108=30|10=131|8=FIX.4.4|9=87|35=A|34=145|49=OrderGenerator|52=20250620-00:12:09.793|56=OrderAccumulator|98=0|108=30|10=141|8=FIX.4.4|9=87|35=A|34=146|49=OrderGenerator|52=20250620-00:12:14.812|56=OrderAccumulator|98=0|108=30|10=130|8=FIX.4.4|9=87|35=A|34=147|49=OrderGenerator|52=20250620-00:12:19.851|56=OrderAccumulator|98=0|108=30|10=139|8=FIX.4.4|9=87|35=A|34=148|49=OrderGenerator|52=20250620-00:12:24.883|56=OrderAccumulator|98=0|108=30|10=141|8=FIX.4.4|9=87|35=A|34=149|49=OrderGenerator|52=20250620-00:12:29.922|56=OrderAccumulator|98=0|108=30|10=141|8=FIX.4.4|9=87|35=A|34=150|49=OrderGenerator|52=20250620-00:12:34.954|56=OrderAccumulator|98=0|108=30|10=134|8=FIX.4.4|9=87|35=A|34=151|49=OrderGenerator|52=20250620-00:12:39.993|56=OrderAccumulator|98=0|108=30|10=143|8=FIX.4.4|9=87|35=A|34=152|49=OrderGenerator|52=20250620-00:12:45.023|56=OrderAccumulator|98=0|108=30|10=125|8=FIX.4.4|9=87|35=A|34=153|49=OrderGenerator|52=20250620-00:12:50.054|56=OrderAccumulator|98=0|108=30|10=126|8=FIX.4.4|9=87|35=A|34=154|49=OrderGenerator|52=20250620-00:12:55.092|56=OrderAccumulator|98=0|108=30|10=134|8=FIX.4.4|9=87|35=A|34=155|49=OrderGenerator|52=20250620-00:13:00.127|56=OrderAccumulator|98=0|108=30|10=125|8=FIX.4.4|9=87|35=A|34=156|49=OrderGenerator|52=20250620-00:13:05.163|56=OrderAccumulator|98=0|108=30|10=131|8=FIX.4.4|9=87|35=A|34=157|49=OrderGenerator|52=20250620-00:13:10.199|56=OrderAccumulator|98=0|108=30|10=137|8=FIX.4.4|9=87|35=A|34=158|49=OrderGenerator|52=20250620-00:13:15.238|56=OrderAccumulator|98=0|108=30|10=137|8=FIX.4.4|9=87|35=A|34=159|49=OrderGenerator|52=20250620-00:13:20.298|56=OrderAccumulator|98=0|108=30|10=140|8=FIX.4.4|9=87|35=A|34=160|49=OrderGenerator|52=20250620-00:13:25.339|56=OrderAccumulator|98=0|108=30|10=133|8=FIX.4.4|9=87|35=A|34=161|49=OrderGenerator|52=20250620-00:13:30.384|56=OrderAccumulator|98=0|108=30|10=130|8=FIX.4.4|9=87|35=A|34=162|49=OrderGenerator|52=20250620-00:13:35.426|56=OrderAccumulator|98=0|108=30|10=133|8=FIX.4.4|9=87|35=A|34=163|49=OrderGenerator|52=20250620-00:13:40.458|56=OrderAccumulator|98=0|108=30|10=135|8=FIX.4.4|9=87|35=A|34=164|49=OrderGenerator|52=20250620-00:13:45.494|56=OrderAccumulator|98=0|108=30|10=141|8=FIX.4.4|9=87|35=A|34=165|49=OrderGenerator|52=20250620-00:13:50.527|56=OrderAccumulator|98=0|108=30|10=135|8=FIX.4.4|9=87|35=A|34=166|49=OrderGenerator|52=20250620-00:13:55.569|56=OrderAccumulator|98=0|108=30|10=147|8=FIX.4.4|9=87|35=A|34=167|49=OrderGenerator|52=20250620-00:14:00.599|56=OrderAccumulator|98=0|108=30|10=142|8=FIX.4.4|9=87|35=A|34=168|49=OrderGenerator|52=20250620-00:14:05.629|56=OrderAccumulator|98=0|108=30|10=142|8=FIX.4.4|9=87|35=A|34=169|49=OrderGenerator|52=20250620-00:14:10.653|56=OrderAccumulator|98=0|108=30|10=136|8=FIX.4.4|9=87|35=A|34=170|49=OrderGenerator|52=20250620-00:14:15.686|56=OrderAccumulator|98=0|108=30|10=139|8=FIX.4.4|9=87|35=A|34=171|49=OrderGenerator|52=20250620-00:14:20.731|56=OrderAccumulator|98=0|108=30|10=127|8=FIX.4.4|9=87|35=A|34=172|49=OrderGenerator|52=20250620-00:14:25.760|56=OrderAccumulator|98=0|108=30|10=135|8=FIX.4.4|9=87|35=A|34=173|49=OrderGenerator|52=20250620-00:14:30.790|56=OrderAccumulator|98=0|108=30|10=135|8=FIX.4.4|9=87|35=A|34=174|49=OrderGenerator|52=20250620-00:14:35.826|56=OrderAccumulator|98=0|108=30|10=141|8=FIX.4.4|9=87|35=A|34=175|49=OrderGenerator|52=20250620-00:14:40.874|56=OrderAccumulator|98=0|108=30|10=141|8=FIX.4.4|9=87|35=A|34=176|49=OrderGenerator|52=20250620-00:14:45.915|56=OrderAccumulator|98=0|108=30|10=143|8=FIX.4.4|9=87|35=A|34=177|49=OrderGenerator|52=20250620-00:14:50.942|56=OrderAccumulator|98=0|108=30|10=140|8=FIX.4.4|9=87|35=A|34=178|49=OrderGenerator|52=20250620-00:14:55.976|56=OrderAccumulator|98=0|108=30|10=153|8=FIX.4.4|9=87|35=A|34=179|49=OrderGenerator|52=20250620-00:15:00.998|56=OrderAccumulator|98=0|108=30|10=149|8=FIX.4.4|9=87|35=A|34=180|49=OrderGenerator|52=20250620-00:15:06.032|56=OrderAccumulator|98=0|108=30|10=126|8=FIX.4.4|9=87|35=A|34=181|49=OrderGenerator|52=20250620-00:15:11.067|56=OrderAccumulator|98=0|108=30|10=131|8=FIX.4.4|9=87|35=A|34=182|49=OrderGenerator|52=20250620-00:15:16.106|56=OrderAccumulator|98=0|108=30|10=131|8=FIX.4.4|9=87|35=A|34=183|49=OrderGenerator|52=20250620-00:15:21.141|56=OrderAccumulator|98=0|108=30|10=127|8=FIX.4.4|9=87|35=A|34=184|49=OrderGenerator|52=20250620-00:15:26.170|56=OrderAccumulator|98=0|108=30|10=135|8=FIX.4.4|9=87|35=A|34=185|49=OrderGenerator|52=20250620-00:15:31.206|56=OrderAccumulator|98=0|108=30|10=132|8=FIX.4.4|9=87|35=A|34=186|49=OrderGenerator|52=20250620-00:15:36.248|56=OrderAccumulator|98=0|108=30|10=144|8=FIX.4.4|9=87|35=A|34=187|49=OrderGenerator|52=20250620-00:15:41.292|56=OrderAccumulator|98=0|108=30|10=140|8=FIX.4.4|9=87|35=A|34=188|49=OrderGenerator|52=20250620-00:15:46.331|56=OrderAccumulator|98=0|108=30|10=140|8=FIX.4.4|9=87|35=A|34=189|49=OrderGenerator|52=20250620-00:15:51.374|56=OrderAccumulator|98=0|108=30|10=144|8=FIX.4.4|9=87|35=A|34=190|49=OrderGenerator|52=20250620-00:15:56.405|56=OrderAccumulator|98=0|108=30|10=136|8=FIX.4.4|9=87|35=A|34=191|49=OrderGenerator|52=20250620-00:16:01.433|56=OrderAccumulator|98=0|108=30|10=129|8=FIX.4.4|9=87|35=A|34=192|49=OrderGenerator|52=20250620-00:16:06.458|56=OrderAccumulator|98=0|108=30|10=142|8=FIX.4.4|9=87|35=A|34=193|49=OrderGenerator|52=20250620-00:16:11.498|56=OrderAccumulator|98=0|108=30|10=143|8=FIX.4.4|9=87|35=A|34=194|49=OrderGenerator|52=20250620-00:16:16.518|56=OrderAccumulator|98=0|108=30|10=142|8=FIX.4.4|9=87|35=A|34=195|49=OrderGenerator|52=20250620-00:16:21.539|56=OrderAccumulator|98=0|108=30|10=142|8=FIX.4.4|9=87|35=A|34=196|49=OrderGenerator|52=20250620-00:16:26.573|56=OrderAccumulator|98=0|108=30|10=146|8=FIX.4.4|9=87|35=A|34=197|49=OrderGenerator|52=20250620-00:16:31.622|56=OrderAccumulator|98=0|108=30|10=138|8=FIX.4.4|9=87|35=A|34=198|49=OrderGenerator|52=20250620-00:16:36.662|56=OrderAccumulator|98=0|108=30|10=148|8=FIX.4.4|9=87|35=A|34=199|49=OrderGenerator|52=20250620-00:16:41.689|56=OrderAccumulator|98=0|108=30|10=154|8=FIX.4.4|9=87|35=A|34=200|49=OrderGenerator|52=20250620-00:16:46.728|56=OrderAccumulator|98=0|108=30|10=136|8=FIX.4.4|9=87|35=A|34=201|49=OrderGenerator|52=20250620-00:16:51.777|56=OrderAccumulator|98=0|108=30|10=137|8=FIX.4.4|9=87|35=A|34=202|49=OrderGenerator|52=20250620-00:16:56.811|56=OrderAccumulator|98=0|108=30|10=132|8=FIX.4.4|9=87|35=A|34=203|49=OrderGenerator|52=20250620-00:17:01.848|56=OrderAccumulator|98=0|108=30|10=134|8=FIX.4.4|9=87|35=A|34=204|49=OrderGenerator|52=20250620-00:17:06.885|56=OrderAccumulator|98=0|108=30|10=141|8=FIX.4.4|9=87|35=A|34=205|49=OrderGenerator|52=20250620-00:17:11.918|56=OrderAccumulator|98=0|108=30|10=135|8=FIX.4.4|9=87|35=A|34=206|49=OrderGenerator|52=20250620-00:17:16.948|56=OrderAccumulator|98=0|108=30|10=144|8=FIX.4.4|9=87|35=A|34=207|49=OrderGenerator|52=20250620-00:17:21.976|56=OrderAccumulator|98=0|108=30|10=142|8=FIX.4.4|9=87|35=A|34=208|49=OrderGenerator|52=20250620-00:17:27.021|56=OrderAccumulator|98=0|108=30|10=130|8=FIX.4.4|9=87|35=A|34=209|49=OrderGenerator|52=20250620-00:17:32.059|56=OrderAccumulator|98=0|108=30|10=138|8=FIX.4.4|9=87|35=A|34=210|49=OrderGenerator|52=20250620-00:17:37.096|56=OrderAccumulator|98=0|108=30|10=136|8=FIX.4.4|9=87|35=A|34=211|49=OrderGenerator|52=20250620-00:17:42.137|56=OrderAccumulator|98=0|108=30|10=129|8=FIX.4.4|9=87|35=A|34=212|49=OrderGenerator|52=20250620-00:17:47.167|56=OrderAccumulator|98=0|108=30|10=138|8=FIX.4.4|9=87|35=A|34=213|49=OrderGenerator|52=20250620-00:17:52.195|56=OrderAccumulator|98=0|108=30|10=136|8=FIX.4.4|9=87|35=A|34=214|49=OrderGenerator|52=20250620-00:17:57.231|56=OrderAccumulator|98=0|108=30|10=133|8=FIX.4.4|9=87|35=A|34=215|49=OrderGenerator|52=20250620-00:18:02.274|56=OrderAccumulator|98=0|108=30|10=132|8=FIX.4.4|9=87|35=A|34=216|49=OrderGenerator|52=20250620-00:18:07.289|56=OrderAccumulator|98=0|108=30|10=144|8=FIX.4.4|9=87|35=A|34=217|49=OrderGenerator|52=20250620-00:18:12.338|56=OrderAccumulator|98=0|108=30|10=136|8=FIX.4.4|9=87|35=A|34=218|49=OrderGenerator|52=20250620-00:18:17.373|56=OrderAccumulator|98=0|108=30|10=141|8=FIX.4.4|9=87|35=A|34=219|49=OrderGenerator|52=20250620-00:18:22.416|56=OrderAccumulator|98=0|108=30|10=136|8=FIX.4.4|9=87|35=A|34=220|49=OrderGenerator|52=20250620-00:18:27.467|56=OrderAccumulator|98=0|108=30|10=139|8=FIX.4.4|9=87|35=A|34=221|49=OrderGenerator|52=20250620-00:18:32.509|56=OrderAccumulator|98=0|108=30|10=133|8=FIX.4.4|9=87|35=A|34=222|49=OrderGenerator|52=20250620-00:18:37.535|56=OrderAccumulator|98=0|108=30|10=138|8=FIX.4.4|9=87|35=A|34=223|49=OrderGenerator|52=20250620-00:18:42.578|56=OrderAccumulator|98=0|108=30|10=142|8=FIX.4.4|9=87|35=A|34=224|49=OrderGenerator|52=20250620-00:18:47.612|56=OrderAccumulator|98=0|108=30|10=137|8=FIX.4.4|9=87|35=A|34=225|49=OrderGenerator|52=20250620-00:18:52.649|56=OrderAccumulator|98=0|108=30|10=144|8=FIX.4.4|9=87|35=A|34=226|49=OrderGenerator|52=20250620-00:18:57.674|56=OrderAccumulator|98=0|108=30|10=148|8=FIX.4.4|9=87|35=A|34=227|49=OrderGenerator|52=20250620-00:19:02.703|56=OrderAccumulator|98=0|108=30|10=133|8=FIX.4.4|9=87|35=A|34=228|49=OrderGenerator|52=20250620-00:19:07.731|56=OrderAccumulator|98=0|108=30|10=140|8=FIX.4.4|9=87|35=A|34=229|49=OrderGenerator|52=20250620-00:19:12.763|56=OrderAccumulator|98=0|108=30|10=142|8=FIX.4.4|9=87|35=A|34=230|49=OrderGenerator|52=20250620-00:19:17.795|56=OrderAccumulator|98=0|108=30|10=144|8=FIX.4.4|9=87|35=A|34=231|49=OrderGenerator|52=20250620-00:19:22.839|56=OrderAccumulator|98=0|108=30|10=140|8=FIX.4.4|9=87|35=A|34=232|49=OrderGenerator|52=20250620-00:19:27.868|56=OrderAccumulator|98=0|108=30|10=148|8=FIX.4.4|9=87|35=A|34=233|49=OrderGenerator|52=20250620-00:19:32.898|56=OrderAccumulator|98=0|108=30|10=148|8=FIX.4.4|9=87|35=A|34=234|49=OrderGenerator|52=20250620-00:19:37.937|56=OrderAccumulator|98=0|108=30|10=148|8=FIX.4.4|9=87|35=A|34=235|49=OrderGenerator|52=20250620-00:19:42.966|56=OrderAccumulator|98=0|108=30|10=147|8=FIX.4.4|9=87|35=A|34=236|49=OrderGenerator|52=20250620-00:19:48.005|56=OrderAccumulator|98=0|108=30|10=138|8=FIX.4.4|9=87|35=A|34=237|49=OrderGenerator|52=20250620-00:19:53.053|56=OrderAccumulator|98=0|108=30|10=138|8=FIX.4.4|9=87|35=A|34=238|49=OrderGenerator|52=20250620-00:19:58.081|56=OrderAccumulator|98=0|108=30|10=145|8=FIX.4.4|9=87|35=A|34=239|49=OrderGenerator|52=20250620-00:20:03.118|56=OrderAccumulator|98=0|108=30|10=129|8=FIX.4.4|9=87|35=A|34=240|49=OrderGenerator|52=20250620-00:20:08.158|56=OrderAccumulator|98=0|108=30|10=130|8=FIX.4.4|9=87|35=A|34=241|49=OrderGenerator|52=20250620-00:20:13.201|56=OrderAccumulator|98=0|108=30|10=116|8=FIX.4.4|9=87|35=A|34=242|49=OrderGenerator|52=20250620-00:20:18.224|56=OrderAccumulator|98=0|108=30|10=127|8=FIX.4.4|9=87|35=A|34=243|49=OrderGenerator|52=20250620-00:20:23.250|56=OrderAccumulator|98=0|108=30|10=123|8=FIX.4.4|9=87|35=A|34=244|49=OrderGenerator|52=20250620-00:20:28.288|56=OrderAccumulator|98=0|108=30|10=140|8=FIX.4.4|9=87|35=A|34=245|49=OrderGenerator|52=20250620-00:20:33.327|56=OrderAccumulator|98=0|108=30|10=131|8=FIX.4.4|9=87|35=A|34=246|49=OrderGenerator|52=20250620-00:20:38.379|56=OrderAccumulator|98=0|108=30|10=144|8=FIX.4.4|9=87|35=A|34=247|49=OrderGenerator|52=20250620-00:20:43.413|56=OrderAccumulator|98=0|108=30|10=130|8=FIX.4.4|9=87|35=A|34=248|49=OrderGenerator|52=20250620-00:20:48.441|56=OrderAccumulator|98=0|108=30|10=137|8=FIX.4.4|9=87|35=A|34=249|49=OrderGenerator|52=20250620-00:20:53.467|56=OrderAccumulator|98=0|108=30|10=142|8=FIX.4.4|9=87|35=A|34=250|49=OrderGenerator|52=20250620-00:20:58.503|56=OrderAccumulator|98=0|108=30|10=130|8=FIX.4.4|9=87|35=A|34=251|49=OrderGenerator|52=20250620-00:21:03.543|56=OrderAccumulator|98=0|108=30|10=126|8=FIX.4.4|9=87|35=A|34=252|49=OrderGenerator|52=20250620-00:21:08.575|56=OrderAccumulator|98=0|108=30|10=137|8=FIX.4.4|9=87|35=A|34=253|49=OrderGenerator|52=20250620-00:21:13.609|56=OrderAccumulator|98=0|108=30|10=132|8=FIX.4.4|9=87|35=A|34=254|49=OrderGenerator|52=20250620-00:21:18.646|56=OrderAccumulator|98=0|108=30|10=139|8=FIX.4.4|9=87|35=A|34=255|49=OrderGenerator|52=20250620-00:21:23.681|56=OrderAccumulator|98=0|108=30|10=135|8=FIX.4.4|9=87|35=A|34=256|49=OrderGenerator|52=20250620-00:21:28.709|56=OrderAccumulator|98=0|108=30|10=142|8=FIX.4.4|9=87|35=A|34=257|49=OrderGenerator|52=20250620-00:21:33.740|56=OrderAccumulator|98=0|108=30|10=134|8=FIX.4.4|9=87|35=A|34=258|49=OrderGenerator|52=20250620-00:21:38.774|56=OrderAccumulator|98=0|108=30|10=147|8=FIX.4.4|9=87|35=A|34=259|49=OrderGenerator|52=20250620-00:21:43.811|56=OrderAccumulator|98=0|108=30|10=136|8=FIX.4.4|9=87|35=A|34=260|49=OrderGenerator|52=20250620-00:21:48.865|56=OrderAccumulator|98=0|108=30|10=142|8=FIX.4.4|9=87|35=A|34=261|49=OrderGenerator|52=20250620-00:21:53.892|56=OrderAccumulator|98=0|108=30|10=139|8=FIX.4.4|9=87|35=A|34=262|49=OrderGenerator|52=20250620-00:21:58.937|56=OrderAccumulator|98=0|108=30|10=145|8=FIX.4.4|9=87|35=A|34=263|49=OrderGenerator|52=20250620-00:22:03.964|56=OrderAccumulator|98=0|108=30|10=137|8=FIX.4.4|9=87|35=A|34=264|49=OrderGenerator|52=20250620-00:22:08.999|56=OrderAccumulator|98=0|108=30|10=151|8=FIX.4.4|9=87|35=A|34=265|49=OrderGenerator|52=20250620-00:22:14.045|56=OrderAccumulator|98=0|108=30|10=131|8=FIX.4.4|9=87|35=A|34=266|49=OrderGenerator|52=20250620-00:22:19.064|56=OrderAccumulator|98=0|108=30|10=138|8=FIX.4.4|9=87|35=A|34=267|49=OrderGenerator|52=20250620-00:22:24.103|56=OrderAccumulator|98=0|108=30|10=129|8=FIX.4.4|9=87|35=A|34=268|49=OrderGenerator|52=20250620-00:22:29.125|56=OrderAccumulator|98=0|108=30|10=139|8=FIX.4.4|9=87|35=A|34=269|49=OrderGenerator|52=20250620-00:22:34.148|56=OrderAccumulator|98=0|108=30|10=141|8=FIX.4.4|9=87|35=A|34=270|49=OrderGenerator|52=20250620-00:22:39.187|56=OrderAccumulator|98=0|108=30|10=141|8=FIX.4.4|9=87|35=A|34=271|49=OrderGenerator|52=20250620-00:22:44.208|56=OrderAccumulator|98=0|108=30|10=132|8=FIX.4.4|9=87|35=A|34=272|49=OrderGenerator|52=20250620-00:22:49.245|56=OrderAccumulator|98=0|108=30|10=139|8=FIX.4.4|9=87|35=A|34=273|49=OrderGenerator|52=20250620-00:22:54.281|56=OrderAccumulator|98=0|108=30|10=136|8=FIX.4.4|9=87|35=A|34=274|49=OrderGenerator|52=20250620-00:22:59.317|56=OrderAccumulator|98=0|108=30|10=142|8=FIX.4.4|9=87|35=A|34=275|49=OrderGenerator|52=20250620-00:23:04.347|56=OrderAccumulator|98=0|108=30|10=137|8=FIX.4.4|9=87|35=A|34=276|49=OrderGenerator|52=20250620-00:23:09.390|56=OrderAccumulator|98=0|108=30|10=141|8=FIX.4.4|9=87|35=A|34=277|49=OrderGenerator|52=20250620-00:23:14.418|56=OrderAccumulator|98=0|108=30|10=139|8=FIX.4.4|9=87|35=A|34=278|49=OrderGenerator|52=20250620-00:23:19.451|56=OrderAccumulator|98=0|108=30|10=142|8=FIX.4.4|9=87|35=A|34=279|49=OrderGenerator|52=20250620-00:23:24.489|56=OrderAccumulator|98=0|108=30|10=150|8=FIX.4.4|9=87|35=A|34=280|49=OrderGenerator|52=20250620-00:23:29.512|56=OrderAccumulator|98=0|108=30|10=134|8=FIX.4.4|9=87|35=A|34=281|49=OrderGenerator|52=20250620-00:23:34.552|56=OrderAccumulator|98=0|108=30|10=135|8=FIX.4.4|9=87|35=A|34=282|49=OrderGenerator|52=20250620-00:23:39.585|56=OrderAccumulator|98=0|108=30|10=147|8=FIX.4.4|9=87|35=A|34=283|49=OrderGenerator|52=20250620-00:23:44.623|56=OrderAccumulator|98=0|108=30|10=137|8=FIX.4.4|9=87|35=A|34=284|49=OrderGenerator|52=20250620-00:23:49.651|56=OrderAccumulator|98=0|108=30|10=144|8=FIX.4.4|9=87|35=A|34=285|49=OrderGenerator|52=20250620-00:23:54.680|56=OrderAccumulator|98=0|108=30|10=143|8=FIX.4.4|9=87|35=A|34=286|49=OrderGenerator|52=20250620-00:23:59.709|56=OrderAccumulator|98=0|108=30|10=151|8=FIX.4.4|9=87|35=A|34=287|49=OrderGenerator|52=20250620-00:24:04.755|56=OrderAccumulator|98=0|108=30|10=144|8=FIX.4.4|9=87|35=A|34=288|49=OrderGenerator|52=20250620-00:24:09.784|56=OrderAccumulator|98=0|108=30|10=152|8=FIX.4.4|9=87|35=A|34=289|49=OrderGenerator|52=20250620-00:24:14.816|56=OrderAccumulator|98=0|108=30|10=145|8=FIX.4.4|9=87|35=A|34=290|49=OrderGenerator|52=20250620-00:24:19.858|56=OrderAccumulator|98=0|108=30|10=148|8=FIX.4.4|9=87|35=A|34=291|49=OrderGenerator|52=20250620-00:24:24.909|56=OrderAccumulator|98=0|108=30|10=142|8=FIX.4.4|9=87|35=A|34=292|49=OrderGenerator|52=20250620-00:24:29.942|56=OrderAccumulator|98=0|108=30|10=145|8=FIX.4.4|9=87|35=A|34=293|49=OrderGenerator|52=20250620-00:24:34.995|56=OrderAccumulator|98=0|108=30|10=150|8=FIX.4.4|9=87|35=A|34=294|49=OrderGenerator|52=20250620-00:24:40.024|56=OrderAccumulator|98=0|108=30|10=131|8=FIX.4.4|9=87|35=A|34=295|49=OrderGenerator|52=20250620-00:24:45.052|56=OrderAccumulator|98=0|108=30|10=138|8=FIX.4.4|9=87|35=A|34=296|49=OrderGenerator|52=20250620-00:24:50.078|56=OrderAccumulator|98=0|108=30|10=143|8=FIX.4.4|9=87|35=A|34=297|49=OrderGenerator|52=20250620-00:24:55.107|56=OrderAccumulator|98=0|108=30|10=142|8=FIX.4.4|9=87|35=A|34=298|49=OrderGenerator|52=20250620-00:25:00.145|56=OrderAccumulator|98=0|108=30|10=136|8=FIX.4.4|9=87|35=A|34=299|49=OrderGenerator|52=20250620-00:25:05.182|56=OrderAccumulator|98=0|108=30|10=143|8=FIX.4.4|9=87|35=A|34=300|49=OrderGenerator|52=20250620-00:25:10.224|56=OrderAccumulator|98=0|108=30|10=119|8=FIX.4.4|9=87|35=A|34=301|49=OrderGenerator|52=20250620-00:25:15.250|56=OrderAccumulator|98=0|108=30|10=124|8=FIX.4.4|9=87|35=A|34=302|49=OrderGenerator|52=20250620-00:25:20.291|56=OrderAccumulator|98=0|108=30|10=126|8=FIX.4.4|9=87|35=A|34=303|49=OrderGenerator|52=20250620-00:25:25.325|56=OrderAccumulator|98=0|108=30|10=130|8=FIX.4.4|9=87|35=A|34=304|49=OrderGenerator|52=20250620-00:25:30.373|56=OrderAccumulator|98=0|108=30|10=130|8=FIX.4.4|9=87|35=A|34=305|49=OrderGenerator|52=20250620-00:25:35.414|56=OrderAccumulator|98=0|108=30|10=132|8=FIX.4.4|9=87|35=A|34=306|49=OrderGenerator|52=20250620-00:25:40.465|56=OrderAccumulator|98=0|108=30|10=135|8=FIX.4.4|9=87|35=A|34=307|49=OrderGenerator|52=20250620-00:25:45.502|56=OrderAccumulator|98=0|108=30|10=133|8=FIX.4.4|9=87|35=A|34=308|49=OrderGenerator|52=20250620-00:25:50.539|56=OrderAccumulator|98=0|108=30|10=140|8=FIX.4.4|9=87|35=A|34=309|49=OrderGenerator|52=20250620-00:25:55.566|56=OrderAccumulator|98=0|108=30|10=146|8=FIX.4.4|9=87|35=A|34=310|49=OrderGenerator|52=20250620-00:26:00.601|56=OrderAccumulator|98=0|108=30|10=119|8=FIX.4.4|9=87|35=A|34=311|49=OrderGenerator|52=20250620-00:26:05.627|56=OrderAccumulator|98=0|108=30|10=133|8=FIX.4.4|9=87|35=A|34=312|49=OrderGenerator|52=20250620-00:26:10.647|56=OrderAccumulator|98=0|108=30|10=132|8=FIX.4.4|9=87|35=A|34=313|49=OrderGenerator|52=20250620-00:26:15.690|56=OrderAccumulator|98=0|108=30|10=136|8=FIX.4.4|9=87|35=A|34=314|49=OrderGenerator|52=20250620-00:26:20.720|56=OrderAccumulator|98=0|108=30|10=127|8=FIX.4.4|9=87|35=A|34=315|49=OrderGenerator|52=20250620-00:26:25.748|56=OrderAccumulator|98=0|108=30|10=143|8=FIX.4.4|9=87|35=A|34=316|49=OrderGenerator|52=20250620-00:26:30.782|56=OrderAccumulator|98=0|108=30|10=138|8=FIX.4.4|9=87|35=A|34=317|49=OrderGenerator|52=20250620-00:26:35.818|56=OrderAccumulator|98=0|108=30|10=144|8=FIX.4.4|9=87|35=A|34=318|49=OrderGenerator|52=20250620-00:26:40.847|56=OrderAccumulator|98=0|108=30|10=143|8=FIX.4.4|9=87|35=A|34=319|49=OrderGenerator|52=20250620-00:26:45.884|56=OrderAccumulator|98=0|108=30|10=150|8=FIX.4.4|9=87|35=A|34=320|49=OrderGenerator|52=20250620-00:26:50.923|56=OrderAccumulator|98=0|108=30|10=132|8=FIX.4.4|9=87|35=A|34=321|49=OrderGenerator|52=20250620-00:26:55.966|56=OrderAccumulator|98=0|108=30|10=145|8=FIX.4.4|9=87|35=A|34=322|49=OrderGenerator|52=20250620-00:27:00.994|56=OrderAccumulator|98=0|108=30|10=138|8=FIX.4.4|9=87|35=A|34=323|49=OrderGenerator|52=20250620-00:27:06.027|56=OrderAccumulator|98=0|108=30|10=132|8=FIX.4.4|9=87|35=A|34=324|49=OrderGenerator|52=20250620-00:27:11.060|56=OrderAccumulator|98=0|108=30|10=126|8=FIX.4.4|9=87|35=A|34=325|49=OrderGenerator|52=20250620-00:27:16.099|56=OrderAccumulator|98=0|108=30|10=144|8=FIX.4.4|9=87|35=A|34=326|49=OrderGenerator|52=20250620-00:27:21.133|56=OrderAccumulator|98=0|108=30|10=130|8=FIX.4.4|9=87|35=A|34=327|49=OrderGenerator|52=20250620-00:27:26.169|56=OrderAccumulator|98=0|108=30|10=145|8=FIX.4.4|9=87|35=A|34=328|49=OrderGenerator|52=20250620-00:27:31.201|56=OrderAccumulator|98=0|108=30|10=129|8=FIX.4.4|9=87|35=A|34=329|49=OrderGenerator|52=20250620-00:27:36.234|56=OrderAccumulator|98=0|108=30|10=141|8=FIX.4.4|9=87|35=A|34=330|49=OrderGenerator|52=20250620-00:27:41.268|56=OrderAccumulator|98=0|108=30|10=136|8=FIX.4.4|9=87|35=A|34=331|49=OrderGenerator|52=20250620-00:27:46.308|56=OrderAccumulator|98=0|108=30|10=137|8=FIX.4.4|9=87|35=A|34=332|49=OrderGenerator|52=20250620-00:27:51.341|56=OrderAccumulator|98=0|108=30|10=131|8=FIX.4.4|9=87|35=A|34=333|49=OrderGenerator|52=20250620-00:27:56.370|56=OrderAccumulator|98=0|108=30|10=139|8=FIX.4.4|9=87|35=A|34=334|49=OrderGenerator|52=20250620-00:28:01.417|56=OrderAccumulator|98=0|108=30|10=133|8=FIX.4.4|9=87|35=A|34=335|49=OrderGenerator|52=20250620-00:28:06.447|56=OrderAccumulator|98=0|108=30|10=142|8=FIX.4.4|9=87|35=A|34=336|49=OrderGenerator|52=20250620-00:28:11.481|56=OrderAccumulator|98=0|108=30|10=137|8=FIX.4.4|9=87|35=A|34=337|49=OrderGenerator|52=20250620-00:28:16.525|56=OrderAccumulator|98=0|108=30|10=142|8=FIX.4.4|9=87|35=A|34=338|49=OrderGenerator|52=20250620-00:28:21.551|56=OrderAccumulator|98=0|108=30|10=138|8=FIX.4.4|9=87|35=A|34=339|49=OrderGenerator|52=20250620-00:28:26.581|56=OrderAccumulator|98=0|108=30|10=147|8=FIX.4.4|9=87|35=A|34=340|49=OrderGenerator|52=20250620-00:28:31.614|56=OrderAccumulator|98=0|108=30|10=132|8=FIX.4.4|9=87|35=A|34=341|49=OrderGenerator|52=20250620-00:28:36.648|56=OrderAccumulator|98=0|108=30|10=145|8=FIX.4.4|9=87|35=A|34=342|49=OrderGenerator|52=20250620-00:28:41.695|56=OrderAccumulator|98=0|108=30|10=144|8=FIX.4.4|9=87|35=A|34=343|49=OrderGenerator|52=20250620-00:28:46.733|56=OrderAccumulator|98=0|108=30|10=143|8=FIX.4.4|9=87|35=A|34=344|49=OrderGenerator|52=20250620-00:28:51.752|56=OrderAccumulator|98=0|108=30|10=141|8=FIX.4.4|9=87|35=A|34=345|49=OrderGenerator|52=20250620-00:28:56.794|56=OrderAccumulator|98=0|108=30|10=153|8=FIX.4.4|9=87|35=A|34=346|49=OrderGenerator|52=20250620-00:29:01.824|56=OrderAccumulator|98=0|108=30|10=139|8=FIX.4.4|9=87|35=A|34=347|49=OrderGenerator|52=20250620-00:29:06.876|56=OrderAccumulator|98=0|108=30|10=152|8=FIX.4.4|9=87|35=A|34=348|49=OrderGenerator|52=20250620-00:29:11.910|56=OrderAccumulator|98=0|108=30|10=138|8=FIX.4.4|9=87|35=A|34=349|49=OrderGenerator|52=20250620-00:29:16.944|56=OrderAccumulator|98=0|108=30|10=151|8=FIX.4.4|9=87|35=A|34=350|49=OrderGenerator|52=20250620-00:29:21.989|56=OrderAccumulator|98=0|108=30|10=148|8=FIX.4.4|9=87|35=A|34=351|49=OrderGenerator|52=20250620-00:29:27.014|56=OrderAccumulator|98=0|108=30|10=134|8=FIX.4.4|9=87|35=A|34=352|49=OrderGenerator|52=20250620-00:29:32.058|56=OrderAccumulator|98=0|108=30|10=139|8=FIX.4.4|9=87|35=A|34=353|49=OrderGenerator|52=20250620-00:29:37.097|56=OrderAccumulator|98=0|108=30|10=148|8=FIX.4.4|9=87|35=A|34=354|49=OrderGenerator|52=20250620-00:29:42.141|56=OrderAccumulator|98=0|108=30|10=135|8=FIX.4.4|9=87|35=A|34=355|49=OrderGenerator|52=20250620-00:29:47.178|56=OrderAccumulator|98=0|108=30|10=151|8=FIX.4.4|9=87|35=A|34=356|49=OrderGenerator|52=20250620-00:29:52.214|56=OrderAccumulator|98=0|108=30|10=139|8=FIX.4.4|9=87|35=A|34=357|49=OrderGenerator|52=20250620-00:29:57.244|56=OrderAccumulator|98=0|108=30|10=148|8=FIX.4.4|9=87|35=A|34=358|49=OrderGenerator|52=20250620-00:30:02.275|56=OrderAccumulator|98=0|108=30|10=135|8=FIX.4.4|9=87|35=A|34=359|49=OrderGenerator|52=20250620-00:30:07.312|56=OrderAccumulator|98=0|108=30|10=133|8=FIX.4.4|9=87|35=A|34=360|49=OrderGenerator|52=20250620-00:30:12.339|56=OrderAccumulator|98=0|108=30|10=130|8=FIX.4.4|9=87|35=A|34=361|49=OrderGenerator|52=20250620-00:30:17.385|56=OrderAccumulator|98=0|108=30|10=137|8=FIX.4.4|9=87|35=A|34=362|49=OrderGenerator|52=20250620-00:30:22.415|56=OrderAccumulator|98=0|108=30|10=128|8=FIX.4.4|9=87|35=A|34=363|49=OrderGenerator|52=20250620-00:30:27.444|56=OrderAccumulator|98=0|108=30|10=136|8=FIX.4.4|9=87|35=A|34=364|49=OrderGenerator|52=20250620-00:30:32.481|56=OrderAccumulator|98=0|108=30|10=134|8=FIX.4.4|9=87|35=A|34=365|49=OrderGenerator|52=20250620-00:30:37.516|56=OrderAccumulator|98=0|108=30|10=139|8=FIX.4.4|9=87|35=A|34=366|49=OrderGenerator|52=20250620-00:30:42.552|56=OrderAccumulator|98=0|108=30|10=136|8=FIX.4.4|9=87|35=A|34=367|49=OrderGenerator|52=20250620-00:30:47.601|56=OrderAccumulator|98=0|108=30|10=137|8=FIX.4.4|9=87|35=A|34=368|49=OrderGenerator|52=20250620-00:30:52.639|56=OrderAccumulator|98=0|108=30|10=145|8=FIX.4.4|9=87|35=A|34=369|49=OrderGenerator|52=20250620-00:30:57.677|56=OrderAccumulator|98=0|108=30|10=153|8=FIX.4.4|9=87|35=A|34=370|49=OrderGenerator|52=20250620-00:31:02.710|56=OrderAccumulator|98=0|108=30|10=124|8=FIX.4.4|9=87|35=A|34=371|49=OrderGenerator|52=20250620-00:31:07.753|56=OrderAccumulator|98=0|108=30|10=137|8=FIX.4.4|9=87|35=A|34=372|49=OrderGenerator|52=20250620-00:31:12.786|56=OrderAccumulator|98=0|108=30|10=140|8=FIX.4.4|9=87|35=A|34=373|49=OrderGenerator|52=20250620-00:31:17.823|56=OrderAccumulator|98=0|108=30|10=138|8=FIX.4.4|9=87|35=A|34=374|49=OrderGenerator|52=20250620-00:31:22.860|56=OrderAccumulator|98=0|108=30|10=136|8=FIX.4.4|9=87|35=A|34=375|49=OrderGenerator|52=20250620-00:31:27.886|56=OrderAccumulator|98=0|108=30|10=150|8=FIX.4.4|9=87|35=A|34=376|49=OrderGenerator|52=20250620-00:31:32.911|56=OrderAccumulator|98=0|108=30|10=136|8=FIX.4.4|9=87|35=A|34=377|49=OrderGenerator|52=20250620-00:31:37.958|56=OrderAccumulator|98=0|108=30|10=153|8=FIX.4.4|9=87|35=A|34=378|49=OrderGenerator|52=20250620-00:31:42.996|56=OrderAccumulator|98=0|108=30|10=152|8=FIX.4.4|9=87|35=A|34=379|49=OrderGenerator|52=20250620-00:31:48.032|56=OrderAccumulator|98=0|108=30|10=140|8=FIX.4.4|9=87|35=A|34=380|49=OrderGenerator|52=20250620-00:31:53.069|56=OrderAccumulator|98=0|108=30|10=138|8=FIX.4.4|9=87|35=A|34=381|49=OrderGenerator|52=20250620-00:31:58.103|56=OrderAccumulator|98=0|108=30|10=133|8=FIX.4.4|9=87|35=A|34=382|49=OrderGenerator|52=20250620-00:32:03.149|56=OrderAccumulator|98=0|108=30|10=135|8=FIX.4.4|9=87|35=A|34=383|49=OrderGenerator|52=20250620-00:32:08.185|56=OrderAccumulator|98=0|108=30|10=141|8=FIX.4.4|9=87|35=A|34=384|49=OrderGenerator|52=20250620-00:32:13.234|56=OrderAccumulator|98=0|108=30|10=133|8=FIX.4.4|9=87|35=A|34=385|49=OrderGenerator|52=20250620-00:32:18.266|56=OrderAccumulator|98=0|108=30|10=144|8=FIX.4.4|9=87|35=A|34=386|49=OrderGenerator|52=20250620-00:32:23.292|56=OrderAccumulator|98=0|108=30|10=140|8=FIX.4.4|9=87|35=A|34=387|49=OrderGenerator|52=20250620-00:32:28.322|56=OrderAccumulator|98=0|108=30|10=140|8=FIX.4.4|9=87|35=A|34=388|49=OrderGenerator|52=20250620-00:32:33.349|56=OrderAccumulator|98=0|108=30|10=146|8=FIX.4.4|9=87|35=A|34=389|49=OrderGenerator|52=20250620-00:32:38.384|56=OrderAccumulator|98=0|108=30|10=151|8=FIX.4.4|9=87|35=A|34=390|49=OrderGenerator|52=20250620-00:32:43.436|56=OrderAccumulator|98=0|108=30|10=137|8=FIX.4.4|9=87|35=A|34=391|49=OrderGenerator|52=20250620-00:32:48.466|56=OrderAccumulator|98=0|108=30|10=146|8=FIX.4.4|9=87|35=A|34=392|49=OrderGenerator|52=20250620-00:32:53.506|56=OrderAccumulator|98=0|108=30|10=138|8=FIX.4.4|9=87|35=A|34=393|49=OrderGenerator|52=20250620-00:32:58.534|56=OrderAccumulator|98=0|108=30|10=145|8=FIX.4.4|9=87|35=A|34=394|49=OrderGenerator|52=20250620-00:33:03.566|56=OrderAccumulator|98=0|108=30|10=142|8=FIX.4.4|9=87|35=A|34=395|49=OrderGenerator|52=20250620-00:33:08.607|56=OrderAccumulator|98=0|108=30|10=144|8=FIX.4.4|9=87|35=A|34=396|49=OrderGenerator|52=20250620-00:33:13.657|56=OrderAccumulator|98=0|108=30|10=146|8=FIX.4.4|9=87|35=A|34=397|49=OrderGenerator|52=20250620-00:33:18.689|56=OrderAccumulator|98=0|108=30|10=157|8=FIX.4.4|9=87|35=A|34=398|49=OrderGenerator|52=20250620-00:33:23.723|56=OrderAccumulator|98=0|108=30|10=143|8=FIX.4.4|9=87|35=A|34=399|49=OrderGenerator|52=20250620-00:33:28.759|56=OrderAccumulator|98=0|108=30|10=158|8=FIX.4.4|9=87|35=A|34=400|49=OrderGenerator|52=20250620-00:33:33.799|56=OrderAccumulator|98=0|108=30|10=141|8=FIX.4.4|9=87|35=A|34=401|49=OrderGenerator|52=20250620-00:33:38.840|56=OrderAccumulator|98=0|108=30|10=134|8=FIX.4.4|9=87|35=A|34=402|49=OrderGenerator|52=20250620-00:33:43.889|56=OrderAccumulator|98=0|108=30|10=144|8=FIX.4.4|9=87|35=A|34=403|49=OrderGenerator|52=20250620-00:33:48.916|56=OrderAccumulator|98=0|108=30|10=141|8=FIX.4.4|9=87|35=A|34=404|49=OrderGenerator|52=20250620-00:33:53.951|56=OrderAccumulator|98=0|108=30|10=137|8=FIX.4.4|9=87|35=A|34=405|49=OrderGenerator|52=20250620-00:33:58.970|56=OrderAccumulator|98=0|108=30|10=144|8=FIX.4.4|9=87|35=A|34=406|49=OrderGenerator|52=20250620-00:34:04.005|56=OrderAccumulator|98=0|108=30|10=126|8=FIX.4.4|9=87|35=A|34=407|49=OrderGenerator|52=20250620-00:34:09.039|56=OrderAccumulator|98=0|108=30|10=139|8=FIX.4.4|9=87|35=A|34=408|49=OrderGenerator|52=20250620-00:34:14.065|56=OrderAccumulator|98=0|108=30|10=135|8=FIX.4.4|9=87|35=A|34=409|49=OrderGenerator|52=20250620-00:34:19.100|56=OrderAccumulator|98=0|108=30|10=131|8=FIX.4.4|9=87|35=A|34=410|49=OrderGenerator|52=20250620-00:34:24.125|56=OrderAccumulator|98=0|108=30|10=126|8=FIX.4.4|9=87|35=A|34=411|49=OrderGenerator|52=20250620-00:34:29.164|56=OrderAccumulator|98=0|108=30|10=135|8=FIX.4.4|9=87|35=A|34=412|49=OrderGenerator|52=20250620-00:34:34.206|56=OrderAccumulator|98=0|108=30|10=129|8=FIX.4.4|9=87|35=A|34=413|49=OrderGenerator|52=20250620-00:34:39.241|56=OrderAccumulator|98=0|108=30|10=134|8=FIX.4.4|9=87|35=A|34=414|49=OrderGenerator|52=20250620-00:34:44.282|56=OrderAccumulator|98=0|108=30|10=136|8=FIX.4.4|9=87|35=A|34=415|49=OrderGenerator|52=20250620-00:34:49.310|56=OrderAccumulator|98=0|108=30|10=134|8=FIX.4.4|9=87|35=A|34=416|49=OrderGenerator|52=20250620-00:34:54.339|56=OrderAccumulator|98=0|108=30|10=142|8=FIX.4.4|9=87|35=A|34=417|49=OrderGenerator|52=20250620-00:34:59.386|56=OrderAccumulator|98=0|108=30|10=150|8=FIX.4.4|9=87|35=A|34=418|49=OrderGenerator|52=20250620-00:35:04.410|56=OrderAccumulator|98=0|108=30|10=130|8=FIX.4.4|9=87|35=A|34=419|49=OrderGenerator|52=20250620-00:35:09.450|56=OrderAccumulator|98=0|108=30|10=140|8=FIX.4.4|9=87|35=A|34=420|49=OrderGenerator|52=20250620-00:35:14.483|56=OrderAccumulator|98=0|108=30|10=134|8=FIX.4.4|9=87|35=A|34=421|49=OrderGenerator|52=20250620-00:35:19.527|56=OrderAccumulator|98=0|108=30|10=139|8=FIX.4.4|9=87|35=A|34=422|49=OrderGenerator|52=20250620-00:35:24.564|56=OrderAccumulator|98=0|108=30|10=137|8=FIX.4.4|9=87|35=A|34=423|49=OrderGenerator|52=20250620-00:35:29.600|56=OrderAccumulator|98=0|108=30|10=134|8=FIX.4.4|9=87|35=A|34=424|49=OrderGenerator|52=20250620-00:35:34.636|56=OrderAccumulator|98=0|108=30|10=140|8=FIX.4.4|9=87|35=A|34=425|49=OrderGenerator|52=20250620-00:35:39.678|56=OrderAccumulator|98=0|108=30|10=152|8=FIX.4.4|9=87|35=A|34=426|49=OrderGenerator|52=20250620-00:35:44.713|56=OrderAccumulator|98=0|108=30|10=139|8=FIX.4.4|9=87|35=A|34=427|49=OrderGenerator|52=20250620-00:35:49.757|56=OrderAccumulator|98=0|108=30|10=153|8=FIX.4.4|9=87|35=A|34=428|49=OrderGenerator|52=20250620-00:35:54.786|56=OrderAccumulator|98=0|108=30|10=152|8=FIX.4.4|9=87|35=A|34=429|49=OrderGenerator|52=20250620-00:35:59.818|56=OrderAccumulator|98=0|108=30|10=154|8=FIX.4.4|9=87|35=A|34=430|49=OrderGenerator|52=20250620-00:36:04.853|56=OrderAccumulator|98=0|108=30|10=136|8=FIX.4.4|9=87|35=A|34=431|49=OrderGenerator|52=20250620-00:36:09.881|56=OrderAccumulator|98=0|108=30|10=143|8=FIX.4.4|9=87|35=A|34=432|49=OrderGenerator|52=20250620-00:36:14.915|56=OrderAccumulator|98=0|108=30|10=138|8=FIX.4.4|9=87|35=A|34=433|49=OrderGenerator|52=20250620-00:36:19.958|56=OrderAccumulator|98=0|108=30|10=151|8=FIX.4.4|9=87|35=A|34=434|49=OrderGenerator|52=20250620-00:36:24.991|56=OrderAccumulator|98=0|108=30|10=145|8=FIX.4.4|9=87|35=A|34=435|49=OrderGenerator|52=20250620-00:36:30.034|56=OrderAccumulator|98=0|108=30|10=131|8=FIX.4.4|9=87|35=A|34=436|49=OrderGenerator|52=20250620-00:36:35.057|56=OrderAccumulator|98=0|108=30|10=142|8=FIX.4.4|9=87|35=A|34=437|49=OrderGenerator|52=20250620-00:36:40.091|56=OrderAccumulator|98=0|108=30|10=137|8=FIX.4.4|9=87|35=A|34=438|49=OrderGenerator|52=20250620-00:36:45.124|56=OrderAccumulator|98=0|108=30|10=140|8=FIX.4.4|9=87|35=A|34=439|49=OrderGenerator|52=20250620-00:36:50.161|56=OrderAccumulator|98=0|108=30|10=138|8=FIX.4.4|9=87|35=A|34=440|49=OrderGenerator|52=20250620-00:36:55.202|56=OrderAccumulator|98=0|108=30|10=131|8=FIX.4.4|9=87|35=A|34=441|49=OrderGenerator|52=20250620-00:37:00.238|56=OrderAccumulator|98=0|108=30|10=132|8=FIX.4.4|9=87|35=A|34=442|49=OrderGenerator|52=20250620-00:37:05.278|56=OrderAccumulator|98=0|108=30|10=142|8=FIX.4.4|9=87|35=A|34=443|49=OrderGenerator|52=20250620-00:37:10.318|56=OrderAccumulator|98=0|108=30|10=134|8=FIX.4.4|9=87|35=A|34=444|49=OrderGenerator|52=20250620-00:37:15.357|56=OrderAccumulator|98=0|108=30|10=143|8=FIX.4.4|9=87|35=A|34=445|49=OrderGenerator|52=20250620-00:37:20.394|56=OrderAccumulator|98=0|108=30|10=141|8=FIX.4.4|9=87|35=A|34=446|49=OrderGenerator|52=20250620-00:37:25.434|56=OrderAccumulator|98=0|108=30|10=142|8=FIX.4.4|9=87|35=A|34=447|49=OrderGenerator|52=20250620-00:37:30.463|56=OrderAccumulator|98=0|108=30|10=141|8=FIX.4.4|9=87|35=A|34=448|49=OrderGenerator|52=20250620-00:37:35.495|56=OrderAccumulator|98=0|108=30|10=152|8=FIX.4.4|9=87|35=A|34=449|49=OrderGenerator|52=20250620-00:37:40.535|56=OrderAccumulator|98=0|108=30|10=144|8=FIX.4.4|9=87|35=A|34=450|49=OrderGenerator|52=20250620-00:37:45.570|56=OrderAccumulator|98=0|108=30|10=140|8=FIX.4.4|9=87|35=A|34=451|49=OrderGenerator|52=20250620-00:37:50.609|56=OrderAccumulator|98=0|108=30|10=140|8=FIX.4.4|9=87|35=A|34=452|49=OrderGenerator|52=20250620-00:37:55.640|56=OrderAccumulator|98=0|108=30|10=141|8=FIX.4.4|9=87|35=A|34=453|49=OrderGenerator|52=20250620-00:38:00.679|56=OrderAccumulator|98=0|108=30|10=145|8=FIX.4.4|9=87|35=A|34=454|49=OrderGenerator|52=20250620-00:38:05.708|56=OrderAccumulator|98=0|108=30|10=144|8=FIX.4.4|9=87|35=A|34=455|49=OrderGenerator|52=20250620-00:38:10.730|56=OrderAccumulator|98=0|108=30|10=136|8=FIX.4.4|9=87|35=A|34=456|49=OrderGenerator|52=20250620-00:38:15.762|56=OrderAccumulator|98=0|108=30|10=147|8=FIX.4.4|9=87|35=A|34=457|49=OrderGenerator|52=20250620-00:38:20.794|56=OrderAccumulator|98=0|108=30|10=149|8=FIX.4.4|9=87|35=A|34=458|49=OrderGenerator|52=20250620-00:38:25.832|56=OrderAccumulator|98=0|108=30|10=148|8=FIX.4.4|9=87|35=A|34=459|49=OrderGenerator|52=20250620-00:38:30.857|56=OrderAccumulator|98=0|108=30|10=152|8=FIX.4.4|9=87|35=A|34=460|49=OrderGenerator|52=20250620-00:38:35.893|56=OrderAccumulator|98=0|108=30|10=149|8=FIX.4.4|9=87|35=A|34=461|49=OrderGenerator|52=20250620-00:38:40.919|56=OrderAccumulator|98=0|108=30|10=145|8=FIX.4.4|9=87|35=A|34=462|49=OrderGenerator|52=20250620-00:38:45.947|56=OrderAccumulator|98=0|108=30|10=152|8=FIX.4.4|9=87|35=A|34=463|49=OrderGenerator|52=20250620-00:38:50.986|56=OrderAccumulator|98=0|108=30|10=152|8=FIX.4.4|9=87|35=A|34=464|49=OrderGenerator|52=20250620-00:38:56.016|56=OrderAccumulator|98=0|108=30|10=143|8=FIX.4.4|9=87|35=A|34=465|49=OrderGenerator|52=20250620-00:39:01.053|56=OrderAccumulator|98=0|108=30|10=136|8=FIX.4.4|9=87|35=A|34=466|49=OrderGenerator|52=20250620-00:39:06.090|56=OrderAccumulator|98=0|108=30|10=143|8=FIX.4.4|9=87|35=A|34=467|49=OrderGenerator|52=20250620-00:39:11.134|56=OrderAccumulator|98=0|108=30|10=139|8=FIX.4.4|9=87|35=A|34=468|49=OrderGenerator|52=20250620-00:39:16.173|56=OrderAccumulator|98=0|108=30|10=148|8=FIX.4.4|9=87|35=A|34=469|49=OrderGenerator|52=20250620-00:39:21.219|56=OrderAccumulator|98=0|108=30|10=146|8=FIX.4.4|9=87|35=A|34=470|49=OrderGenerator|52=20250620-00:39:26.253|56=OrderAccumulator|98=0|108=30|10=141|8=FIX.4.4|9=87|35=A|34=471|49=OrderGenerator|52=20250620-00:39:31.286|56=OrderAccumulator|98=0|108=30|10=144|8=FIX.4.4|9=87|35=A|34=472|49=OrderGenerator|52=20250620-00:39:36.319|56=OrderAccumulator|98=0|108=30|10=147|8=FIX.4.4|9=87|35=A|34=473|49=OrderGenerator|52=20250620-00:39:41.346|56=OrderAccumulator|98=0|108=30|10=144|8=FIX.4.4|9=87|35=A|34=474|49=OrderGenerator|52=20250620-00:39:46.392|56=OrderAccumulator|98=0|108=30|10=151|8=FIX.4.4|9=87|35=A|34=475|49=OrderGenerator|52=20250620-00:39:51.422|56=OrderAccumulator|98=0|108=30|10=142|8=FIX.4.4|9=87|35=A|34=476|49=OrderGenerator|52=20250620-00:39:56.448|56=OrderAccumulator|98=0|108=30|10=156|8=FIX.4.4|9=87|35=A|34=477|49=OrderGenerator|52=20250620-00:40:01.479|56=OrderAccumulator|98=0|108=30|10=143|8=FIX.4.4|9=87|35=A|34=478|49=OrderGenerator|52=20250620-00:40:06.509|56=OrderAccumulator|98=0|108=30|10=143|8=FIX.4.4|9=87|35=A|34=479|49=OrderGenerator|52=20250620-00:40:11.546|56=OrderAccumulator|98=0|108=30|10=141|8=FIX.4.4|9=87|35=A|34=480|49=OrderGenerator|52=20250620-00:40:16.583|56=OrderAccumulator|98=0|108=30|10=139|8=FIX.4.4|9=87|35=A|34=481|49=OrderGenerator|52=20250620-00:40:21.618|56=OrderAccumulator|98=0|108=30|10=135|8=FIX.4.4|9=87|35=A|34=482|49=OrderGenerator|52=20250620-00:40:26.670|56=OrderAccumulator|98=0|108=30|10=139|8=FIX.4.4|9=87|35=A|34=483|49=OrderGenerator|52=20250620-00:40:31.708|56=OrderAccumulator|98=0|108=30|10=138|8=FIX.4.4|9=87|35=A|34=484|49=OrderGenerator|52=20250620-00:40:36.740|56=OrderAccumulator|98=0|108=30|10=140|8=FIX.4.4|9=87|35=A|34=485|49=OrderGenerator|52=20250620-00:40:41.772|56=OrderAccumulator|98=0|108=30|10=142|8=FIX.4.4|9=87|35=A|34=486|49=OrderGenerator|52=20250620-00:40:46.815|56=OrderAccumulator|98=0|108=30|10=146|8=FIX.4.4|9=87|35=A|34=487|49=OrderGenerator|52=20250620-00:40:51.850|56=OrderAccumulator|98=0|108=30|10=142|8=FIX.4.4|9=87|35=A|34=488|49=OrderGenerator|52=20250620-00:40:56.885|56=OrderAccumulator|98=0|108=30|10=156|8=FIX.4.4|9=87|35=A|34=489|49=OrderGenerator|52=20250620-00:41:01.916|56=OrderAccumulator|98=0|108=30|10=143|8=FIX.4.4|9=87|35=A|34=490|49=OrderGenerator|52=20250620-00:41:06.954|56=OrderAccumulator|98=0|108=30|10=142|8=FIX.4.4|9=87|35=A|34=491|49=OrderGenerator|52=20250620-00:41:11.978|56=OrderAccumulator|98=0|108=30|10=145|8=FIX.4.4|9=87|35=A|34=492|49=OrderGenerator|52=20250620-00:41:17.005|56=OrderAccumulator|98=0|108=30|10=133|8=FIX.4.4|9=87|35=A|34=493|49=OrderGenerator|52=20250620-00:41:22.054|56=OrderAccumulator|98=0|108=30|10=134|8=FIX.4.4|9=87|35=A|34=494|49=OrderGenerator|52=20250620-00:41:27.095|56=OrderAccumulator|98=0|108=30|10=145|8=FIX.4.4|9=87|35=A|34=495|49=OrderGenerator|52=20250620-00:41:32.139|56=OrderAccumulator|98=0|108=30|10=141|8=FIX.4.4|9=87|35=A|34=496|49=OrderGenerator|52=20250620-00:41:37.181|56=OrderAccumulator|98=0|108=30|10=144|8=FIX.4.4|9=87|35=A|34=497|49=OrderGenerator|52=20250620-00:41:42.211|56=OrderAccumulator|98=0|108=30|10=135|8=FIX.4.4|9=87|35=A|34=498|49=OrderGenerator|52=20250620-00:41:47.252|56=OrderAccumulator|98=0|108=30|10=146|8=FIX.4.4|9=87|35=A|34=499|49=OrderGenerator|52=20250620-00:41:52.290|56=OrderAccumulator|98=0|108=30|10=145|8=FIX.4.4|9=87|35=A|34=500|49=OrderGenerator|52=20250620-00:41:57.322|56=OrderAccumulator|98=0|108=30|10=129|8=FIX.4.4|9=87|35=A|34=501|49=OrderGenerator|52=20250620-00:42:02.362|56=OrderAccumulator|98=0|108=30|10=125|8=FIX.4.4|9=87|35=A|34=502|49=OrderGenerator|52=20250620-00:42:07.384|56=OrderAccumulator|98=0|108=30|10=135|8=FIX.4.4|9=87|35=A|34=503|49=OrderGenerator|52=20250620-00:42:12.411|56=OrderAccumulator|98=0|108=30|10=123|8=FIX.4.4|9=87|35=A|34=504|49=OrderGenerator|52=20250620-00:42:17.434|56=OrderAccumulator|98=0|108=30|10=134|8=FIX.4.4|9=87|35=A|34=505|49=OrderGenerator|52=20250620-00:42:22.470|56=OrderAccumulator|98=0|108=30|10=131|8=FIX.4.4|9=87|35=A|34=506|49=OrderGenerator|52=20250620-00:42:27.521|56=OrderAccumulator|98=0|108=30|10=134|8=FIX.4.4|9=87|35=A|34=507|49=OrderGenerator|52=20250620-00:42:32.556|56=OrderAccumulator|98=0|108=30|10=139|8=FIX.4.4|9=87|35=A|34=508|49=OrderGenerator|52=20250620-00:42:37.595|56=OrderAccumulator|98=0|108=30|10=148|8=FIX.4.4|9=87|35=A|34=509|49=OrderGenerator|52=20250620-00:42:42.629|56=OrderAccumulator|98=0|108=30|10=143|8=FIX.4.4|9=87|35=A|34=510|49=OrderGenerator|52=20250620-00:42:47.668|56=OrderAccumulator|98=0|108=30|10=143|8=FIX.4.4|9=87|35=A|34=511|49=OrderGenerator|52=20250620-00:42:52.696|56=OrderAccumulator|98=0|108=30|10=141|8=FIX.4.4|9=87|35=A|34=512|49=OrderGenerator|52=20250620-00:42:57.731|56=OrderAccumulator|98=0|108=30|10=137|8=FIX.4.4|9=87|35=A|34=513|49=OrderGenerator|52=20250620-00:43:02.775|56=OrderAccumulator|98=0|108=30|10=137|8=FIX.4.4|9=87|35=A|34=514|49=OrderGenerator|52=20250620-00:43:07.804|56=OrderAccumulator|98=0|108=30|10=136|8=FIX.4.4|9=87|35=A|34=515|49=OrderGenerator|52=20250620-00:43:12.837|56=OrderAccumulator|98=0|108=30|10=139|8=FIX.4.4|9=87|35=A|34=516|49=OrderGenerator|52=20250620-00:43:17.867|56=OrderAccumulator|98=0|108=30|10=148|8=FIX.4.4|9=87|35=A|34=517|49=OrderGenerator|52=20250620-00:43:22.899|56=OrderAccumulator|98=0|108=30|10=150|8=FIX.4.4|9=87|35=A|34=518|49=OrderGenerator|52=20250620-00:43:27.935|56=OrderAccumulator|98=0|108=30|10=147|8=FIX.4.4|9=87|35=A|34=519|49=OrderGenerator|52=20250620-00:43:32.967|56=OrderAccumulator|98=0|108=30|10=149|8=FIX.4.4|9=87|35=A|34=520|49=OrderGenerator|52=20250620-00:43:38.004|56=OrderAccumulator|98=0|108=30|10=129|8=FIX.4.4|9=87|35=A|34=521|49=OrderGenerator|52=20250620-00:43:43.039|56=OrderAccumulator|98=0|108=30|10=134|8=FIX.4.4|9=87|35=A|34=522|49=OrderGenerator|52=20250620-00:43:48.071|56=OrderAccumulator|98=0|108=30|10=136|8=FIX.4.4|9=87|35=A|34=523|49=OrderGenerator|52=20250620-00:43:53.109|56=OrderAccumulator|98=0|108=30|10=135|8=FIX.4.4|9=87|35=A|34=524|49=OrderGenerator|52=20250620-00:43:58.145|56=OrderAccumulator|98=0|108=30|10=141|8=FIX.4.4|9=87|35=A|34=525|49=OrderGenerator|52=20250620-00:44:03.183|56=OrderAccumulator|98=0|108=30|10=135|8=FIX.4.4|9=87|35=A|34=526|49=OrderGenerator|52=20250620-00:44:08.231|56=OrderAccumulator|98=0|108=30|10=135|8=FIX.4.4|9=87|35=A|34=527|49=OrderGenerator|52=20250620-00:44:13.265|56=OrderAccumulator|98=0|108=30|10=139|8=FIX.4.4|9=87|35=A|34=528|49=OrderGenerator|52=20250620-00:44:18.299|56=OrderAccumulator|98=0|108=30|10=152|8=FIX.4.4|9=87|35=A|34=529|49=OrderGenerator|52=20250620-00:44:23.339|56=OrderAccumulator|98=0|108=30|10=144|8=FIX.4.4|9=87|35=A|34=530|49=OrderGenerator|52=20250620-00:44:28.370|56=OrderAccumulator|98=0|108=30|10=136|8=FIX.4.4|9=87|35=A|34=531|49=OrderGenerator|52=20250620-00:44:33.414|56=OrderAccumulator|98=0|108=30|10=132|8=FIX.4.4|9=87|35=A|34=532|49=OrderGenerator|52=20250620-00:44:38.453|56=OrderAccumulator|98=0|108=30|10=141|8=FIX.4.4|9=87|35=A|34=533|49=OrderGenerator|52=20250620-00:44:43.489|56=OrderAccumulator|98=0|108=30|10=147|8=FIX.4.4|9=87|35=A|34=534|49=OrderGenerator|52=20250620-00:44:48.523|56=OrderAccumulator|98=0|108=30|10=142|8=FIX.4.4|9=87|35=A|34=535|49=OrderGenerator|52=20250620-00:44:53.560|56=OrderAccumulator|98=0|108=30|10=140|8=FIX.4.4|9=87|35=A|34=536|49=OrderGenerator|52=20250620-00:44:58.591|56=OrderAccumulator|98=0|108=30|10=150|8=FIX.4.4|9=87|35=A|34=537|49=OrderGenerator|52=20250620-00:45:03.623|56=OrderAccumulator|98=0|108=30|10=138|8=FIX.4.4|9=87|35=A|34=538|49=OrderGenerator|52=20250620-00:45:08.655|56=OrderAccumulator|98=0|108=30|10=149|8=FIX.4.4|9=87|35=A|34=539|49=OrderGenerator|52=20250620-00:45:13.692|56=OrderAccumulator|98=0|108=30|10=147|8=FIX.4.4|9=87|35=A|34=540|49=OrderGenerator|52=20250620-00:45:18.725|56=OrderAccumulator|98=0|108=30|10=141|8=FIX.4.4|9=87|35=A|34=541|49=OrderGenerator|52=20250620-00:45:23.765|56=OrderAccumulator|98=0|108=30|10=142|8=FIX.4.4|9=87|35=A|34=542|49=OrderGenerator|52=20250620-00:45:28.795|56=OrderAccumulator|98=0|108=30|10=151|8=FIX.4.4|9=87|35=A|34=543|49=OrderGenerator|52=20250620-00:45:33.826|56=OrderAccumulator|98=0|108=30|10=143|8=FIX.4.4|9=87|35=A|34=544|49=OrderGenerator|52=20250620-00:45:38.861|56=OrderAccumulator|98=0|108=30|10=148|8=FIX.4.4|9=87|35=A|34=545|49=OrderGenerator|52=20250620-00:45:43.900|56=OrderAccumulator|98=0|108=30|10=139|8=FIX.4.4|9=87|35=A|34=546|49=OrderGenerator|52=20250620-00:45:48.932|56=OrderAccumulator|98=0|108=30|10=150|8=FIX.4.4|9=87|35=A|34=547|49=OrderGenerator|52=20250620-00:45:53.960|56=OrderAccumulator|98=0|108=30|10=148|8=FIX.4.4|9=87|35=A|34=548|49=OrderGenerator|52=20250620-00:45:58.986|56=OrderAccumulator|98=0|108=30|10=162|8=FIX.4.4|9=87|35=A|34=549|49=OrderGenerator|52=20250620-00:46:04.019|56=OrderAccumulator|98=0|108=30|10=142|8=FIX.4.4|9=87|35=A|34=550|49=OrderGenerator|52=20250620-00:46:09.049|56=OrderAccumulator|98=0|108=30|10=142|8=FIX.4.4|9=87|35=A|34=551|49=OrderGenerator|52=20250620-00:46:14.073|56=OrderAccumulator|98=0|108=30|10=136|8=FIX.4.4|9=87|35=A|34=552|49=OrderGenerator|52=20250620-00:46:19.096|56=OrderAccumulator|98=0|108=30|10=147|8=FIX.4.4|9=87|35=A|34=553|49=OrderGenerator|52=20250620-00:46:24.136|56=OrderAccumulator|98=0|108=30|10=139|8=FIX.4.4|9=87|35=A|34=554|49=OrderGenerator|52=20250620-00:46:29.158|56=OrderAccumulator|98=0|108=30|10=149|8=FIX.4.4|9=87|35=A|34=555|49=OrderGenerator|52=20250620-00:46:34.189|56=OrderAccumulator|98=0|108=30|10=150|8=FIX.4.4|9=87|35=A|34=556|49=OrderGenerator|52=20250620-00:46:39.228|56=OrderAccumulator|98=0|108=30|10=150|8=FIX.4.4|9=87|35=A|34=557|49=OrderGenerator|52=20250620-00:46:44.268|56=OrderAccumulator|98=0|108=30|10=151|8=FIX.4.4|9=87|35=A|34=558|49=OrderGenerator|52=20250620-00:46:49.305|56=OrderAccumulator|98=0|108=30|10=149|8=FIX.4.4|9=87|35=A|34=559|49=OrderGenerator|52=20250620-00:46:54.343|56=OrderAccumulator|98=0|108=30|10=148|8=FIX.4.4|9=87|35=A|34=560|49=OrderGenerator|52=20250620-00:46:59.379|56=OrderAccumulator|98=0|108=30|10=154|8=FIX.4.4|9=87|35=A|34=561|49=OrderGenerator|52=20250620-00:47:04.423|56=OrderAccumulator|98=0|108=30|10=136|8=FIX.4.4|9=87|35=A|34=562|49=OrderGenerator|52=20250620-00:47:09.456|56=OrderAccumulator|98=0|108=30|10=148|8=FIX.4.4|9=87|35=A|34=563|49=OrderGenerator|52=20250620-00:47:14.488|56=OrderAccumulator|98=0|108=30|10=150|8=FIX.4.4|9=87|35=A|34=564|49=OrderGenerator|52=20250620-00:47:19.523|56=OrderAccumulator|98=0|108=30|10=146|8=FIX.4.4|9=87|35=A|34=565|49=OrderGenerator|52=20250620-00:47:24.561|56=OrderAccumulator|98=0|108=30|10=145|8=FIX.4.4|9=87|35=A|34=566|49=OrderGenerator|52=20250620-00:47:29.599|56=OrderAccumulator|98=0|108=30|10=162|8=FIX.4.4|9=87|35=A|34=567|49=OrderGenerator|52=20250620-00:47:34.625|56=OrderAccumulator|98=0|108=30|10=149|8=FIX.4.4|9=87|35=A|34=568|49=OrderGenerator|52=20250620-00:47:39.664|56=OrderAccumulator|98=0|108=30|10=158|8=FIX.4.4|9=87|35=A|34=569|49=OrderGenerator|52=20250620-00:47:44.703|56=OrderAccumulator|98=0|108=30|10=149|8=FIX.4.4|9=87|35=A|34=570|49=OrderGenerator|52=20250620-00:47:49.730|56=OrderAccumulator|98=0|108=30|10=146|8=FIX.4.4|9=87|35=A|34=571|49=OrderGenerator|52=20250620-00:47:54.756|56=OrderAccumulator|98=0|108=30|10=151|8=FIX.4.4|9=87|35=A|34=572|49=OrderGenerator|52=20250620-00:47:59.791|56=OrderAccumulator|98=0|108=30|10=156|8=FIX.4.4|9=87|35=A|34=573|49=OrderGenerator|52=20250620-00:48:04.828|56=OrderAccumulator|98=0|108=30|10=149|8=FIX.4.4|9=87|35=A|34=574|49=OrderGenerator|52=20250620-00:48:09.849|56=OrderAccumulator|98=0|108=30|10=158|8=FIX.4.4|9=87|35=A|34=575|49=OrderGenerator|52=20250620-00:48:14.879|56=OrderAccumulator|98=0|108=30|10=158|8=FIX.4.4|9=87|35=A|34=576|49=OrderGenerator|52=20250620-00:48:19.913|56=OrderAccumulator|98=0|108=30|10=153|8=FIX.4.4|9=87|35=A|34=577|49=OrderGenerator|52=20250620-00:48:24.942|56=OrderAccumulator|98=0|108=30|10=152|8=FIX.4.4|9=87|35=A|34=578|49=OrderGenerator|52=20250620-00:48:29.968|56=OrderAccumulator|98=0|108=30|10=166|8=FIX.4.4|9=87|35=A|34=579|49=OrderGenerator|52=20250620-00:48:35.007|56=OrderAccumulator|98=0|108=30|10=148|8=FIX.4.4|9=87|35=A|34=580|49=OrderGenerator|52=20250620-00:48:40.038|56=OrderAccumulator|98=0|108=30|10=140|8=FIX.4.4|9=87|35=A|34=581|49=OrderGenerator|52=20250620-00:48:45.079|56=OrderAccumulator|98=0|108=30|10=151|8=FIX.4.4|9=87|35=A|34=582|49=OrderGenerator|52=20250620-00:48:50.122|56=OrderAccumulator|98=0|108=30|10=137|8=FIX.4.4|9=87|35=A|34=583|49=OrderGenerator|52=20250620-00:48:55.147|56=OrderAccumulator|98=0|108=30|10=150|8=FIX.4.4|9=87|35=A|34=584|49=OrderGenerator|52=20250620-00:49:00.178|56=OrderAccumulator|98=0|108=30|10=146|8=FIX.4.4|9=87|35=A|34=585|49=OrderGenerator|52=20250620-00:49:05.216|56=OrderAccumulator|98=0|108=30|10=145|8=FIX.4.4|9=87|35=A|34=586|49=OrderGenerator|52=20250620-00:49:10.251|56=OrderAccumulator|98=0|108=30|10=141|8=FIX.4.4|9=87|35=A|34=587|49=OrderGenerator|52=20250620-00:49:15.291|56=OrderAccumulator|98=0|108=30|10=151|8=FIX.4.4|9=87|35=A|34=588|49=OrderGenerator|52=20250620-00:49:20.326|56=OrderAccumulator|98=0|108=30|10=147|8=FIX.4.4|9=87|35=A|34=589|49=OrderGenerator|52=20250620-00:49:25.363|56=OrderAccumulator|98=0|108=30|10=154|8=FIX.4.4|9=87|35=A|34=590|49=OrderGenerator|52=20250620-00:49:30.403|56=OrderAccumulator|98=0|108=30|10=137|8=FIX.4.4|9=87|35=A|34=591|49=OrderGenerator|52=20250620-00:49:35.439|56=OrderAccumulator|98=0|108=30|10=152|8=FIX.4.4|9=87|35=A|34=592|49=OrderGenerator|52=20250620-00:49:40.466|56=OrderAccumulator|98=0|108=30|10=149|8=FIX.4.4|9=87|35=A|34=593|49=OrderGenerator|52=20250620-00:49:45.506|56=OrderAccumulator|98=0|108=30|10=150|8=FIX.4.4|9=87|35=A|34=594|49=OrderGenerator|52=20250620-00:49:50.538|56=OrderAccumulator|98=0|108=30|10=152|8=FIX.4.4|9=87|35=A|34=595|49=OrderGenerator|52=20250620-00:49:55.572|56=OrderAccumulator|98=0|108=30|10=156|8=FIX.4.4|9=87|35=A|34=596|49=OrderGenerator|52=20250620-00:50:00.605|56=OrderAccumulator|98=0|108=30|10=136|8=FIX.4.4|9=87|35=A|34=597|49=OrderGenerator|52=20250620-00:50:05.639|56=OrderAccumulator|98=0|108=30|10=149|8=FIX.4.4|9=87|35=A|34=598|49=OrderGenerator|52=20250620-00:50:10.674|56=OrderAccumulator|98=0|108=30|10=145|8=FIX.4.4|9=87|35=A|34=599|49=OrderGenerator|52=20250620-00:50:15.715|56=OrderAccumulator|98=0|108=30|10=147|8=FIX.4.4|9=87|35=A|34=600|49=OrderGenerator|52=20250620-00:50:20.751|56=OrderAccumulator|98=0|108=30|10=126|8=FIX.4.4|9=87|35=A|34=601|49=OrderGenerator|52=20250620-00:50:25.790|56=OrderAccumulator|98=0|108=30|10=135|8=FIX.4.4|9=87|35=A|34=602|49=OrderGenerator|52=20250620-00:50:30.827|56=OrderAccumulator|98=0|108=30|10=133|8=FIX.4.4|9=87|35=A|34=603|49=OrderGenerator|52=20250620-00:50:35.854|56=OrderAccumulator|98=0|108=30|10=139|8=FIX.4.4|9=87|35=A|34=604|49=OrderGenerator|52=20250620-00:50:40.885|56=OrderAccumulator|98=0|108=30|10=140|8=FIX.4.4|9=87|35=A|34=605|49=OrderGenerator|52=20250620-00:50:45.933|56=OrderAccumulator|98=0|108=30|10=140|8=FIX.4.4|9=87|35=A|34=606|49=OrderGenerator|52=20250620-00:50:50.968|56=OrderAccumulator|98=0|108=30|10=145|8=FIX.4.4|9=87|35=A|34=607|49=OrderGenerator|52=20250620-00:50:55.990|56=OrderAccumulator|98=0|108=30|10=146|8=FIX.4.4|9=87|35=A|34=608|49=OrderGenerator|52=20250620-00:51:01.020|56=OrderAccumulator|98=0|108=30|10=123|8=FIX.4.4|9=87|35=A|34=609|49=OrderGenerator|52=20250620-00:51:06.056|56=OrderAccumulator|98=0|108=30|10=138|8=FIX.4.4|9=87|35=A|34=610|49=OrderGenerator|52=20250620-00:51:11.093|56=OrderAccumulator|98=0|108=30|10=127|8=FIX.4.4|9=87|35=A|34=611|49=OrderGenerator|52=20250620-00:51:16.123|56=OrderAccumulator|98=0|108=30|10=127|8=FIX.4.4|9=87|35=A|34=612|49=OrderGenerator|52=20250620-00:51:21.156|56=OrderAccumulator|98=0|108=30|10=130|8=FIX.4.4|9=87|35=A|34=613|49=OrderGenerator|52=20250620-00:51:26.189|56=OrderAccumulator|98=0|108=30|10=142|8=FIX.4.4|9=87|35=A|34=614|49=OrderGenerator|52=20250620-00:51:31.219|56=OrderAccumulator|98=0|108=30|10=133|8=FIX.4.4|9=87|35=A|34=615|49=OrderGenerator|52=20250620-00:51:36.249|56=OrderAccumulator|98=0|108=30|10=142|8=FIX.4.4|9=87|35=A|34=616|49=OrderGenerator|52=20250620-00:51:41.277|56=OrderAccumulator|98=0|108=30|10=140|8=FIX.4.4|9=87|35=A|34=617|49=OrderGenerator|52=20250620-00:51:46.317|56=OrderAccumulator|98=0|108=30|10=141|8=FIX.4.4|9=87|35=A|34=618|49=OrderGenerator|52=20250620-00:51:51.357|56=OrderAccumulator|98=0|108=30|10=142|8=FIX.4.4|9=87|35=A|34=619|49=OrderGenerator|52=20250620-00:51:56.391|56=OrderAccumulator|98=0|108=30|10=146|8=FIX.4.4|9=87|35=A|34=620|49=OrderGenerator|52=20250620-00:52:01.424|56=OrderAccumulator|98=0|108=30|10=126|8=FIX.4.4|9=87|35=A|34=621|49=OrderGenerator|52=20250620-00:52:06.458|56=OrderAccumulator|98=0|108=30|10=139|8=FIX.4.4|9=87|35=A|34=622|49=OrderGenerator|52=20250620-00:52:11.488|56=OrderAccumulator|98=0|108=30|10=139|8=FIX.4.4|9=87|35=A|34=623|49=OrderGenerator|52=20250620-00:52:16.517|56=OrderAccumulator|98=0|108=30|10=138|8=FIX.4.4|9=87|35=A|34=624|49=OrderGenerator|52=20250620-00:52:21.550|56=OrderAccumulator|98=0|108=30|10=132|8=FIX.4.4|9=87|35=A|34=625|49=OrderGenerator|52=20250620-00:52:26.578|56=OrderAccumulator|98=0|108=30|10=148|8=FIX.4.4|9=87|35=A|34=626|49=OrderGenerator|52=20250620-00:52:31.609|56=OrderAccumulator|98=0|108=30|10=140|8=FIX.4.4|9=87|35=A|34=627|49=OrderGenerator|52=20250620-00:52:36.639|56=OrderAccumulator|98=0|108=30|10=149|8=FIX.4.4|9=87|35=A|34=628|49=OrderGenerator|52=20250620-00:52:41.662|56=OrderAccumulator|98=0|108=30|10=142|8=FIX.4.4|9=87|35=A|34=629|49=OrderGenerator|52=20250620-00:52:46.703|56=OrderAccumulator|98=0|108=30|10=144|8=FIX.4.4|9=87|35=A|34=630|49=OrderGenerator|52=20250620-00:52:51.730|56=OrderAccumulator|98=0|108=30|10=132|8=FIX.4.4|9=87|35=A|34=631|49=OrderGenerator|52=20250620-00:52:56.773|56=OrderAccumulator|98=0|108=30|10=145|8=FIX.4.4|9=87|35=A|34=632|49=OrderGenerator|52=20250620-00:53:01.813|56=OrderAccumulator|98=0|108=30|10=132|8=FIX.4.4|9=87|35=A|34=633|49=OrderGenerator|52=20250620-00:53:06.837|56=OrderAccumulator|98=0|108=30|10=144|8=FIX.4.4|9=87|35=A|34=634|49=OrderGenerator|52=20250620-00:53:11.888|56=OrderAccumulator|98=0|108=30|10=147|8=FIX.4.4|9=87|35=A|34=635|49=OrderGenerator|52=20250620-00:53:16.934|56=OrderAccumulator|98=0|108=30|10=145|8=FIX.4.4|9=87|35=A|34=636|49=OrderGenerator|52=20250620-00:53:21.966|56=OrderAccumulator|98=0|108=30|10=147|8=FIX.4.4|9=87|35=A|34=637|49=OrderGenerator|52=20250620-00:53:26.996|56=OrderAccumulator|98=0|108=30|10=156|8=FIX.4.4|9=87|35=A|34=638|49=OrderGenerator|52=20250620-00:53:32.025|56=OrderAccumulator|98=0|108=30|10=137|8=FIX.4.4|9=87|35=A|34=639|49=OrderGenerator|52=20250620-00:53:37.057|56=OrderAccumulator|98=0|108=30|10=148|8=FIX.4.4|9=87|35=A|34=640|49=OrderGenerator|52=20250620-00:53:42.087|56=OrderAccumulator|98=0|108=30|10=139|8=FIX.4.4|9=87|35=A|34=641|49=OrderGenerator|52=20250620-00:53:47.124|56=OrderAccumulator|98=0|108=30|10=137|8=FIX.4.4|9=87|35=A|34=642|49=OrderGenerator|52=20250620-00:53:52.169|56=OrderAccumulator|98=0|108=30|10=143|8=FIX.4.4|9=87|35=A|34=643|49=OrderGenerator|52=20250620-00:53:57.207|56=OrderAccumulator|98=0|108=30|10=142|8=FIX.4.4|9=87|35=A|34=644|49=OrderGenerator|52=20250620-00:54:02.222|56=OrderAccumulator|98=0|108=30|10=131|8=FIX.4.4|9=87|35=A|34=645|49=OrderGenerator|52=20250620-00:54:07.251|56=OrderAccumulator|98=0|108=30|10=139|8=FIX.4.4|9=87|35=A|34=646|49=OrderGenerator|52=20250620-00:54:12.283|56=OrderAccumulator|98=0|108=30|10=141|8=FIX.4.4|9=87|35=A|34=647|49=OrderGenerator|52=20250620-00:54:17.320|56=OrderAccumulator|98=0|108=30|10=139|8=FIX.4.4|9=87|35=A|34=648|49=OrderGenerator|52=20250620-00:54:22.356|56=OrderAccumulator|98=0|108=30|10=145|8=FIX.4.4|9=87|35=A|34=649|49=OrderGenerator|52=20250620-00:54:27.400|56=OrderAccumulator|98=0|108=30|10=141|8=FIX.4.4|9=87|35=A|34=650|49=OrderGenerator|52=20250620-00:54:32.439|56=OrderAccumulator|98=0|108=30|10=141|8=FIX.4.4|9=87|35=A|34=651|49=OrderGenerator|52=20250620-00:54:37.469|56=OrderAccumulator|98=0|108=30|10=150|8=FIX.4.4|9=87|35=A|34=652|49=OrderGenerator|52=20250620-00:54:42.510|56=OrderAccumulator|98=0|108=30|10=134|8=FIX.4.4|9=87|35=A|34=653|49=OrderGenerator|52=20250620-00:54:47.544|56=OrderAccumulator|98=0|108=30|10=147|8=FIX.4.4|9=87|35=A|34=654|49=OrderGenerator|52=20250620-00:54:52.583|56=OrderAccumulator|98=0|108=30|10=147|8=FIX.4.4|9=87|35=A|34=655|49=OrderGenerator|52=20250620-00:54:57.624|56=OrderAccumulator|98=0|108=30|10=149|8=FIX.4.4|9=87|35=A|34=656|49=OrderGenerator|52=20250620-00:55:02.662|56=OrderAccumulator|98=0|108=30|10=143|8=FIX.4.4|9=87|35=A|34=657|49=OrderGenerator|52=20250620-00:55:07.697|56=OrderAccumulator|98=0|108=30|10=157|8=FIX.4.4|9=87|35=A|34=658|49=OrderGenerator|52=20250620-00:55:12.741|56=OrderAccumulator|98=0|108=30|10=144|8=FIX.4.4|9=87|35=A|34=659|49=OrderGenerator|52=20250620-00:55:17.785|56=OrderAccumulator|98=0|108=30|10=158|8=FIX.4.4|9=87|35=A|34=660|49=OrderGenerator|52=20250620-00:55:22.826|56=OrderAccumulator|98=0|108=30|10=142|8=FIX.4.4|9=87|35=A|34=661|49=OrderGenerator|52=20250620-00:55:27.856|56=OrderAccumulator|98=0|108=30|10=151|8=FIX.4.4|9=87|35=A|34=662|49=OrderGenerator|52=20250620-00:55:32.897|56=OrderAccumulator|98=0|108=30|10=153|8=FIX.4.4|9=87|35=A|34=663|49=OrderGenerator|52=20250620-00:55:37.944|56=OrderAccumulator|98=0|108=30|10=152|8=FIX.4.4|9=87|35=A|34=664|49=OrderGenerator|52=20250620-00:55:42.979|56=OrderAccumulator|98=0|108=30|10=157|8=FIX.4.4|9=87|35=A|34=665|49=OrderGenerator|52=20250620-00:55:48.000|56=OrderAccumulator|98=0|108=30|10=139|8=FIX.4.4|9=87|35=A|34=666|49=OrderGenerator|52=20250620-00:55:53.043|56=OrderAccumulator|98=0|108=30|10=143|8=FIX.4.4|9=87|35=A|34=667|49=OrderGenerator|52=20250620-00:55:58.073|56=OrderAccumulator|98=0|108=30|10=152|8=FIX.4.4|9=87|35=A|34=668|49=OrderGenerator|52=20250620-00:56:03.106|56=OrderAccumulator|98=0|108=30|10=141|8=FIX.4.4|9=87|35=A|34=669|49=OrderGenerator|52=20250620-00:56:08.145|56=OrderAccumulator|98=0|108=30|10=150|8=FIX.4.4|9=87|35=A|34=670|49=OrderGenerator|52=20250620-00:56:13.169|56=OrderAccumulator|98=0|108=30|10=144|8=FIX.4.4|9=87|35=A|34=671|49=OrderGenerator|52=20250620-00:56:18.210|56=OrderAccumulator|98=0|108=30|10=137|8=FIX.4.4|9=87|35=A|34=672|49=OrderGenerator|52=20250620-00:56:23.242|56=OrderAccumulator|98=0|108=30|10=139|8=FIX.4.4|9=87|35=A|34=673|49=OrderGenerator|52=20250620-00:56:28.271|56=OrderAccumulator|98=0|108=30|10=147|8=FIX.4.4|9=87|35=A|34=674|49=OrderGenerator|52=20250620-00:56:33.297|56=OrderAccumulator|98=0|108=30|10=152|8=FIX.4.4|9=87|35=A|34=675|49=OrderGenerator|52=20250620-00:56:38.340|56=OrderAccumulator|98=0|108=30|10=147|8=FIX.4.4|9=87|35=A|34=676|49=OrderGenerator|52=20250620-00:56:43.363|56=OrderAccumulator|98=0|108=30|10=149|8=FIX.4.4|9=87|35=A|34=677|49=OrderGenerator|52=20250620-00:56:48.394|56=OrderAccumulator|98=0|108=30|10=159|8=FIX.4.4|9=87|35=A|34=678|49=OrderGenerator|52=20250620-00:56:53.431|56=OrderAccumulator|98=0|108=30|10=148|8=FIX.4.4|9=87|35=A|34=679|49=OrderGenerator|52=20250620-00:56:58.456|56=OrderAccumulator|98=0|108=30|10=161|8=FIX.4.4|9=87|35=A|34=680|49=OrderGenerator|52=20250620-00:57:03.490|56=OrderAccumulator|98=0|108=30|10=142|8=FIX.4.4|9=87|35=A|34=681|49=OrderGenerator|52=20250620-00:57:08.528|56=OrderAccumulator|98=0|108=30|10=150|8=FIX.4.4|9=87|35=A|34=682|49=OrderGenerator|52=20250620-00:57:13.558|56=OrderAccumulator|98=0|108=30|10=150|8=FIX.4.4|9=87|35=A|34=683|49=OrderGenerator|52=20250620-00:57:18.589|56=OrderAccumulator|98=0|108=30|10=160|8=FIX.4.4|9=87|35=A|34=684|49=OrderGenerator|52=20250620-00:57:23.628|56=OrderAccumulator|98=0|108=30|10=151|8=FIX.4.4|9=87|35=A|34=685|49=OrderGenerator|52=20250620-00:57:28.667|56=OrderAccumulator|98=0|108=30|10=160|8=FIX.4.4|9=87|35=A|34=686|49=OrderGenerator|52=20250620-00:57:33.704|56=OrderAccumulator|98=0|108=30|10=149|8=FIX.4.4|9=87|35=A|34=687|49=OrderGenerator|52=20250620-00:57:38.741|56=OrderAccumulator|98=0|108=30|10=156|8=FIX.4.4|9=87|35=A|34=688|49=OrderGenerator|52=20250620-00:57:43.783|56=OrderAccumulator|98=0|108=30|10=159|8=FIX.4.4|9=87|35=A|34=689|49=OrderGenerator|52=20250620-00:57:48.811|56=OrderAccumulator|98=0|108=30|10=157|8=FIX.4.4|9=87|35=A|34=690|49=OrderGenerator|52=20250620-00:57:53.840|56=OrderAccumulator|98=0|108=30|10=147|8=FIX.4.4|9=87|35=A|34=691|49=OrderGenerator|52=20250620-00:57:58.889|56=OrderAccumulator|98=0|108=30|10=166|8=FIX.4.4|9=87|35=A|34=692|49=OrderGenerator|52=20250620-00:58:03.923|56=OrderAccumulator|98=0|108=30|10=147|8=FIX.4.4|9=87|35=A|34=693|49=OrderGenerator|52=20250620-00:58:08.962|56=OrderAccumulator|98=0|108=30|10=156|8=FIX.4.4|9=87|35=A|34=694|49=OrderGenerator|52=20250620-00:58:13.997|56=OrderAccumulator|98=0|108=30|10=161|8=FIX.4.4|9=87|35=A|34=695|49=OrderGenerator|52=20250620-00:58:19.031|56=OrderAccumulator|98=0|108=30|10=147|8=FIX.4.4|9=87|35=A|34=696|49=OrderGenerator|52=20250620-00:58:24.072|56=OrderAccumulator|98=0|108=30|10=149|8=FIX.4.4|9=87|35=A|34=697|49=OrderGenerator|52=20250620-00:58:29.104|56=OrderAccumulator|98=0|108=30|10=151|8=FIX.4.4|9=87|35=A|34=698|49=OrderGenerator|52=20250620-00:58:34.135|56=OrderAccumulator|98=0|108=30|10=152|8=FIX.4.4|9=87|35=A|34=699|49=OrderGenerator|52=20250620-00:58:39.169|56=OrderAccumulator|98=0|108=30|10=165|8=FIX.4.4|9=87|35=A|34=700|49=OrderGenerator|52=20250620-00:58:44.215|56=OrderAccumulator|98=0|108=30|10=136|8=FIX.4.4|9=87|35=A|34=701|49=OrderGenerator|52=20250620-00:58:49.248|56=OrderAccumulator|98=0|108=30|10=148|8=FIX.4.4|9=87|35=A|34=702|49=OrderGenerator|52=20250620-00:58:54.272|56=OrderAccumulator|98=0|108=30|10=142|8=FIX.4.4|9=87|35=A|34=703|49=OrderGenerator|52=20250620-00:58:59.311|56=OrderAccumulator|98=0|108=30|10=142|8=FIX.4.4|9=87|35=A|34=704|49=OrderGenerator|52=20250620-00:59:04.347|56=OrderAccumulator|98=0|108=30|10=143|8=FIX.4.4|9=87|35=A|34=705|49=OrderGenerator|52=20250620-00:59:09.395|56=OrderAccumulator|98=0|108=30|10=152|8=FIX.4.4|9=87|35=A|34=706|49=OrderGenerator|52=20250620-00:59:14.431|56=OrderAccumulator|98=0|108=30|10=140|8=FIX.4.4|9=87|35=A|34=707|49=OrderGenerator|52=20250620-00:59:19.470|56=OrderAccumulator|98=0|108=30|10=149|8=FIX.4.4|9=87|35=A|34=708|49=OrderGenerator|52=20250620-00:59:24.507|56=OrderAccumulator|98=0|108=30|10=147|8=FIX.4.4|9=87|35=A|34=709|49=OrderGenerator|52=20250620-00:59:29.560|56=OrderAccumulator|98=0|108=30|10=152|8=FIX.4.4|9=87|35=A|34=710|49=OrderGenerator|52=20250620-00:59:34.592|56=OrderAccumulator|98=0|108=30|10=145|8=FIX.4.4|9=87|35=A|34=711|49=OrderGenerator|52=20250620-00:59:39.629|56=OrderAccumulator|98=0|108=30|10=152|8=FIX.4.4|9=87|35=A|34=712|49=OrderGenerator|52=20250620-00:59:44.672|56=OrderAccumulator|98=0|108=30|10=147|8=FIX.4.4|9=87|35=A|34=713|49=OrderGenerator|52=20250620-00:59:49.735|56=OrderAccumulator|98=0|108=30|10=153|8=FIX.4.4|9=87|35=A|34=714|49=OrderGenerator|52=20250620-00:59:54.766|56=OrderAccumulator|98=0|108=30|10=154|8=FIX.4.4|9=87|35=A|34=715|49=OrderGenerator|52=20250620-00:59:59.795|56=OrderAccumulator|98=0|108=30|10=162|8=FIX.4.4|9=87|35=A|34=716|49=OrderGenerator|52=20250620-01:00:04.823|56=OrderAccumulator|98=0|108=30|10=132|8=FIX.4.4|9=87|35=A|34=717|49=OrderGenerator|52=20250620-01:00:09.851|56=OrderAccumulator|98=0|108=30|10=139|8=FIX.4.4|9=87|35=A|34=718|49=OrderGenerator|52=20250620-01:00:14.889|56=OrderAccumulator|98=0|108=30|10=147|8=FIX.4.4|9=87|35=A|34=719|49=OrderGenerator|52=20250620-01:00:19.930|56=OrderAccumulator|98=0|108=30|10=140|8=FIX.4.4|9=87|35=A|34=720|49=OrderGenerator|52=20250620-01:00:24.953|56=OrderAccumulator|98=0|108=30|10=133|8=FIX.4.4|9=87|35=A|34=721|49=OrderGenerator|52=20250620-01:00:29.987|56=OrderAccumulator|98=0|108=30|10=146|8=FIX.4.4|9=87|35=A|34=722|49=OrderGenerator|52=20250620-01:00:35.024|56=OrderAccumulator|98=0|108=30|10=126|8=FIX.4.4|9=87|35=A|34=723|49=OrderGenerator|52=20250620-01:00:40.052|56=OrderAccumulator|98=0|108=30|10=124|8=FIX.4.4|9=87|35=A|34=724|49=OrderGenerator|52=20250620-01:00:45.090|56=OrderAccumulator|98=0|108=30|10=132|8=FIX.4.4|9=87|35=A|34=725|49=OrderGenerator|52=20250620-01:00:50.124|56=OrderAccumulator|98=0|108=30|10=127|8=FIX.4.4|9=87|35=A|34=726|49=OrderGenerator|52=20250620-01:00:55.163|56=OrderAccumulator|98=0|108=30|10=136|8=FIX.4.4|9=87|35=A|34=727|49=OrderGenerator|52=20250620-01:01:00.188|56=OrderAccumulator|98=0|108=30|10=135|8=FIX.4.4|9=87|35=A|34=728|49=OrderGenerator|52=20250620-01:01:05.223|56=OrderAccumulator|98=0|108=30|10=131|8=FIX.4.4|9=87|35=A|34=729|49=OrderGenerator|52=20250620-01:01:10.245|56=OrderAccumulator|98=0|108=30|10=132|8=FIX.4.4|9=87|35=A|34=730|49=OrderGenerator|52=20250620-01:01:15.287|56=OrderAccumulator|98=0|108=30|10=135|8=FIX.4.4|9=87|35=A|34=731|49=OrderGenerator|52=20250620-01:01:20.324|56=OrderAccumulator|98=0|108=30|10=124|8=FIX.4.4|9=87|35=A|34=732|49=OrderGenerator|52=20250620-01:01:25.346|56=OrderAccumulator|98=0|108=30|10=134|8=FIX.4.4|9=87|35=A|34=733|49=OrderGenerator|52=20250620-01:01:30.384|56=OrderAccumulator|98=0|108=30|10=133|8=FIX.4.4|9=87|35=A|34=734|49=OrderGenerator|52=20250620-01:01:35.411|56=OrderAccumulator|98=0|108=30|10=130|8=FIX.4.4|9=87|35=A|34=735|49=OrderGenerator|52=20250620-01:01:40.455|56=OrderAccumulator|98=0|108=30|10=135|8=FIX.4.4|9=87|35=A|34=736|49=OrderGenerator|52=20250620-01:01:45.492|56=OrderAccumulator|98=0|108=30|10=142|8=FIX.4.4|9=87|35=A|34=737|49=OrderGenerator|52=20250620-01:01:50.519|56=OrderAccumulator|98=0|108=30|10=139|8=FIX.4.4|9=87|35=A|34=738|49=OrderGenerator|52=20250620-01:01:55.557|56=OrderAccumulator|98=0|108=30|10=147|8=FIX.4.4|9=87|35=A|34=739|49=OrderGenerator|52=20250620-01:02:00.599|56=OrderAccumulator|98=0|108=30|10=145|8=FIX.4.4|9=87|35=A|34=740|49=OrderGenerator|52=20250620-01:02:05.648|56=OrderAccumulator|98=0|108=30|10=137|8=FIX.4.4|9=87|35=A|34=741|49=OrderGenerator|52=20250620-01:02:10.691|56=OrderAccumulator|98=0|108=30|10=132|8=FIX.4.4|9=87|35=A|34=742|49=OrderGenerator|52=20250620-01:02:15.725|56=OrderAccumulator|98=0|108=30|10=136|8=FIX.4.4|9=87|35=A|34=743|49=OrderGenerator|52=20250620-01:02:20.761|56=OrderAccumulator|98=0|108=30|10=133|8=FIX.4.4|9=87|35=A|34=744|49=OrderGenerator|52=20250620-01:02:25.807|56=OrderAccumulator|98=0|108=30|10=140|8=FIX.4.4|9=87|35=A|34=745|49=OrderGenerator|52=20250620-01:02:30.838|56=OrderAccumulator|98=0|108=30|10=141|8=FIX.4.4|9=87|35=A|34=746|49=OrderGenerator|52=20250620-01:02:35.881|56=OrderAccumulator|98=0|108=30|10=145|8=FIX.4.4|9=87|35=A|34=747|49=OrderGenerator|52=20250620-01:02:40.913|56=OrderAccumulator|98=0|108=30|10=138|8=FIX.4.4|9=87|35=A|34=748|49=OrderGenerator|52=20250620-01:02:45.955|56=OrderAccumulator|98=0|108=30|10=150|8=FIX.4.4|9=87|35=A|34=749|49=OrderGenerator|52=20250620-01:02:50.994|56=OrderAccumulator|98=0|108=30|10=150|8=FIX.4.4|9=87|35=A|34=750|49=OrderGenerator|52=20250620-01:02:56.036|56=OrderAccumulator|98=0|108=30|10=135|8=FIX.4.4|9=87|35=A|34=751|49=OrderGenerator|52=20250620-01:03:01.059|56=OrderAccumulator|98=0|108=30|10=132|8=FIX.4.4|9=87|35=A|34=752|49=OrderGenerator|52=20250620-01:03:06.097|56=OrderAccumulator|98=0|108=30|10=140|8=FIX.4.4|9=87|35=A|34=753|49=OrderGenerator|52=20250620-01:03:11.138|56=OrderAccumulator|98=0|108=30|10=133|8=FIX.4.4|9=87|35=A|34=754|49=OrderGenerator|52=20250620-01:03:16.167|56=OrderAccumulator|98=0|108=30|10=141|8=FIX.4.4|9=87|35=A|34=755|49=OrderGenerator|52=20250620-01:03:21.212|56=OrderAccumulator|98=0|108=30|10=129|8=FIX.4.4|9=87|35=A|34=756|49=OrderGenerator|52=20250620-01:03:26.251|56=OrderAccumulator|98=0|108=30|10=138|8=FIX.4.4|9=87|35=A|34=757|49=OrderGenerator|52=20250620-01:03:31.288|56=OrderAccumulator|98=0|108=30|10=145|8=FIX.4.4|9=87|35=A|34=758|49=OrderGenerator|52=20250620-01:03:36.325|56=OrderAccumulator|98=0|108=30|10=143|8=FIX.4.4|9=87|35=A|34=759|49=OrderGenerator|52=20250620-01:03:41.354|56=OrderAccumulator|98=0|108=30|10=142|8=FIX.4.4|9=87|35=A|34=760|49=OrderGenerator|52=20250620-01:03:46.390|56=OrderAccumulator|98=0|108=30|10=139|8=FIX.4.4|9=87|35=A|34=761|49=OrderGenerator|52=20250620-01:03:51.419|56=OrderAccumulator|98=0|108=30|10=138|8=FIX.4.4|9=87|35=A|34=762|49=OrderGenerator|52=20250620-01:03:56.452|56=OrderAccumulator|98=0|108=30|10=141|8=FIX.4.4|9=87|35=A|34=763|49=OrderGenerator|52=20250620-01:04:01.479|56=OrderAccumulator|98=0|108=30|10=142|8=FIX.4.4|9=87|35=A|34=764|49=OrderGenerator|52=20250620-01:04:06.503|56=OrderAccumulator|98=0|108=30|10=136|8=FIX.4.4|9=87|35=A|34=765|49=OrderGenerator|52=20250620-01:04:11.535|56=OrderAccumulator|98=0|108=30|10=138|8=FIX.4.4|9=87|35=A|34=766|49=OrderGenerator|52=20250620-01:04:16.575|56=OrderAccumulator|98=0|108=30|10=148|8=FIX.4.4|9=87|35=A|34=767|49=OrderGenerator|52=20250620-01:04:21.607|56=OrderAccumulator|98=0|108=30|10=141|8=FIX.4.4|9=87|35=A|34=768|49=OrderGenerator|52=20250620-01:04:26.643|56=OrderAccumulator|98=0|108=30|10=147|8=FIX.4.4|9=87|35=A|34=769|49=OrderGenerator|52=20250620-01:04:31.676|56=OrderAccumulator|98=0|108=30|10=150|8=FIX.4.4|9=87|35=A|34=770|49=OrderGenerator|52=20250620-01:04:36.705|56=OrderAccumulator|98=0|108=30|10=140|8=FIX.4.4|9=87|35=A|34=771|49=OrderGenerator|52=20250620-01:04:41.737|56=OrderAccumulator|98=0|108=30|10=142|8=FIX.4.4|9=87|35=A|34=772|49=OrderGenerator|52=20250620-01:04:46.772|56=OrderAccumulator|98=0|108=30|10=147|8=FIX.4.4|9=87|35=A|34=773|49=OrderGenerator|52=20250620-01:04:51.804|56=OrderAccumulator|98=0|108=30|10=140|8=FIX.4.4|9=87|35=A|34=774|49=OrderGenerator|52=20250620-01:04:56.851|56=OrderAccumulator|98=0|108=30|10=148|8=FIX.4.4|9=87|35=A|34=775|49=OrderGenerator|52=20250620-01:05:01.890|56=OrderAccumulator|98=0|108=30|10=143|8=FIX.4.4|9=87|35=A|34=776|49=OrderGenerator|52=20250620-01:05:06.922|56=OrderAccumulator|98=0|108=30|10=145|8=FIX.4.4|9=87|35=A|34=777|49=OrderGenerator|52=20250620-01:05:11.945|56=OrderAccumulator|98=0|108=30|10=147|8=FIX.4.4|9=87|35=A|34=778|49=OrderGenerator|52=20250620-01:05:16.979|56=OrderAccumulator|98=0|108=30|10=160|8=FIX.4.4|9=87|35=A|34=779|49=OrderGenerator|52=20250620-01:05:22.014|56=OrderAccumulator|98=0|108=30|10=138|8=FIX.4.4|9=87|35=A|34=780|49=OrderGenerator|52=20250620-01:05:27.039|56=OrderAccumulator|98=0|108=30|10=142|8=FIX.4.4|9=87|35=A|34=781|49=OrderGenerator|52=20250620-01:05:32.073|56=OrderAccumulator|98=0|108=30|10=137|8=FIX.4.4|9=87|35=A|34=782|49=OrderGenerator|52=20250620-01:05:37.099|56=OrderAccumulator|98=0|108=30|10=151|8=FIX.4.4|9=87|35=A|34=783|49=OrderGenerator|52=20250620-01:05:42.143|56=OrderAccumulator|98=0|108=30|10=138|8=FIX.4.4|9=87|35=A|34=784|49=OrderGenerator|52=20250620-01:05:47.177|56=OrderAccumulator|98=0|108=30|10=151|8=FIX.4.4|9=87|35=A|34=785|49=OrderGenerator|52=20250620-01:05:52.221|56=OrderAccumulator|98=0|108=30|10=138|8=FIX.4.4|9=87|35=A|34=786|49=OrderGenerator|52=20250620-01:05:57.258|56=OrderAccumulator|98=0|108=30|10=154|8=FIX.4.4|9=87|35=A|34=787|49=OrderGenerator|52=20250620-01:06:02.295|56=OrderAccumulator|98=0|108=30|10=147|8=FIX.4.4|9=87|35=A|34=788|49=OrderGenerator|52=20250620-01:06:07.331|56=OrderAccumulator|98=0|108=30|10=144|8=FIX.4.4|9=87|35=A|34=789|49=OrderGenerator|52=20250620-01:06:12.358|56=OrderAccumulator|98=0|108=30|10=150|8=FIX.4.4|9=87|35=A|34=790|49=OrderGenerator|52=20250620-01:06:17.391|56=OrderAccumulator|98=0|108=30|10=144|8=FIX.4.4|9=87|35=A|34=791|49=OrderGenerator|52=20250620-01:06:22.424|56=OrderAccumulator|98=0|108=30|10=138|8=FIX.4.4|9=87|35=A|34=792|49=OrderGenerator|52=20250620-01:06:27.458|56=OrderAccumulator|98=0|108=30|10=151|8=FIX.4.4|9=87|35=A|34=793|49=OrderGenerator|52=20250620-01:06:32.485|56=OrderAccumulator|98=0|108=30|10=148|8=FIX.4.4|9=87|35=A|34=794|49=OrderGenerator|52=20250620-01:06:37.516|56=OrderAccumulator|98=0|108=30|10=149|8=FIX.4.4|9=87|35=A|34=795|49=OrderGenerator|52=20250620-01:06:42.551|56=OrderAccumulator|98=0|108=30|10=145|8=FIX.4.4|9=87|35=A|34=796|49=OrderGenerator|52=20250620-01:06:47.586|56=OrderAccumulator|98=0|108=30|10=159|8=FIX.4.4|9=87|35=A|34=797|49=OrderGenerator|52=20250620-01:06:52.626|56=OrderAccumulator|98=0|108=30|10=151|8=FIX.4.4|9=87|35=A|34=798|49=OrderGenerator|52=20250620-01:06:57.658|56=OrderAccumulator|98=0|108=30|10=162|8=FIX.4.4|9=87|35=A|34=799|49=OrderGenerator|52=20250620-01:07:02.690|56=OrderAccumulator|98=0|108=30|10=150|8=FIX.4.4|9=87|35=A|34=800|49=OrderGenerator|52=20250620-01:07:07.722|56=OrderAccumulator|98=0|108=30|10=134|8=FIX.4.4|9=87|35=A|34=801|49=OrderGenerator|52=20250620-01:07:12.760|56=OrderAccumulator|98=0|108=30|10=133|8=FIX.4.4|9=87|35=A|34=802|49=OrderGenerator|52=20250620-01:07:17.793|56=OrderAccumulator|98=0|108=30|10=145|8=FIX.4.4|9=87|35=A|34=803|49=OrderGenerator|52=20250620-01:07:22.828|56=OrderAccumulator|98=0|108=30|10=141|8=FIX.4.4|9=87|35=A|34=804|49=OrderGenerator|52=20250620-01:07:27.857|56=OrderAccumulator|98=0|108=30|10=149|8=FIX.4.4|9=87|35=A|34=805|49=OrderGenerator|52=20250620-01:07:32.888|56=OrderAccumulator|98=0|108=30|10=150|8=FIX.4.4|9=87|35=A|34=806|49=OrderGenerator|52=20250620-01:07:37.921|56=OrderAccumulator|98=0|108=30|10=144|8=FIX.4.4|9=87|35=A|34=807|49=OrderGenerator|52=20250620-01:07:42.953|56=OrderAccumulator|98=0|108=30|10=146|8=FIX.4.4|9=87|35=A|34=808|49=OrderGenerator|52=20250620-01:07:47.994|56=OrderAccumulator|98=0|108=30|10=157|8=FIX.4.4|9=87|35=A|34=809|49=OrderGenerator|52=20250620-01:07:53.025|56=OrderAccumulator|98=0|108=30|10=140|8=FIX.4.4|9=87|35=A|34=810|49=OrderGenerator|52=20250620-01:07:58.055|56=OrderAccumulator|98=0|108=30|10=140|8=FIX.4.4|9=87|35=A|34=811|49=OrderGenerator|52=20250620-01:08:03.092|56=OrderAccumulator|98=0|108=30|10=133|8=FIX.4.4|9=87|35=A|34=812|49=OrderGenerator|52=20250620-01:08:08.117|56=OrderAccumulator|98=0|108=30|10=137|8=FIX.4.4|9=87|35=A|34=813|49=OrderGenerator|52=20250620-01:08:13.152|56=OrderAccumulator|98=0|108=30|10=133|8=FIX.4.4|9=87|35=A|34=814|49=OrderGenerator|52=20250620-01:08:18.189|56=OrderAccumulator|98=0|108=30|10=149|8=FIX.4.4|9=87|35=A|34=815|49=OrderGenerator|52=20250620-01:08:23.229|56=OrderAccumulator|98=0|108=30|10=141|8=FIX.4.4|9=87|35=A|34=816|49=OrderGenerator|52=20250620-01:08:28.250|56=OrderAccumulator|98=0|108=30|10=141|8=FIX.4.4|9=87|35=A|34=817|49=OrderGenerator|52=20250620-01:08:33.283|56=OrderAccumulator|98=0|108=30|10=144|8=FIX.4.4|9=87|35=A|34=818|49=OrderGenerator|52=20250620-01:08:38.310|56=OrderAccumulator|98=0|108=30|10=141|8=FIX.4.4|9=87|35=A|34=819|49=OrderGenerator|52=20250620-01:08:43.354|56=OrderAccumulator|98=0|108=30|10=146|8=FIX.4.4|9=87|35=A|34=820|49=OrderGenerator|52=20250620-01:08:48.388|56=OrderAccumulator|98=0|108=30|10=150|8=FIX.4.4|9=87|35=A|34=821|49=OrderGenerator|52=20250620-01:08:53.423|56=OrderAccumulator|98=0|108=30|10=137|8=FIX.4.4|9=87|35=A|34=822|49=OrderGenerator|52=20250620-01:08:58.460|56=OrderAccumulator|98=0|108=30|10=144|8=FIX.4.4|9=87|35=A|34=823|49=OrderGenerator|52=20250620-01:09:03.497|56=OrderAccumulator|98=0|108=30|10=146|8=FIX.4.4|9=87|35=A|34=824|49=OrderGenerator|52=20250620-01:09:08.538|56=OrderAccumulator|98=0|108=30|10=148|8=FIX.4.4|9=87|35=A|34=825|49=OrderGenerator|52=20250620-01:09:13.567|56=OrderAccumulator|98=0|108=30|10=147|8=FIX.4.4|9=87|35=A|34=826|49=OrderGenerator|52=20250620-01:09:18.602|56=OrderAccumulator|98=0|108=30|10=143|8=FIX.4.4|9=87|35=A|34=827|49=OrderGenerator|52=20250620-01:09:23.644|56=OrderAccumulator|98=0|108=30|10=146|8=FIX.4.4|9=87|35=A|34=828|49=OrderGenerator|52=20250620-01:09:28.673|56=OrderAccumulator|98=0|108=30|10=154|8=FIX.4.4|9=87|35=A|34=829|49=OrderGenerator|52=20250620-01:09:33.710|56=OrderAccumulator|98=0|108=30|10=143|8=FIX.4.4|9=87|35=A|34=830|49=OrderGenerator|52=20250620-01:09:38.749|56=OrderAccumulator|98=0|108=30|10=152|8=FIX.4.4|9=87|35=A|34=831|49=OrderGenerator|52=20250620-01:09:43.783|56=OrderAccumulator|98=0|108=30|10=147|8=FIX.4.4|9=87|35=A|34=832|49=OrderGenerator|52=20250620-01:09:48.815|56=OrderAccumulator|98=0|108=30|10=149|8=FIX.4.4|9=87|35=A|34=833|49=OrderGenerator|52=20250620-01:09:53.843|56=OrderAccumulator|98=0|108=30|10=147|8=FIX.4.4|9=87|35=A|34=834|49=OrderGenerator|52=20250620-01:09:58.875|56=OrderAccumulator|98=0|108=30|10=158|8=FIX.4.4|9=87|35=A|34=835|49=OrderGenerator|52=20250620-01:10:03.909|56=OrderAccumulator|98=0|108=30|10=139|8=FIX.4.4|9=87|35=A|34=836|49=OrderGenerator|52=20250620-01:10:08.938|56=OrderAccumulator|98=0|108=30|10=147|8=FIX.4.4|9=87|35=A|34=837|49=OrderGenerator|52=20250620-01:10:13.983|56=OrderAccumulator|98=0|108=30|10=144|8=FIX.4.4|9=87|35=A|34=838|49=OrderGenerator|52=20250620-01:10:19.011|56=OrderAccumulator|98=0|108=30|10=133|8=FIX.4.4|9=87|35=A|34=839|49=OrderGenerator|52=20250620-01:10:24.054|56=OrderAccumulator|98=0|108=30|10=137|8=FIX.4.4|9=87|35=A|34=840|49=OrderGenerator|52=20250620-01:10:29.084|56=OrderAccumulator|98=0|108=30|10=137|8=FIX.4.4|9=87|35=A|34=841|49=OrderGenerator|52=20250620-01:10:34.118|56=OrderAccumulator|98=0|108=30|10=132|8=FIX.4.4|9=87|35=A|34=842|49=OrderGenerator|52=20250620-01:10:39.151|56=OrderAccumulator|98=0|108=30|10=135|8=FIX.4.4|9=87|35=A|34=843|49=OrderGenerator|52=20250620-01:10:44.189|56=OrderAccumulator|98=0|108=30|10=143|8=FIX.4.4|9=87|35=A|34=844|49=OrderGenerator|52=20250620-01:10:49.227|56=OrderAccumulator|98=0|108=30|10=142|8=FIX.4.4|9=87|35=A|34=845|49=OrderGenerator|52=20250620-01:10:54.264|56=OrderAccumulator|98=0|108=30|10=140|8=FIX.4.4|9=87|35=A|34=846|49=OrderGenerator|52=20250620-01:10:59.295|56=OrderAccumulator|98=0|108=30|10=150|8=FIX.4.4|9=87|35=A|34=847|49=OrderGenerator|52=20250620-01:11:04.316|56=OrderAccumulator|98=0|108=30|10=136|8=FIX.4.4|9=87|35=A|34=848|49=OrderGenerator|52=20250620-01:11:09.354|56=OrderAccumulator|98=0|108=30|10=144|8=FIX.4.4|9=87|35=A|34=849|49=OrderGenerator|52=20250620-01:11:14.374|56=OrderAccumulator|98=0|108=30|10=143|8=FIX.4.4|9=87|35=A|34=850|49=OrderGenerator|52=20250620-01:11:19.409|56=OrderAccumulator|98=0|108=30|10=139|8=FIX.4.4|9=87|35=A|34=851|49=OrderGenerator|52=20250620-01:11:24.454|56=OrderAccumulator|98=0|108=30|10=136|8=FIX.4.4|9=87|35=A|34=852|49=OrderGenerator|52=20250620-01:11:29.497|56=OrderAccumulator|98=0|108=30|10=149|8=FIX.4.4|9=87|35=A|34=853|49=OrderGenerator|52=20250620-01:11:34.525|56=OrderAccumulator|98=0|108=30|10=138|8=FIX.4.4|9=87|35=A|34=854|49=OrderGenerator|52=20250620-01:11:39.541|56=OrderAccumulator|98=0|108=30|10=142|8=FIX.4.4|9=87|35=A|34=855|49=OrderGenerator|52=20250620-01:11:44.587|56=OrderAccumulator|98=0|108=30|10=149|8=FIX.4.4|9=87|35=A|34=856|49=OrderGenerator|52=20250620-01:11:49.631|56=OrderAccumulator|98=0|108=30|10=145|8=FIX.4.4|9=87|35=A|34=857|49=OrderGenerator|52=20250620-01:11:54.652|56=OrderAccumulator|98=0|108=30|10=145|8=FIX.4.4|9=87|35=A|34=858|49=OrderGenerator|52=20250620-01:11:59.689|56=OrderAccumulator|98=0|108=30|10=161|8=FIX.4.4|9=87|35=A|34=859|49=OrderGenerator|52=20250620-01:12:04.717|56=OrderAccumulator|98=0|108=30|10=145|8=FIX.4.4|9=87|35=A|34=860|49=OrderGenerator|52=20250620-01:12:09.758|56=OrderAccumulator|98=0|108=30|10=147|8=FIX.4.4|9=87|35=A|34=861|49=OrderGenerator|52=20250620-01:12:14.795|56=OrderAccumulator|98=0|108=30|10=145|8=FIX.4.4|9=87|35=A|34=862|49=OrderGenerator|52=20250620-01:12:19.840|56=OrderAccumulator|98=0|108=30|10=142|8=FIX.4.4|9=87|35=A|34=863|49=OrderGenerator|52=20250620-01:12:24.874|56=OrderAccumulator|98=0|108=30|10=146|8=FIX.4.4|9=87|35=A|34=864|49=OrderGenerator|52=20250620-01:12:29.899|56=OrderAccumulator|98=0|108=30|10=159|8=FIX.4.4|9=87|35=A|34=865|49=OrderGenerator|52=20250620-01:16:40.917|56=OrderAccumulator|98=0|108=30|10=148|8=FIX.4.4|9=87|35=A|34=866|49=OrderGenerator|52=20250620-01:16:45.960|56=OrderAccumulator|98=0|108=30|10=152|8=FIX.4.4|9=87|35=A|34=867|49=OrderGenerator|52=20250620-01:16:51.000|56=OrderAccumulator|98=0|108=30|10=135|8=FIX.4.4|9=87|35=A|34=868|49=OrderGenerator|52=20250620-01:16:56.030|56=OrderAccumulator|98=0|108=30|10=144|8=FIX.4.4|9=87|35=A|34=869|49=OrderGenerator|52=20250620-01:17:01.079|56=OrderAccumulator|98=0|108=30|10=149|8=FIX.4.4|9=87|35=A|34=870|49=OrderGenerator|52=20250620-01:17:06.134|56=OrderAccumulator|98=0|108=30|10=138|8=FIX.4.4|9=87|35=A|34=871|49=OrderGenerator|52=20250620-01:17:11.187|56=OrderAccumulator|98=0|108=30|10=143|8=FIX.4.4|9=87|35=A|34=872|49=OrderGenerator|52=20250620-01:17:16.240|56=OrderAccumulator|98=0|108=30|10=139|8=FIX.4.4|9=171|35=D|34=873|49=OrderGenerator|52=20250620-01:17:18.264|56=OrderAccumulator|11=c02f0f49-bc30-477a-aa30-082ce87ef330|38=1|40=2|44=100|54=1|55=PETR4|60=20250620-01:17:18.261|10=079|8=FIX.4.4|9=87|35=A|34=874|49=OrderGenerator|52=20250620-01:17:21.296|56=OrderAccumulator|98=0|108=30|10=148|8=FIX.4.4|9=171|35=D|34=875|49=OrderGenerator|52=20250620-01:17:24.287|56=OrderAccumulator|11=ae81f6c4-b2d5-4f33-8278-300dd0d97d26|38=1|40=2|44=100|54=1|55=PETR4|60=20250620-01:17:24.287|10=059|8=FIX.4.4|9=171|35=D|34=876|49=OrderGenerator|52=20250620-01:17:25.710|56=OrderAccumulator|11=ead9dad1-d825-46a4-a11c-f8bb0770c531|38=1|40=2|44=100|54=1|55=PETR4|60=20250620-01:17:25.710|10=170|8=FIX.4.4|9=171|35=D|34=877|49=OrderGenerator|52=20250620-01:17:25.903|56=OrderAccumulator|11=3f3a5a17-a8c1-4455-be42-69cdb9830415|38=1|40=2|44=100|54=1|55=PETR4|60=20250620-01:17:25.903|10=255|8=FIX.4.4|9=171|35=D|34=878|49=OrderGenerator|52=20250620-01:17:26.078|56=OrderAccumulator|11=04d7e0c3-6ffc-4a8f-a64a-78853e742b41|38=1|40=2|44=100|54=1|55=PETR4|60=20250620-01:17:26.078|10=113|8=FIX.4.4|9=87|35=A|34=879|49=OrderGenerator|52=20250620-01:17:26.358|56=OrderAccumulator|98=0|108=30|10=157|8=FIX.4.4|9=171|35=D|34=880|49=OrderGenerator|52=20250620-01:17:26.635|56=OrderAccumulator|11=8fbcf11c-d8ce-459a-80a4-c96005050e1b|38=1|40=2|44=100|54=1|55=PETR4|60=20250620-01:17:26.635|10=136|8=FIX.4.4|9=171|35=D|34=881|49=OrderGenerator|52=20250620-01:17:26.811|56=OrderAccumulator|11=a95a186e-c119-40a2-a941-2deb8c7fd4c8|38=1|40=2|44=100|54=1|55=PETR4|60=20250620-01:17:26.811|10=139|8=FIX.4.4|9=87|35=A|34=882|49=OrderGenerator|52=20250620-01:17:31.409|56=OrderAccumulator|98=0|108=30|10=144|8=FIX.4.4|9=169|35=D|34=883|49=OrderGenerator|52=20250620-01:17:34.985|56=OrderAccumulator|11=4f6ac542-bcd5-496e-a244-34975d79fc81|38=0|40=2|44=0|54=1|55=PETR4|60=20250620-01:17:34.985|10=250|8=FIX.4.4|9=169|35=D|34=884|49=OrderGenerator|52=20250620-01:17:35.877|56=OrderAccumulator|11=4a96300d-cc1a-4b0e-bbd4-65c29cd6942e|38=0|40=2|44=0|54=1|55=PETR4|60=20250620-01:17:35.877|10=111|8=FIX.4.4|9=169|35=D|34=885|49=OrderGenerator|52=20250620-01:17:36.085|56=OrderAccumulator|11=f328dd27-32f3-464e-b772-e514188b6903|38=0|40=2|44=0|54=1|55=PETR4|60=20250620-01:17:36.084|10=086|8=FIX.4.4|9=87|35=A|34=886|49=OrderGenerator|52=20250620-01:17:36.477|56=OrderAccumulator|98=0|108=30|10=158|8=FIX.4.4|9=169|35=D|34=887|49=OrderGenerator|52=20250620-01:17:37.131|56=OrderAccumulator|11=c4614018-fca3-4fa6-9f1d-5c4308df40f1|38=0|40=2|44=0|54=1|55=PETR4|60=20250620-01:17:37.131|10=249|8=FIX.4.4|9=169|35=D|34=888|49=OrderGenerator|52=20250620-01:17:37.300|56=OrderAccumulator|11=4fb98969-abf8-42f9-ae71-e44822773e3d|38=0|40=2|44=0|54=1|55=PETR4|60=20250620-01:17:37.300|10=236|8=FIX.4.4|9=169|35=D|34=889|49=OrderGenerator|52=20250620-01:17:37.480|56=OrderAccumulator|11=b80cdd71-862b-4bcf-a4be-7c598c69d2b4|38=0|40=2|44=0|54=1|55=PETR4|60=20250620-01:17:37.480|10=168|8=FIX.4.4|9=87|35=A|34=890|49=OrderGenerator|52=20250620-01:17:41.526|56=OrderAccumulator|98=0|108=30|10=144|8=FIX.4.4|9=87|35=A|34=891|49=OrderGenerator|52=20250620-01:17:46.579|56=OrderAccumulator|98=0|108=30|10=158|8=FIX.4.4|9=87|35=A|34=892|49=OrderGenerator|52=20250620-01:17:51.636|56=OrderAccumulator|98=0|108=30|10=149|8=FIX.4.4|9=87|35=A|34=893|49=OrderGenerator|52=20250620-01:17:56.685|56=OrderAccumulator|98=0|108=30|10=159|8=FIX.4.4|9=87|35=A|34=894|49=OrderGenerator|52=20250620-01:18:01.733|56=OrderAccumulator|98=0|108=30|10=145|8=FIX.4.4|9=87|35=A|34=895|49=OrderGenerator|52=20250620-01:18:06.776|56=OrderAccumulator|98=0|108=30|10=158|8=FIX.4.4|9=87|35=A|34=896|49=OrderGenerator|52=20250620-01:18:11.815|56=OrderAccumulator|98=0|108=30|10=149|8=FIX.4.4|9=87|35=A|34=897|49=OrderGenerator|52=20250620-01:18:16.850|56=OrderAccumulator|98=0|108=30|10=154|8=FIX.4.4|9=87|35=A|34=898|49=OrderGenerator|52=20250620-01:18:21.886|56=OrderAccumulator|98=0|108=30|10=160|8=FIX.4.4|9=169|35=D|34=899|49=OrderGenerator|52=20250620-01:18:22.729|56=OrderAccumulator|11=1b568ab3-fefe-48a6-b228-71869b318fb7|38=0|40=2|44=0|54=1|55=PETR4|60=20250620-01:18:22.729|10=034|8=FIX.4.4|9=169|35=D|34=900|49=OrderGenerator|52=20250620-01:18:24.892|56=OrderAccumulator|11=0f74b6f7-be63-4b0a-b9fe-e85275b95d01|38=0|40=2|44=0|54=1|55=PETR4|60=20250620-01:18:24.892|10=064|8=FIX.4.4|9=87|35=A|34=901|49=OrderGenerator|52=20250620-01:18:26.926|56=OrderAccumulator|98=0|108=30|10=145|8=FIX.4.4|9=173|35=D|34=902|49=OrderGenerator|52=20250620-01:18:31.923|56=OrderAccumulator|11=935ba5dc-bb78-409d-81c0-2b0c4bc364e0|38=100|40=2|44=500|54=2|55=PETR4|60=20250620-01:18:31.923|10=224|8=FIX.4.4|9=87|35=A|34=903|49=OrderGenerator|52=20250620-01:18:31.961|56=OrderAccumulator|98=0|108=30|10=142|8=FIX.4.4|9=87|35=A|34=904|49=OrderGenerator|52=20250620-01:18:36.979|56=OrderAccumulator|98=0|108=30|10=157|8=FIX.4.4|9=173|35=D|34=905|49=OrderGenerator|52=20250620-01:18:40.874|56=OrderAccumulator|11=13c25ba8-933c-4296-9f9f-40a12280c966|38=100|40=2|44=502|54=2|55=PETR4|60=20250620-01:18:40.874|10=021|8=FIX.4.4|9=173|35=D|34=906|49