20250619-14:20:01.836 : 8=FIX.4.4|9=85|35=A|34=1|49=OrderGenerator|52=20250619-14:20:01.826|56=OrderAccumulator|98=0|108=30|10=035|
20250619-14:20:05.324 : 8=FIX.4.4|9=85|35=A|34=2|49=OrderGenerator|52=20250619-14:20:05.323|56=OrderAccumulator|98=0|108=30|10=032|
20250619-14:20:10.351 : 8=FIX.4.4|9=85|35=A|34=3|49=OrderGenerator|52=20250619-14:20:10.351|56=OrderAccumulator|98=0|108=30|10=030|
20250619-14:20:15.393 : 8=FIX.4.4|9=85|35=A|34=4|49=OrderGenerator|52=20250619-14:20:15.393|56=OrderAccumulator|98=0|108=30|10=042|
20250619-14:20:20.428 : 8=FIX.4.4|9=85|35=A|34=5|49=OrderGenerator|52=20250619-14:20:20.427|56=OrderAccumulator|98=0|108=30|10=037|
20250619-14:20:25.457 : 8=FIX.4.4|9=85|35=A|34=6|49=OrderGenerator|52=20250619-14:20:25.451|56=OrderAccumulator|98=0|108=30|10=040|
20250619-14:20:30.490 : 8=FIX.4.4|9=85|35=A|34=7|49=OrderGenerator|52=20250619-14:20:30.490|56=OrderAccumulator|98=0|108=30|10=040|
20250619-14:20:35.505 : 8=FIX.4.4|9=85|35=A|34=8|49=OrderGenerator|52=20250619-14:20:35.504|56=OrderAccumulator|98=0|108=30|10=042|
20250619-14:20:40.545 : 8=FIX.4.4|9=85|35=A|34=9|49=OrderGenerator|52=20250619-14:20:40.545|56=OrderAccumulator|98=0|108=30|10=044|
20250619-14:20:45.571 : 8=FIX.4.4|9=86|35=A|34=10|49=OrderGenerator|52=20250619-14:20:45.570|56=OrderAccumulator|98=0|108=30|10=088|
20250619-14:20:50.594 : 8=FIX.4.4|9=86|35=A|34=11|49=OrderGenerator|52=20250619-14:20:50.593|56=OrderAccumulator|98=0|108=30|10=090|
20250619-14:20:55.632 : 8=FIX.4.4|9=86|35=A|34=12|49=OrderGenerator|52=20250619-14:20:55.632|56=OrderAccumulator|98=0|108=30|10=090|
20250619-14:21:00.665 : 8=FIX.4.4|9=86|35=A|34=13|49=OrderGenerator|52=20250619-14:21:00.664|56=OrderAccumulator|98=0|108=30|10=087|
20250619-14:21:05.694 : 8=FIX.4.4|9=86|35=A|34=14|49=OrderGenerator|52=20250619-14:21:05.694|56=OrderAccumulator|98=0|108=30|10=096|
20250619-14:21:10.732 : 8=FIX.4.4|9=86|35=A|34=15|49=OrderGenerator|52=20250619-14:21:10.732|56=OrderAccumulator|98=0|108=30|10=086|
20250619-14:21:15.760 : 8=FIX.4.4|9=86|35=A|34=16|49=OrderGenerator|52=20250619-14:21:15.760|56=OrderAccumulator|98=0|108=30|10=093|
20250619-14:21:20.778 : 8=FIX.4.4|9=86|35=A|34=17|49=OrderGenerator|52=20250619-14:21:20.778|56=OrderAccumulator|98=0|108=30|10=099|
20250619-14:21:25.810 : 8=FIX.4.4|9=86|35=A|34=18|49=OrderGenerator|52=20250619-14:21:25.810|56=OrderAccumulator|98=0|108=30|10=092|
20250619-14:21:30.855 : 8=FIX.4.4|9=86|35=A|34=19|49=OrderGenerator|52=20250619-14:21:30.854|56=OrderAccumulator|98=0|108=30|10=097|
20250619-14:21:35.906 : 8=FIX.4.4|9=86|35=A|34=20|49=OrderGenerator|52=20250619-14:21:35.906|56=OrderAccumulator|98=0|108=30|10=092|
20250619-14:21:40.936 : 8=FIX.4.4|9=86|35=A|34=21|49=OrderGenerator|52=20250619-14:21:40.936|56=OrderAccumulator|98=0|108=30|10=092|
20250619-14:21:45.961 : 8=FIX.4.4|9=86|35=A|34=22|49=OrderGenerator|52=20250619-14:21:45.960|56=OrderAccumulator|98=0|108=30|10=095|
20250619-14:21:51.014 : 8=FIX.4.4|9=86|35=A|34=23|49=OrderGenerator|52=20250619-14:21:51.014|56=OrderAccumulator|98=0|108=30|10=083|
20250619-14:21:56.049 : 8=FIX.4.4|9=86|35=A|34=24|49=OrderGenerator|52=20250619-14:21:56.049|56=OrderAccumulator|98=0|108=30|10=097|
20250619-14:22:01.076 : 8=FIX.4.4|9=86|35=A|34=25|49=OrderGenerator|52=20250619-14:22:01.075|56=OrderAccumulator|98=0|108=30|10=088|
20250619-14:22:06.099 : 8=FIX.4.4|9=86|35=A|34=26|49=OrderGenerator|52=20250619-14:22:06.099|56=OrderAccumulator|98=0|108=30|10=100|
20250619-14:22:11.119 : 8=FIX.4.4|9=86|35=A|34=27|49=OrderGenerator|52=20250619-14:22:11.119|56=OrderAccumulator|98=0|108=30|10=090|
20250619-14:22:16.168 : 8=FIX.4.4|9=86|35=A|34=28|49=OrderGenerator|52=20250619-14:22:16.168|56=OrderAccumulator|98=0|108=30|10=100|
20250619-14:22:21.213 : 8=FIX.4.4|9=86|35=A|34=29|49=OrderGenerator|52=20250619-14:22:21.212|56=OrderAccumulator|98=0|108=30|10=087|
20250619-14:22:26.253 : 8=FIX.4.4|9=86|35=A|34=30|49=OrderGenerator|52=20250619-14:22:26.253|56=OrderAccumulator|98=0|108=30|10=089|
20250619-14:22:31.273 : 8=FIX.4.4|9=86|35=A|34=31|49=OrderGenerator|52=20250619-14:22:31.273|56=OrderAccumulator|98=0|108=30|10=088|
20250619-14:22:36.305 : 8=FIX.4.4|9=86|35=A|34=32|49=OrderGenerator|52=20250619-14:22:36.305|56=OrderAccumulator|98=0|108=30|10=090|
20250619-14:22:41.325 : 8=FIX.4.4|9=86|35=A|34=33|49=OrderGenerator|52=20250619-14:22:41.325|56=OrderAccumulator|98=0|108=30|10=089|
20250619-14:22:46.356 : 8=FIX.4.4|9=86|35=A|34=34|49=OrderGenerator|52=20250619-14:22:46.356|56=OrderAccumulator|98=0|108=30|10=099|
20250619-14:22:51.402 : 8=FIX.4.4|9=86|35=A|34=35|49=OrderGenerator|52=20250619-14:22:51.402|56=OrderAccumulator|98=0|108=30|10=088|
20250619-14:22:56.436 : 8=FIX.4.4|9=86|35=A|34=36|49=OrderGenerator|52=20250619-14:22:56.436|56=OrderAccumulator|98=0|108=30|10=101|
20250619-14:23:01.488 : 8=FIX.4.4|9=86|35=A|34=37|49=OrderGenerator|52=20250619-14:23:01.487|56=OrderAccumulator|98=0|108=30|10=099|
20250619-14:23:06.522 : 8=FIX.4.4|9=86|35=A|34=38|49=OrderGenerator|52=20250619-14:23:06.521|56=OrderAccumulator|98=0|108=30|10=094|
20250619-14:23:11.560 : 8=FIX.4.4|9=86|35=A|34=39|49=OrderGenerator|52=20250619-14:23:11.560|56=OrderAccumulator|98=0|108=30|10=094|
20250619-14:23:16.593 : 8=FIX.4.4|9=86|35=A|34=40|49=OrderGenerator|52=20250619-14:23:16.593|56=OrderAccumulator|98=0|108=30|10=097|
20250619-14:23:21.628 : 8=FIX.4.4|9=86|35=A|34=41|49=OrderGenerator|52=20250619-14:23:21.628|56=OrderAccumulator|98=0|108=30|10=093|
20250619-14:23:26.657 : 8=FIX.4.4|9=86|35=A|34=42|49=OrderGenerator|52=20250619-14:23:26.656|56=OrderAccumulator|98=0|108=30|10=100|
20250619-14:23:31.689 : 8=FIX.4.4|9=86|35=A|34=43|49=OrderGenerator|52=20250619-14:23:31.684|56=OrderAccumulator|98=0|108=30|10=098|
20250619-14:23:36.726 : 8=FIX.4.4|9=86|35=A|34=44|49=OrderGenerator|52=20250619-14:23:36.726|56=OrderAccumulator|98=0|108=30|10=101|
20250619-14:23:41.756 : 8=FIX.4.4|9=86|35=A|34=45|49=OrderGenerator|52=20250619-14:23:41.756|56=OrderAccumulator|98=0|108=30|10=101|
20250619-14:23:46.809 : 8=FIX.4.4|9=86|35=A|34=46|49=OrderGenerator|52=20250619-14:23:46.809|56=OrderAccumulator|98=0|108=30|10=106|
20250619-14:23:51.847 : 8=FIX.4.4|9=86|35=A|34=47|49=OrderGenerator|52=20250619-14:23:51.847|56=OrderAccumulator|98=0|108=30|10=105|
20250619-14:23:56.883 : 8=FIX.4.4|9=86|35=A|34=48|49=OrderGenerator|52=20250619-14:23:56.883|56=OrderAccumulator|98=0|108=30|10=111|
20250619-14:24:01.910 : 8=FIX.4.4|9=86|35=A|34=49|49=OrderGenerator|52=20250619-14:24:01.910|56=OrderAccumulator|98=0|108=30|10=094|
20250619-14:24:06.940 : 8=FIX.4.4|9=86|35=A|34=50|49=OrderGenerator|52=20250619-14:24:06.940|56=OrderAccumulator|98=0|108=30|10=094|
20250619-14:24:11.970 : 8=FIX.4.4|9=86|35=A|34=51|49=OrderGenerator|52=20250619-14:24:11.970|56=OrderAccumulator|98=0|108=30|10=094|
20250619-14:24:16.996 : 8=FIX.4.4|9=86|35=A|34=52|49=OrderGenerator|52=20250619-14:24:16.996|56=OrderAccumulator|98=0|108=30|10=108|
20250619-14:24:22.032 : 8=FIX.4.4|9=86|35=A|34=53|49=OrderGenerator|52=20250619-14:24:22.032|56=OrderAccumulator|98=0|108=30|10=087|
20250619-14:24:27.079 : 8=FIX.4.4|9=86|35=A|34=54|49=OrderGenerator|52=20250619-14:24:27.078|56=OrderAccumulator|98=0|108=30|10=103|
20250619-14:24:32.112 : 8=FIX.4.4|9=86|35=A|34=55|49=OrderGenerator|52=20250619-14:24:32.112|56=OrderAccumulator|98=0|108=30|10=089|
20250619-14:24:37.151 : 8=FIX.4.4|9=86|35=A|34=56|49=OrderGenerator|52=20250619-14:24:37.151|56=OrderAccumulator|98=0|108=30|10=098|
20250619-14:24:42.199 : 8=FIX.4.4|9=86|35=A|34=57|49=OrderGenerator|52=20250619-14:24:42.199|56=OrderAccumulator|98=0|108=30|10=107|
20250619-14:24:47.222 : 8=FIX.4.4|9=86|35=A|34=58|49=OrderGenerator|52=20250619-14:24:47.221|56=OrderAccumulator|98=0|108=30|10=099|
20250619-14:24:52.248 : 8=FIX.4.4|9=86|35=A|34=59|49=OrderGenerator|52=20250619-14:24:52.247|56=OrderAccumulator|98=0|108=30|10=104|
20250619-14:24:57.283 : 8=FIX.4.4|9=86|35=A|34=60|49=OrderGenerator|52=20250619-14:24:57.283|56=OrderAccumulator|98=0|108=30|10=101|
20250619-14:25:02.335 : 8=FIX.4.4|9=86|35=A|34=61|49=OrderGenerator|52=20250619-14:25:02.334|56=OrderAccumulator|98=0|108=30|10=090|
20250619-14:25:07.365 : 8=FIX.4.4|9=86|35=A|34=62|49=OrderGenerator|52=20250619-14:25:07.365|56=OrderAccumulator|98=0|108=30|10=100|
20250619-14:25:12.391 : 8=FIX.4.4|9=86|35=A|34=63|49=OrderGenerator|52=20250619-14:25:12.391|56=OrderAccumulator|98=0|108=30|10=096|
20250619-14:25:17.429 : 8=FIX.4.4|9=86|35=A|34=64|49=OrderGenerator|52=20250619-14:25:17.429|56=OrderAccumulator|98=0|108=30|10=104|
20250619-14:25:22.459 : 8=FIX.4.4|9=86|35=A|34=65|49=OrderGenerator|52=20250619-14:25:22.459|56=OrderAccumulator|98=0|108=30|10=104|
20250619-14:25:27.486 : 8=FIX.4.4|9=86|35=A|34=66|49=OrderGenerator|52=20250619-14:25:27.486|56=OrderAccumulator|98=0|108=30|10=110|
20250619-14:25:32.515 : 8=FIX.4.4|9=86|35=A|34=67|49=OrderGenerator|52=20250619-14:25:32.515|56=OrderAccumulator|98=0|108=30|10=100|
20250619-14:25:37.539 : 8=FIX.4.4|9=86|35=A|34=68|49=OrderGenerator|52=20250619-14:25:37.538|56=OrderAccumulator|98=0|108=30|10=111|
20250619-14:25:42.569 : 8=FIX.4.4|9=86|35=A|34=69|49=OrderGenerator|52=20250619-14:25:42.569|56=OrderAccumulator|98=0|108=30|10=112|
20250619-14:25:47.610 : 8=FIX.4.4|9=86|35=A|34=70|49=OrderGenerator|52=20250619-14:25:47.610|56=OrderAccumulator|98=0|108=30|10=096|
20250619-14:25:52.644 : 8=FIX.4.4|9=86|35=A|34=71|49=OrderGenerator|52=20250619-14:25:52.643|56=OrderAccumulator|98=0|108=30|10=099|
20250619-14:25:57.680 : 8=FIX.4.4|9=86|35=A|34=72|49=OrderGenerator|52=20250619-14:25:57.680|56=OrderAccumulator|98=0|108=30|10=106|
20250619-14:26:02.716 : 8=FIX.4.4|9=86|35=A|34=73|49=OrderGenerator|52=20250619-14:26:02.716|56=OrderAccumulator|98=0|108=30|10=098|
20250619-14:26:07.744 : 8=FIX.4.4|9=86|35=A|34=74|49=OrderGenerator|52=20250619-14:26:07.744|56=OrderAccumulator|98=0|108=30|10=105|
20250619-14:26:12.772 : 8=FIX.4.4|9=86|35=A|34=75|49=OrderGenerator|52=20250619-14:26:12.772|56=OrderAccumulator|98=0|108=30|10=103|
20250619-14:26:17.806 : 8=FIX.4.4|9=86|35=A|34=76|49=OrderGenerator|52=20250619-14:26:17.806|56=OrderAccumulator|98=0|108=30|10=107|
20250619-14:26:22.848 : 8=FIX.4.4|9=86|35=A|34=77|49=OrderGenerator|52=20250619-14:26:22.848|56=OrderAccumulator|98=0|108=30|10=110|
20250619-14:26:27.891 : 8=FIX.4.4|9=86|35=A|34=78|49=OrderGenerator|52=20250619-14:26:27.891|56=OrderAccumulator|98=0|108=30|10=114|
20250619-14:26:32.915 : 8=FIX.4.4|9=86|35=A|34=79|49=OrderGenerator|52=20250619-14:26:32.915|56=OrderAccumulator|98=0|108=30|10=108|
20250619-14:26:37.956 : 8=FIX.4.4|9=86|35=A|34=80|49=OrderGenerator|52=20250619-14:26:37.956|56=OrderAccumulator|98=0|108=30|10=110|
20250619-14:26:42.992 : 8=FIX.4.4|9=86|35=A|34=81|49=OrderGenerator|52=20250619-14:26:42.991|56=OrderAccumulator|98=0|108=30|10=106|
20250619-14:26:48.025 : 8=FIX.4.4|9=86|35=A|34=82|49=OrderGenerator|52=20250619-14:26:48.025|56=OrderAccumulator|98=0|108=30|10=101|
20250619-14:26:53.056 : 8=FIX.4.4|9=86|35=A|34=83|49=OrderGenerator|52=20250619-14:26:53.056|56=OrderAccumulator|98=0|108=30|10=102|
20250619-14:26:58.087 : 8=FIX.4.4|9=86|35=A|34=84|49=OrderGenerator|52=20250619-14:26:58.087|56=OrderAccumulator|98=0|108=30|10=112|
20250619-14:27:03.118 : 8=FIX.4.4|9=86|35=A|34=85|49=OrderGenerator|52=20250619-14:27:03.118|56=OrderAccumulator|98=0|108=30|10=099|
20250619-14:27:08.142 : 8=FIX.4.4|9=86|35=A|34=86|49=OrderGenerator|52=20250619-14:27:08.142|56=OrderAccumulator|98=0|108=30|10=102|
20250619-14:27:13.184 : 8=FIX.4.4|9=86|35=A|34=87|49=OrderGenerator|52=20250619-14:27:13.184|56=OrderAccumulator|98=0|108=30|10=105|
20250619-14:27:18.234 : 8=FIX.4.4|9=86|35=A|34=88|49=OrderGenerator|52=20250619-14:27:18.234|56=OrderAccumulator|98=0|108=30|10=107|
20250619-14:27:23.265 : 8=FIX.4.4|9=86|35=A|34=89|49=OrderGenerator|52=20250619-14:27:23.265|56=OrderAccumulator|98=0|108=30|10=108|
20250619-14:27:28.302 : 8=FIX.4.4|9=86|35=A|34=90|49=OrderGenerator|52=20250619-14:27:28.302|56=OrderAccumulator|98=0|108=30|10=097|
20250619-14:27:33.336 : 8=FIX.4.4|9=86|35=A|34=91|49=OrderGenerator|52=20250619-14:27:33.336|56=OrderAccumulator|98=0|108=30|10=101|
20250619-14:27:38.370 : 8=FIX.4.4|9=86|35=A|34=92|49=OrderGenerator|52=20250619-14:27:38.370|56=OrderAccumulator|98=0|108=30|10=105|
20250619-14:27:43.397 : 8=FIX.4.4|9=86|35=A|34=93|49=OrderGenerator|52=20250619-14:27:43.397|56=OrderAccumulator|98=0|108=30|10=111|
20250619-14:27:48.434 : 8=FIX.4.4|9=86|35=A|34=94|49=OrderGenerator|52=20250619-14:27:48.434|56=OrderAccumulator|98=0|108=30|10=109|
20250619-14:27:53.485 : 8=FIX.4.4|9=86|35=A|34=95|49=OrderGenerator|52=20250619-14:27:53.485|56=OrderAccumulator|98=0|108=30|10=112|
20250619-14:27:58.513 : 8=FIX.4.4|9=86|35=A|34=96|49=OrderGenerator|52=20250619-14:27:58.512|56=OrderAccumulator|98=0|108=30|10=109|
20250619-14:28:03.553 : 8=FIX.4.4|9=86|35=A|34=97|49=OrderGenerator|52=20250619-14:28:03.553|56=OrderAccumulator|98=0|108=30|10=106|
20250619-14:28:08.585 : 8=FIX.4.4|9=86|35=A|34=98|49=OrderGenerator|52=20250619-14:28:08.585|56=OrderAccumulator|98=0|108=30|10=117|
20250619-14:28:13.615 : 8=FIX.4.4|9=86|35=A|34=99|49=OrderGenerator|52=20250619-14:28:13.615|56=OrderAccumulator|98=0|108=30|10=108|
20250619-14:28:18.650 : 8=FIX.4.4|9=87|35=A|34=100|49=OrderGenerator|52=20250619-14:28:18.648|56=OrderAccumulator|98=0|108=30|10=151|
20250619-14:28:23.667 : 8=FIX.4.4|9=87|35=A|34=101|49=OrderGenerator|52=20250619-14:28:23.667|56=OrderAccumulator|98=0|108=30|10=149|
20250619-14:28:28.699 : 8=FIX.4.4|9=87|35=A|34=102|49=OrderGenerator|52=20250619-14:28:28.699|56=OrderAccumulator|98=0|108=30|10=160|
20250619-14:28:33.732 : 8=FIX.4.4|9=87|35=A|34=103|49=OrderGenerator|52=20250619-14:28:33.732|56=OrderAccumulator|98=0|108=30|10=145|
20250619-14:28:38.766 : 8=FIX.4.4|9=87|35=A|34=104|49=OrderGenerator|52=20250619-14:28:38.766|56=OrderAccumulator|98=0|108=30|10=158|
20250619-14:28:43.802 : 8=FIX.4.4|9=87|35=A|34=105|49=OrderGenerator|52=20250619-14:28:43.802|56=OrderAccumulator|98=0|108=30|10=146|
20250619-14:28:48.830 : 8=FIX.4.4|9=87|35=A|34=106|49=OrderGenerator|52=20250619-14:28:48.830|56=OrderAccumulator|98=0|108=30|10=153|
20250619-14:28:53.864 : 8=FIX.4.4|9=87|35=A|34=107|49=OrderGenerator|52=20250619-14:28:53.864|56=OrderAccumulator|98=0|108=30|10=157|
20250619-14:28:58.904 : 8=FIX.4.4|9=87|35=A|34=108|49=OrderGenerator|52=20250619-14:28:58.904|56=OrderAccumulator|98=0|108=30|10=158|
20250619-14:29:03.931 : 8=FIX.4.4|9=87|35=A|34=109|49=OrderGenerator|52=20250619-14:29:03.931|56=OrderAccumulator|98=0|108=30|10=150|
20250619-14:29:08.978 : 8=FIX.4.4|9=87|35=A|34=110|49=OrderGenerator|52=20250619-14:29:08.978|56=OrderAccumulator|98=0|108=30|10=158|
20250619-14:29:14.004 : 8=FIX.4.4|9=87|35=A|34=111|49=OrderGenerator|52=20250619-14:29:14.004|56=OrderAccumulator|98=0|108=30|10=136|
20250619-14:29:19.034 : 8=FIX.4.4|9=87|35=A|34=112|49=OrderGenerator|52=20250619-14:29:19.033|56=OrderAccumulator|98=0|108=30|10=144|
20250619-14:29:24.061 : 8=FIX.4.4|9=87|35=A|34=113|49=OrderGenerator|52=20250619-14:29:24.060|56=OrderAccumulator|98=0|108=30|10=141|
20250619-14:29:29.094 : 8=FIX.4.4|9=87|35=A|34=114|49=OrderGenerator|52=20250619-14:29:29.094|56=OrderAccumulator|98=0|108=30|10=154|
20250619-14:29:34.123 : 8=FIX.4.4|9=87|35=A|34=115|49=OrderGenerator|52=20250619-14:29:34.123|56=OrderAccumulator|98=0|108=30|10=144|
20250619-14:29:39.151 : 8=FIX.4.4|9=87|35=A|34=116|49=OrderGenerator|52=20250619-14:29:39.150|56=OrderAccumulator|98=0|108=30|10=150|
20250619-14:29:44.182 : 8=FIX.4.4|9=87|35=A|34=117|49=OrderGenerator|52=20250619-14:29:44.182|56=OrderAccumulator|98=0|108=30|10=152|
20250619-14:29:49.221 : 8=FIX.4.4|9=87|35=A|34=118|49=OrderGenerator|52=20250619-14:29:49.221|56=OrderAccumulator|98=0|108=30|10=152|
20250619-14:29:54.256 : 8=FIX.4.4|9=87|35=A|34=119|49=OrderGenerator|52=20250619-14:29:54.256|56=OrderAccumulator|98=0|108=30|10=157|
20250619-14:29:59.298 : 8=FIX.4.4|9=87|35=A|34=120|49=OrderGenerator|52=20250619-14:29:59.298|56=OrderAccumulator|98=0|108=30|10=160|
20250619-14:30:04.334 : 8=FIX.4.4|9=87|35=A|34=121|49=OrderGenerator|52=20250619-14:30:04.334|56=OrderAccumulator|98=0|108=30|10=134|
20250619-14:30:09.371 : 8=FIX.4.4|9=87|35=A|34=122|49=OrderGenerator|52=20250619-14:30:09.371|56=OrderAccumulator|98=0|108=30|10=141|
20250619-14:30:14.408 : 8=FIX.4.4|9=87|35=A|34=123|49=OrderGenerator|52=20250619-14:30:14.408|56=OrderAccumulator|98=0|108=30|10=139|
20250619-14:30:19.439 : 8=FIX.4.4|9=87|35=A|34=124|49=OrderGenerator|52=20250619-14:30:19.439|56=OrderAccumulator|98=0|108=30|10=149|
20250619-14:30:24.469 : 8=FIX.4.4|9=87|35=A|34=125|49=OrderGenerator|52=20250619-14:30:24.468|56=OrderAccumulator|98=0|108=30|10=148|
20250619-14:30:29.508 : 8=FIX.4.4|9=87|35=A|34=126|49=OrderGenerator|52=20250619-14:30:29.508|56=OrderAccumulator|98=0|108=30|10=149|
20250619-14:30:34.556 : 8=FIX.4.4|9=87|35=A|34=127|49=OrderGenerator|52=20250619-14:30:34.556|56=OrderAccumulator|98=0|108=30|10=149|
20250619-14:30:39.589 : 8=FIX.4.4|9=87|35=A|34=128|49=OrderGenerator|52=20250619-14:30:39.588|56=OrderAccumulator|98=0|108=30|10=160|
20250619-14:30:44.631 : 8=FIX.4.4|9=87|35=A|34=129|49=OrderGenerator|52=20250619-14:30:44.631|56=OrderAccumulator|98=0|108=30|10=146|
20250619-14:30:49.666 : 8=FIX.4.4|9=87|35=A|34=130|49=OrderGenerator|52=20250619-14:30:49.666|56=OrderAccumulator|98=0|108=30|10=151|
20250619-14:30:54.701 : 8=FIX.4.4|9=87|35=A|34=131|49=OrderGenerator|52=20250619-14:30:54.701|56=OrderAccumulator|98=0|108=30|10=138|
20250619-14:30:59.740 : 8=FIX.4.4|9=87|35=A|34=132|49=OrderGenerator|52=20250619-14:30:59.739|56=OrderAccumulator|98=0|108=30|10=155|
20250619-14:31:04.780 : 8=FIX.4.4|9=87|35=A|34=133|49=OrderGenerator|52=20250619-14:31:04.780|56=OrderAccumulator|98=0|108=30|10=143|
20250619-14:31:09.810 : 8=FIX.4.4|9=87|35=A|34=134|49=OrderGenerator|52=20250619-14:31:09.809|56=OrderAccumulator|98=0|108=30|10=151|
20250619-14:31:14.841 : 8=FIX.4.4|9=87|35=A|34=135|49=OrderGenerator|52=20250619-14:31:14.841|56=OrderAccumulator|98=0|108=30|10=144|
20250619-14:31:19.877 : 8=FIX.4.4|9=87|35=A|34=136|49=OrderGenerator|52=20250619-14:31:19.877|56=OrderAccumulator|98=0|108=30|10=159|
20250619-14:31:24.916 : 8=FIX.4.4|9=87|35=A|34=137|49=OrderGenerator|52=20250619-14:31:24.916|56=OrderAccumulator|98=0|108=30|10=150|
20250619-14:31:29.948 : 8=FIX.4.4|9=87|35=A|34=138|49=OrderGenerator|52=20250619-14:31:29.948|56=OrderAccumulator|98=0|108=30|10=161|
20250619-14:31:34.983 : 8=FIX.4.4|9=87|35=A|34=139|49=OrderGenerator|52=20250619-14:31:34.983|56=OrderAccumulator|98=0|108=30|10=157|
20250619-14:31:40.018 : 8=FIX.4.4|9=87|35=A|34=140|49=OrderGenerator|52=20250619-14:31:40.018|56=OrderAccumulator|98=0|108=30|10=135|
20250619-14:31:45.056 : 8=FIX.4.4|9=87|35=A|34=141|49=OrderGenerator|52=20250619-14:31:45.056|56=OrderAccumulator|98=0|108=30|10=143|
20250619-14:31:50.101 : 8=FIX.4.4|9=87|35=A|34=142|49=OrderGenerator|52=20250619-14:31:50.101|56=OrderAccumulator|98=0|108=30|10=131|
20250619-14:31:55.130 : 8=FIX.4.4|9=87|35=A|34=143|49=OrderGenerator|52=20250619-14:31:55.130|56=OrderAccumulator|98=0|108=30|10=139|
20250619-14:32:00.203 : 8=FIX.4.4|9=87|35=A|34=144|49=OrderGenerator|52=20250619-14:32:00.203|56=OrderAccumulator|98=0|108=30|10=132|
20250619-14:32:05.234 : 8=FIX.4.4|9=87|35=A|34=145|49=OrderGenerator|52=20250619-14:32:05.234|56=OrderAccumulator|98=0|108=30|10=142|
20250619-14:32:10.261 : 8=FIX.4.4|9=87|35=A|34=146|49=OrderGenerator|52=20250619-14:32:10.261|56=OrderAccumulator|98=0|108=30|10=139|
20250619-14:32:15.285 : 8=FIX.4.4|9=87|35=A|34=147|49=OrderGenerator|52=20250619-14:32:15.285|56=OrderAccumulator|98=0|108=30|10=151|
20250619-14:32:20.302 : 8=FIX.4.4|9=87|35=A|34=148|49=OrderGenerator|52=20250619-14:32:20.302|56=OrderAccumulator|98=0|108=30|10=138|
20250619-14:32:25.350 : 8=FIX.4.4|9=87|35=A|34=149|49=OrderGenerator|52=20250619-14:32:25.350|56=OrderAccumulator|98=0|108=30|10=147|
20250619-14:32:30.398 : 8=FIX.4.4|9=87|35=A|34=150|49=OrderGenerator|52=20250619-14:32:30.398|56=OrderAccumulator|98=0|108=30|10=147|
20250619-14:32:35.431 : 8=FIX.4.4|9=87|35=A|34=151|49=OrderGenerator|52=20250619-14:32:35.431|56=OrderAccumulator|98=0|108=30|10=141|
20250619-14:32:40.448 : 8=FIX.4.4|9=87|35=A|34=152|49=OrderGenerator|52=20250619-14:32:40.448|56=OrderAccumulator|98=0|108=30|10=146|
20250619-14:32:45.476 : 8=FIX.4.4|9=87|35=A|34=153|49=OrderGenerator|52=20250619-14:32:45.476|56=OrderAccumulator|98=0|108=30|10=153|
20250619-14:32:50.509 : 8=FIX.4.4|9=87|35=A|34=154|49=OrderGenerator|52=20250619-14:32:50.509|56=OrderAccumulator|98=0|108=30|10=147|
20250619-14:32:55.547 : 8=FIX.4.4|9=87|35=A|34=155|49=OrderGenerator|52=20250619-14:32:55.547|56=OrderAccumulator|98=0|108=30|10=155|
20250619-14:33:00.590 : 8=FIX.4.4|9=87|35=A|34=156|49=OrderGenerator|52=20250619-14:33:00.590|56=OrderAccumulator|98=0|108=30|10=145|
20250619-14:33:05.615 : 8=FIX.4.4|9=87|35=A|34=157|49=OrderGenerator|52=20250619-14:33:05.615|56=OrderAccumulator|98=0|108=30|10=149|
20250619-14:33:10.659 : 8=FIX.4.4|9=87|35=A|34=158|49=OrderGenerator|52=20250619-14:33:10.659|56=OrderAccumulator|98=0|108=30|10=154|
20250619-14:33:15.704 : 8=FIX.4.4|9=87|35=A|34=159|49=OrderGenerator|52=20250619-14:33:15.704|56=OrderAccumulator|98=0|108=30|10=151|
20250619-14:33:20.747 : 8=FIX.4.4|9=87|35=A|34=160|49=OrderGenerator|52=20250619-14:33:20.746|56=OrderAccumulator|98=0|108=30|10=145|
20250619-14:33:25.774 : 8=FIX.4.4|9=87|35=A|34=161|49=OrderGenerator|52=20250619-14:33:25.774|56=OrderAccumulator|98=0|108=30|10=152|
20250619-14:33:30.802 : 8=FIX.4.4|9=87|35=A|34=162|49=OrderGenerator|52=20250619-14:33:30.802|56=OrderAccumulator|98=0|108=30|10=141|
20250619-14:33:35.825 : 8=FIX.4.4|9=87|35=A|34=163|49=OrderGenerator|52=20250619-14:33:35.825|56=OrderAccumulator|98=0|108=30|10=152|
20250619-14:33:40.853 : 8=FIX.4.4|9=87|35=A|34=164|49=OrderGenerator|52=20250619-14:33:40.853|56=OrderAccumulator|98=0|108=30|10=150|
20250619-14:33:45.879 : 8=FIX.4.4|9=87|35=A|34=165|49=OrderGenerator|52=20250619-14:33:45.879|56=OrderAccumulator|98=0|108=30|10=164|
20250619-14:33:50.909 : 8=FIX.4.4|9=87|35=A|34=166|49=OrderGenerator|52=20250619-14:33:50.909|56=OrderAccumulator|98=0|108=30|10=155|
20250619-14:33:55.943 : 8=FIX.4.4|9=87|35=A|34=167|49=OrderGenerator|52=20250619-14:33:55.943|56=OrderAccumulator|98=0|108=30|10=159|
20250619-14:34:00.973 : 8=FIX.4.4|9=87|35=A|34=168|49=OrderGenerator|52=20250619-14:34:00.973|56=OrderAccumulator|98=0|108=30|10=154|
20250619-14:34:06.010 : 8=FIX.4.4|9=87|35=A|34=169|49=OrderGenerator|52=20250619-14:34:06.010|56=OrderAccumulator|98=0|108=30|10=143|
20250619-14:34:11.032 : 8=FIX.4.4|9=87|35=A|34=170|49=OrderGenerator|52=20250619-14:34:11.032|56=OrderAccumulator|98=0|108=30|10=135|
20250619-14:34:16.050 : 8=FIX.4.4|9=87|35=A|34=171|49=OrderGenerator|52=20250619-14:34:16.050|56=OrderAccumulator|98=0|108=30|10=141|
20250619-14:34:21.088 : 8=FIX.4.4|9=87|35=A|34=172|49=OrderGenerator|52=20250619-14:34:21.088|56=OrderAccumulator|98=0|108=30|10=149|
20250619-14:34:26.117 : 8=FIX.4.4|9=87|35=A|34=173|49=OrderGenerator|52=20250619-14:34:26.117|56=OrderAccumulator|98=0|108=30|10=148|
20250619-14:34:31.147 : 8=FIX.4.4|9=87|35=A|34=174|49=OrderGenerator|52=20250619-14:34:31.147|56=OrderAccumulator|98=0|108=30|10=148|
20250619-14:34:36.188 : 8=FIX.4.4|9=87|35=A|34=175|49=OrderGenerator|52=20250619-14:34:36.188|56=OrderAccumulator|98=0|108=30|10=159|
20250619-14:34:41.234 : 8=FIX.4.4|9=87|35=A|34=176|49=OrderGenerator|52=20250619-14:34:41.234|56=OrderAccumulator|98=0|108=30|10=148|
20250619-14:34:46.278 : 8=FIX.4.4|9=87|35=A|34=177|49=OrderGenerator|52=20250619-14:34:46.278|56=OrderAccumulator|98=0|108=30|10=162|
20250619-14:34:51.308 : 8=FIX.4.4|9=87|35=A|34=178|49=OrderGenerator|52=20250619-14:34:51.308|56=OrderAccumulator|98=0|108=30|10=153|
20250619-14:34:56.366 : 8=FIX.4.4|9=87|35=A|34=179|49=OrderGenerator|52=20250619-14:34:56.366|56=OrderAccumulator|98=0|108=30|10=163|
20250619-14:35:01.392 : 8=FIX.4.4|9=87|35=A|34=180|49=OrderGenerator|52=20250619-14:35:01.392|56=OrderAccumulator|98=0|108=30|10=145|
20250619-14:35:06.425 : 8=FIX.4.4|9=87|35=A|34=181|49=OrderGenerator|52=20250619-14:35:06.425|56=OrderAccumulator|98=0|108=30|10=148|
20250619-14:35:11.447 : 8=FIX.4.4|9=87|35=A|34=182|49=OrderGenerator|52=20250619-14:35:11.447|56=OrderAccumulator|98=0|108=30|10=149|
20250619-14:35:16.489 : 8=FIX.4.4|9=87|35=A|34=183|49=OrderGenerator|52=20250619-14:35:16.488|56=OrderAccumulator|98=0|108=30|10=160|
20250619-14:35:21.509 : 8=FIX.4.4|9=87|35=A|34=184|49=OrderGenerator|52=20250619-14:35:21.509|56=OrderAccumulator|98=0|108=30|10=151|
20250619-14:35:26.542 : 8=FIX.4.4|9=87|35=A|34=185|49=OrderGenerator|52=20250619-14:35:26.542|56=OrderAccumulator|98=0|108=30|10=154|
20250619-14:35:31.568 : 8=FIX.4.4|9=87|35=A|34=186|49=OrderGenerator|52=20250619-14:35:31.568|56=OrderAccumulator|98=0|108=30|10=159|
20250619-14:35:36.598 : 8=FIX.4.4|9=87|35=A|34=187|49=OrderGenerator|52=20250619-14:35:36.598|56=OrderAccumulator|98=0|108=30|10=168|
20250619-14:35:41.639 : 8=FIX.4.4|9=87|35=A|34=188|49=OrderGenerator|52=20250619-14:35:41.639|56=OrderAccumulator|98=0|108=30|10=161|
20250619-14:35:46.666 : 8=FIX.4.4|9=87|35=A|34=189|49=OrderGenerator|52=20250619-14:35:46.665|56=OrderAccumulator|98=0|108=30|10=166|
20250619-14:35:51.708 : 8=FIX.4.4|9=87|35=A|34=190|49=OrderGenerator|52=20250619-14:35:51.708|56=OrderAccumulator|98=0|108=30|10=152|
20250619-14:35:56.750 : 8=FIX.4.4|9=87|35=A|34=191|49=OrderGenerator|52=20250619-14:35:56.750|56=OrderAccumulator|98=0|108=30|10=155|
20250619-14:36:01.790 : 8=FIX.4.4|9=87|35=A|34=192|49=OrderGenerator|52=20250619-14:36:01.789|56=OrderAccumulator|98=0|108=30|10=159|
20250619-14:36:06.822 : 8=FIX.4.4|9=87|35=A|34=193|49=OrderGenerator|52=20250619-14:36:06.822|56=OrderAccumulator|98=0|108=30|10=153|
20250619-14:36:11.857 : 8=FIX.4.4|9=87|35=A|34=194|49=OrderGenerator|52=20250619-14:36:11.857|56=OrderAccumulator|98=0|108=30|10=158|
20250619-14:36:16.887 : 8=FIX.4.4|9=87|35=A|34=195|49=OrderGenerator|52=20250619-14:36:16.886|56=OrderAccumulator|98=0|108=30|10=166|
20250619-14:36:21.918 : 8=FIX.4.4|9=87|35=A|34=196|49=OrderGenerator|52=20250619-14:36:21.918|56=OrderAccumulator|98=0|108=30|10=159|
20250619-14:36:26.949 : 8=FIX.4.4|9=87|35=A|34=197|49=OrderGenerator|52=20250619-14:36:26.948|56=OrderAccumulator|98=0|108=30|10=168|
20250619-14:36:31.972 : 8=FIX.4.4|9=87|35=A|34=198|49=OrderGenerator|52=20250619-14:36:31.972|56=OrderAccumulator|98=0|108=30|10=162|
20250619-14:36:37.009 : 8=FIX.4.4|9=87|35=A|34=199|49=OrderGenerator|52=20250619-14:36:37.009|56=OrderAccumulator|98=0|108=30|10=160|
20250619-14:36:42.045 : 8=FIX.4.4|9=87|35=A|34=200|49=OrderGenerator|52=20250619-14:36:42.045|56=OrderAccumulator|98=0|108=30|10=139|
20250619-14:36:47.076 : 8=FIX.4.4|9=87|35=A|34=201|49=OrderGenerator|52=20250619-14:36:47.076|56=OrderAccumulator|98=0|108=30|10=149|
20250619-14:36:52.101 : 8=FIX.4.4|9=87|35=A|34=202|49=OrderGenerator|52=20250619-14:36:52.101|56=OrderAccumulator|98=0|108=30|10=135|
20250619-14:36:57.133 : 8=FIX.4.4|9=87|35=A|34=203|49=OrderGenerator|52=20250619-14:36:57.133|56=OrderAccumulator|98=0|108=30|10=146|
20250619-14:37:02.172 : 8=FIX.4.4|9=87|35=A|34=204|49=OrderGenerator|52=20250619-14:37:02.172|56=OrderAccumulator|98=0|108=30|10=141|
20250619-14:37:07.205 : 8=FIX.4.4|9=87|35=A|34=205|49=OrderGenerator|52=20250619-14:37:07.205|56=OrderAccumulator|98=0|108=30|10=144|
20250619-14:37:12.239 : 8=FIX.4.4|9=87|35=A|34=206|49=OrderGenerator|52=20250619-14:37:12.239|56=OrderAccumulator|98=0|108=30|10=148|
20250619-14:37:17.266 : 8=FIX.4.4|9=87|35=A|34=207|49=OrderGenerator|52=20250619-14:37:17.266|56=OrderAccumulator|98=0|108=30|10=154|
20250619-14:37:22.302 : 8=FIX.4.4|9=87|35=A|34=208|49=OrderGenerator|52=20250619-14:37:22.302|56=OrderAccumulator|98=0|108=30|10=142|
20250619-14:37:27.330 : 8=FIX.4.4|9=87|35=A|34=209|49=OrderGenerator|52=20250619-14:37:27.330|56=OrderAccumulator|98=0|108=30|10=149|
20250619-14:37:32.360 : 8=FIX.4.4|9=87|35=A|34=210|49=OrderGenerator|52=20250619-14:37:32.360|56=OrderAccumulator|98=0|108=30|10=140|
20250619-14:37:37.381 : 8=FIX.4.4|9=87|35=A|34=211|49=OrderGenerator|52=20250619-14:37:37.381|56=OrderAccumulator|98=0|108=30|10=149|
20250619-14:37:42.424 : 8=FIX.4.4|9=87|35=A|34=212|49=OrderGenerator|52=20250619-14:37:42.424|56=OrderAccumulator|98=0|108=30|10=144|
20250619-14:37:47.469 : 8=FIX.4.4|9=87|35=A|34=213|49=OrderGenerator|52=20250619-14:37:47.469|56=OrderAccumulator|98=0|108=30|10=159|
20250619-14:37:52.493 : 8=FIX.4.4|9=87|35=A|34=214|49=OrderGenerator|52=20250619-14:37:52.493|56=OrderAccumulator|98=0|108=30|10=153|
20250619-14:37:57.534 : 8=FIX.4.4|9=87|35=A|34=215|49=OrderGenerator|52=20250619-14:37:57.533|56=OrderAccumulator|98=0|108=30|10=154|
20250619-14:38:02.564 : 8=FIX.4.4|9=87|35=A|34=216|49=OrderGenerator|52=20250619-14:38:02.564|56=OrderAccumulator|98=0|108=30|10=150|
20250619-14:38:07.597 : 8=FIX.4.4|9=87|35=A|34=217|49=OrderGenerator|52=20250619-14:38:07.597|56=OrderAccumulator|98=0|108=30|10=162|
20250619-14:38:12.624 : 8=FIX.4.4|9=87|35=A|34=218|49=OrderGenerator|52=20250619-14:38:12.624|56=OrderAccumulator|98=0|108=30|10=150|
20250619-14:38:17.652 : 8=FIX.4.4|9=87|35=A|34=219|49=OrderGenerator|52=20250619-14:38:17.651|56=OrderAccumulator|98=0|108=30|10=156|
20250619-14:38:22.689 : 8=FIX.4.4|9=87|35=A|34=220|49=OrderGenerator|52=20250619-14:38:22.688|56=OrderAccumulator|98=0|108=30|10=154|
20250619-14:38:27.730 : 8=FIX.4.4|9=87|35=A|34=221|49=OrderGenerator|52=20250619-14:38:27.729|56=OrderAccumulator|98=0|108=30|10=156|
20250619-14:38:32.761 : 8=FIX.4.4|9=87|35=A|34=222|49=OrderGenerator|52=20250619-14:38:32.761|56=OrderAccumulator|98=0|108=30|10=149|
20250619-14:38:37.783 : 8=FIX.4.4|9=87|35=A|34=223|49=OrderGenerator|52=20250619-14:38:37.783|56=OrderAccumulator|98=0|108=30|10=159|
20250619-14:38:42.829 : 8=FIX.4.4|9=87|35=A|34=224|49=OrderGenerator|52=20250619-14:38:42.829|56=OrderAccumulator|98=0|108=30|10=157|
20250619-14:38:47.859 : 8=FIX.4.4|9=87|35=A|34=225|49=OrderGenerator|52=20250619-14:38:47.859|56=OrderAccumulator|98=0|108=30|10=166|
20250619-14:38:52.885 : 8=FIX.4.4|9=87|35=A|34=226|49=OrderGenerator|52=20250619-14:38:52.885|56=OrderAccumulator|98=0|108=30|10=162|
20250619-14:38:57.931 : 8=FIX.4.4|9=87|35=A|34=227|49=OrderGenerator|52=20250619-14:38:57.931|56=OrderAccumulator|98=0|108=30|10=160|
20250619-14:39:02.961 : 8=FIX.4.4|9=87|35=A|34=228|49=OrderGenerator|52=20250619-14:39:02.961|56=OrderAccumulator|98=0|108=30|10=155|
20250619-14:39:07.994 : 8=FIX.4.4|9=87|35=A|34=229|49=OrderGenerator|52=20250619-14:39:07.994|56=OrderAccumulator|98=0|108=30|10=167|
20250619-14:39:13.026 : 8=FIX.4.4|9=87|35=A|34=230|49=OrderGenerator|52=20250619-14:39:13.026|56=OrderAccumulator|98=0|108=30|10=142|
20250619-14:39:18.061 : 8=FIX.4.4|9=87|35=A|34=231|49=OrderGenerator|52=20250619-14:39:18.061|56=OrderAccumulator|98=0|108=30|10=147|
20250619-14:39:23.107 : 8=FIX.4.4|9=87|35=A|34=232|49=OrderGenerator|52=20250619-14:39:23.107|56=OrderAccumulator|98=0|108=30|10=145|
20250619-14:39:28.139 : 8=FIX.4.4|9=87|35=A|34=233|49=OrderGenerator|52=20250619-14:39:28.139|56=OrderAccumulator|98=0|108=30|10=156|
20250619-14:39:33.172 : 8=FIX.4.4|9=87|35=A|34=234|49=OrderGenerator|52=20250619-14:39:33.172|56=OrderAccumulator|98=0|108=30|10=150|
20250619-14:39:38.202 : 8=FIX.4.4|9=87|35=A|34=235|49=OrderGenerator|52=20250619-14:39:38.202|56=OrderAccumulator|98=0|108=30|10=150|
20250619-14:39:43.246 : 8=FIX.4.4|9=87|35=A|34=236|49=OrderGenerator|52=20250619-14:39:43.245|56=OrderAccumulator|98=0|108=30|10=154|
20250619-14:39:48.293 : 8=FIX.4.4|9=87|35=A|34=237|49=OrderGenerator|52=20250619-14:39:48.292|56=OrderAccumulator|98=0|108=30|10=162|
20250619-14:39:53.330 : 8=FIX.4.4|9=87|35=A|34=238|49=OrderGenerator|52=20250619-14:39:53.330|56=OrderAccumulator|98=0|108=30|10=152|
20250619-14:39:58.370 : 8=FIX.4.4|9=87|35=A|34=239|49=OrderGenerator|52=20250619-14:39:58.370|56=OrderAccumulator|98=0|108=30|10=162|
20250619-14:40:03.396 : 8=FIX.4.4|9=87|35=A|34=240|49=OrderGenerator|52=20250619-14:40:03.396|56=OrderAccumulator|98=0|108=30|10=144|
20250619-14:40:08.440 : 8=FIX.4.4|9=87|35=A|34=241|49=OrderGenerator|52=20250619-14:40:08.440|56=OrderAccumulator|98=0|108=30|10=140|
20250619-14:40:13.471 : 8=FIX.4.4|9=87|35=A|34=242|49=OrderGenerator|52=20250619-14:40:13.471|56=OrderAccumulator|98=0|108=30|10=141|
20250619-14:40:18.500 : 8=FIX.4.4|9=87|35=A|34=243|49=OrderGenerator|52=20250619-14:40:18.500|56=OrderAccumulator|98=0|108=30|10=140|
20250619-14:40:23.539 : 8=FIX.4.4|9=87|35=A|34=244|49=OrderGenerator|52=20250619-14:40:23.539|56=OrderAccumulator|98=0|108=30|10=149|
20250619-14:40:28.570 : 8=FIX.4.4|9=87|35=A|34=245|49=OrderGenerator|52=20250619-14:40:28.570|56=OrderAccumulator|98=0|108=30|10=150|
20250619-14:40:33.597 : 8=FIX.4.4|9=87|35=A|34=246|49=OrderGenerator|52=20250619-14:40:33.597|56=OrderAccumulator|98=0|108=30|10=156|
20250619-14:40:38.632 : 8=FIX.4.4|9=87|35=A|34=247|49=OrderGenerator|52=20250619-14:40:38.632|56=OrderAccumulator|98=0|108=30|10=152|
20250619-14:40:43.684 : 8=FIX.4.4|9=87|35=A|34=248|49=OrderGenerator|52=20250619-14:40:43.684|56=OrderAccumulator|98=0|108=30|10=156|
20250619-14:40:48.724 : 8=FIX.4.4|9=87|35=A|34=249|49=OrderGenerator|52=20250619-14:40:48.724|56=OrderAccumulator|98=0|108=30|10=157|
20250619-14:40:53.755 : 8=FIX.4.4|9=87|35=A|34=250|49=OrderGenerator|52=20250619-14:40:53.755|56=OrderAccumulator|98=0|108=30|10=149|
20250619-14:40:58.781 : 8=FIX.4.4|9=87|35=A|34=251|49=OrderGenerator|52=20250619-14:40:58.781|56=OrderAccumulator|98=0|108=30|10=154|
20250619-14:41:03.810 : 8=FIX.4.4|9=87|35=A|34=252|49=OrderGenerator|52=20250619-14:41:03.810|56=OrderAccumulator|98=0|108=30|10=139|
20250619-14:41:08.840 : 8=FIX.4.4|9=87|35=A|34=253|49=OrderGenerator|52=20250619-14:41:08.840|56=OrderAccumulator|98=0|108=30|10=148|
20250619-14:41:13.870 : 8=FIX.4.4|9=87|35=A|34=254|49=OrderGenerator|52=20250619-14:41:13.870|56=OrderAccumulator|98=0|108=30|10=148|
20250619-14:41:18.900 : 8=FIX.4.4|9=87|35=A|34=255|49=OrderGenerator|52=20250619-14:41:18.900|56=OrderAccumulator|98=0|108=30|10=148|
20250619-14:41:23.940 : 8=FIX.4.4|9=87|35=A|34=256|49=OrderGenerator|52=20250619-14:41:23.940|56=OrderAccumulator|98=0|108=30|10=149|
20250619-14:41:28.974 : 8=FIX.4.4|9=87|35=A|34=257|49=OrderGenerator|52=20250619-14:41:28.974|56=OrderAccumulator|98=0|108=30|10=162|
20250619-14:41:34.015 : 8=FIX.4.4|9=87|35=A|34=258|49=OrderGenerator|52=20250619-14:41:34.015|56=OrderAccumulator|98=0|108=30|10=146|
20250619-14:41:39.051 : 8=FIX.4.4|9=87|35=A|34=259|49=OrderGenerator|52=20250619-14:41:39.051|56=OrderAccumulator|98=0|108=30|10=152|
20250619-14:41:44.072 : 8=FIX.4.4|9=87|35=A|34=260|49=OrderGenerator|52=20250619-14:41:44.072|56=OrderAccumulator|98=0|108=30|10=143|
20250619-14:41:49.108 : 8=FIX.4.4|9=87|35=A|34=261|49=OrderGenerator|52=20250619-14:41:49.108|56=OrderAccumulator|98=0|108=30|10=149|
20250619-14:41:54.146 : 8=FIX.4.4|9=87|35=A|34=262|49=OrderGenerator|52=20250619-14:41:54.145|56=OrderAccumulator|98=0|108=30|10=147|
20250619-14:41:59.171 : 8=FIX.4.4|9=87|35=A|34=263|49=OrderGenerator|52=20250619-14:41:59.171|56=OrderAccumulator|98=0|108=30|10=152|
20250619-14:42:04.215 : 8=FIX.4.4|9=87|35=A|34=264|49=OrderGenerator|52=20250619-14:42:04.215|56=OrderAccumulator|98=0|108=30|10=143|
20250619-14:42:09.250 : 8=FIX.4.4|9=87|35=A|34=265|49=OrderGenerator|52=20250619-14:42:09.250|56=OrderAccumulator|98=0|108=30|10=148|
20250619-14:42:14.283 : 8=FIX.4.4|9=87|35=A|34=266|49=OrderGenerator|52=20250619-14:42:14.283|56=OrderAccumulator|98=0|108=30|10=151|
20250619-14:42:19.310 : 8=FIX.4.4|9=87|35=A|34=267|49=OrderGenerator|52=20250619-14:42:19.310|56=OrderAccumulator|98=0|108=30|10=148|
20250619-14:42:24.341 : 8=FIX.4.4|9=87|35=A|34=268|49=OrderGenerator|52=20250619-14:42:24.341|56=OrderAccumulator|98=0|108=30|10=149|
20250619-14:42:29.369 : 8=FIX.4.4|9=87|35=A|34=269|49=OrderGenerator|52=20250619-14:42:29.369|56=OrderAccumulator|98=0|108=30|10=165|
20250619-14:42:34.407 : 8=FIX.4.4|9=87|35=A|34=270|49=OrderGenerator|52=20250619-14:42:34.407|56=OrderAccumulator|98=0|108=30|10=146|
20250619-14:42:39.448 : 8=FIX.4.4|9=87|35=A|34=271|49=OrderGenerator|52=20250619-14:42:39.448|56=OrderAccumulator|98=0|108=30|10=157|
20250619-14:42:44.477 : 8=FIX.4.4|9=87|35=A|34=272|49=OrderGenerator|52=20250619-14:42:44.477|56=OrderAccumulator|98=0|108=30|10=156|
20250619-14:42:49.513 : 8=FIX.4.4|9=87|35=A|34=273|49=OrderGenerator|52=20250619-14:42:49.513|56=OrderAccumulator|98=0|108=30|10=153|
20250619-14:42:54.542 : 8=FIX.4.4|9=87|35=A|34=274|49=OrderGenerator|52=20250619-14:42:54.542|56=OrderAccumulator|98=0|108=30|10=152|
20250619-14:42:59.571 : 8=FIX.4.4|9=87|35=A|34=275|49=OrderGenerator|52=20250619-14:42:59.571|56=OrderAccumulator|98=0|108=30|10=160|
20250619-14:43:04.595 : 8=FIX.4.4|9=87|35=A|34=276|49=OrderGenerator|52=20250619-14:43:04.595|56=OrderAccumulator|98=0|108=30|10=158|
20250619-14:43:09.640 : 8=FIX.4.4|9=87|35=A|34=277|49=OrderGenerator|52=20250619-14:43:09.640|56=OrderAccumulator|98=0|108=30|10=155|
20250619-14:43:14.668 : 8=FIX.4.4|9=87|35=A|34=278|49=OrderGenerator|52=20250619-14:43:14.668|56=OrderAccumulator|98=0|108=30|10=162|
20250619-14:43:19.693 : 8=FIX.4.4|9=87|35=A|34=279|49=OrderGenerator|52=20250619-14:43:19.693|56=OrderAccumulator|98=0|108=30|10=166|
20250619-14:43:24.722 : 8=FIX.4.4|9=87|35=A|34=280|49=OrderGenerator|52=20250619-14:43:24.722|56=OrderAccumulator|98=0|108=30|10=147|
20250619-14:43:29.753 : 8=FIX.4.4|9=87|35=A|34=281|49=OrderGenerator|52=20250619-14:43:29.753|56=OrderAccumulator|98=0|108=30|10=157|
20250619-14:43:34.786 : 8=FIX.4.4|9=87|35=A|34=282|49=OrderGenerator|52=20250619-14:43:34.786|56=OrderAccumulator|98=0|108=30|10=160|
20250619-14:43:39.813 : 8=FIX.4.4|9=87|35=A|34=283|49=OrderGenerator|52=20250619-14:43:39.813|56=OrderAccumulator|98=0|108=30|10=157|
20250619-14:43:44.851 : 8=FIX.4.4|9=87|35=A|34=284|49=OrderGenerator|52=20250619-14:43:44.851|56=OrderAccumulator|98=0|108=30|10=156|
20250619-14:43:49.895 : 8=FIX.4.4|9=87|35=A|34=285|49=OrderGenerator|52=20250619-14:43:49.895|56=OrderAccumulator|98=0|108=30|10=170|
20250619-14:43:54.931 : 8=FIX.4.4|9=87|35=A|34=286|49=OrderGenerator|52=20250619-14:43:54.931|56=OrderAccumulator|98=0|108=30|10=158|
20250619-14:43:59.956 : 8=FIX.4.4|9=87|35=A|34=287|49=OrderGenerator|52=20250619-14:43:59.956|56=OrderAccumulator|98=0|108=30|10=171|
20250619-14:44:04.986 : 8=FIX.4.4|9=87|35=A|34=288|49=OrderGenerator|52=20250619-14:44:04.986|56=OrderAccumulator|98=0|108=30|10=166|
20250619-14:44:10.011 : 8=FIX.4.4|9=87|35=A|34=289|49=OrderGenerator|52=20250619-14:44:10.011|56=OrderAccumulator|98=0|108=30|10=143|
20250619-14:44:15.051 : 8=FIX.4.4|9=87|35=A|34=290|49=OrderGenerator|52=20250619-14:44:15.051|56=OrderAccumulator|98=0|108=30|10=144|
20250619-14:44:20.096 : 8=FIX.4.4|9=87|35=A|34=291|49=OrderGenerator|52=20250619-14:44:20.095|56=OrderAccumulator|98=0|108=30|10=149|
20250619-14:44:25.123 : 8=FIX.4.4|9=87|35=A|34=292|49=OrderGenerator|52=20250619-14:44:25.123|56=OrderAccumulator|98=0|108=30|10=147|
20250619-14:44:30.159 : 8=FIX.4.4|9=87|35=A|34=293|49=OrderGenerator|52=20250619-14:44:30.159|56=OrderAccumulator|98=0|108=30|10=153|
20250619-14:44:35.193 : 8=FIX.4.4|9=87|35=A|34=294|49=OrderGenerator|52=20250619-14:44:35.193|56=OrderAccumulator|98=0|108=30|10=157|
20250619-14:44:40.220 : 8=FIX.4.4|9=87|35=A|34=295|49=OrderGenerator|52=20250619-14:44:40.220|56=OrderAccumulator|98=0|108=30|10=145|
20250619-14:44:45.255 : 8=FIX.4.4|9=87|35=A|34=296|49=OrderGenerator|52=20250619-14:44:45.255|56=OrderAccumulator|98=0|108=30|10=159|
20250619-14:44:50.288 : 8=FIX.4.4|9=87|35=A|34=297|49=OrderGenerator|52=20250619-14:44:50.288|56=OrderAccumulator|98=0|108=30|10=162|
20250619-14:44:55.321 : 8=FIX.4.4|9=87|35=A|34=298|49=OrderGenerator|52=20250619-14:44:55.321|56=OrderAccumulator|98=0|108=30|10=156|
20250619-14:45:00.358 : 8=FIX.4.4|9=87|35=A|34=299|49=OrderGenerator|52=20250619-14:45:00.358|56=OrderAccumulator|98=0|108=30|10=158|
20250619-14:45:05.391 : 8=FIX.4.4|9=87|35=A|34=300|49=OrderGenerator|52=20250619-14:45:05.391|56=OrderAccumulator|98=0|108=30|10=143|
20250619-14:45:10.421 : 8=FIX.4.4|9=87|35=A|34=301|49=OrderGenerator|52=20250619-14:45:10.421|56=OrderAccumulator|98=0|108=30|10=134|
20250619-14:45:15.454 : 8=FIX.4.4|9=87|35=A|34=302|49=OrderGenerator|52=20250619-14:45:15.454|56=OrderAccumulator|98=0|108=30|10=146|
20250619-14:45:20.477 : 8=FIX.4.4|9=87|35=A|34=303|49=OrderGenerator|52=20250619-14:45:20.477|56=OrderAccumulator|98=0|108=30|10=148|
20250619-14:45:25.522 : 8=FIX.4.4|9=87|35=A|34=304|49=OrderGenerator|52=20250619-14:45:25.522|56=OrderAccumulator|98=0|108=30|10=145|
20250619-14:45:30.555 : 8=FIX.4.4|9=87|35=A|34=305|49=OrderGenerator|52=20250619-14:45:30.555|56=OrderAccumulator|98=0|108=30|10=148|
20250619-14:45:35.575 : 8=FIX.4.4|9=87|35=A|34=306|49=OrderGenerator|52=20250619-14:45:35.574|56=OrderAccumulator|98=0|108=30|10=155|
20250619-14:45:40.621 : 8=FIX.4.4|9=87|35=A|34=307|49=OrderGenerator|52=20250619-14:45:40.621|56=OrderAccumulator|98=0|108=30|10=145|
20250619-14:45:45.660 : 8=FIX.4.4|9=87|35=A|34=308|49=OrderGenerator|52=20250619-14:45:45.660|56=OrderAccumulator|98=0|108=30|10=154|
20250619-14:45:50.693 : 8=FIX.4.4|9=87|35=A|34=309|49=OrderGenerator|52=20250619-14:45:50.692|56=OrderAccumulator|98=0|108=30|10=156|
20250619-14:45:55.719 : 8=FIX.4.4|9=87|35=A|34=310|49=OrderGenerator|52=20250619-14:45:55.719|56=OrderAccumulator|98=0|108=30|10=153|
20250619-14:46:00.770 : 8=FIX.4.4|9=87|35=A|34=311|49=OrderGenerator|52=20250619-14:46:00.770|56=OrderAccumulator|98=0|108=30|10=142|
20250619-14:46:05.802 : 8=FIX.4.4|9=87|35=A|34=312|49=OrderGenerator|52=20250619-14:46:05.801|56=OrderAccumulator|98=0|108=30|10=143|
20250619-14:46:10.828 : 8=FIX.4.4|9=87|35=A|34=313|49=OrderGenerator|52=20250619-14:46:10.828|56=OrderAccumulator|98=0|108=30|10=149|
20250619-14:46:15.862 : 8=FIX.4.4|9=87|35=A|34=314|49=OrderGenerator|52=20250619-14:46:15.862|56=OrderAccumulator|98=0|108=30|10=153|
20250619-14:46:20.895 : 8=FIX.4.4|9=87|35=A|34=315|49=OrderGenerator|52=20250619-14:46:20.894|56=OrderAccumulator|98=0|108=30|10=155|
20250619-14:46:25.922 : 8=FIX.4.4|9=87|35=A|34=316|49=OrderGenerator|52=20250619-14:46:25.921|56=OrderAccumulator|98=0|108=30|10=152|
20250619-14:46:30.950 : 8=FIX.4.4|9=87|35=A|34=317|49=OrderGenerator|52=20250619-14:46:30.950|56=OrderAccumulator|98=0|108=30|10=151|
20250619-14:46:35.990 : 8=FIX.4.4|9=87|35=A|34=318|49=OrderGenerator|52=20250619-14:46:35.990|56=OrderAccumulator|98=0|108=30|10=161|
20250619-14:46:41.025 : 8=FIX.4.4|9=87|35=A|34=319|49=OrderGenerator|52=20250619-14:46:41.025|56=OrderAccumulator|98=0|108=30|10=148|
20250619-14:46:46.056 : 8=FIX.4.4|9=87|35=A|34=320|49=OrderGenerator|52=20250619-14:46:46.056|56=OrderAccumulator|98=0|108=30|10=149|
20250619-14:46:51.080 : 8=FIX.4.4|9=87|35=A|34=321|49=OrderGenerator|52=20250619-14:46:51.080|56=OrderAccumulator|98=0|108=30|10=143|
20250619-14:46:56.118 : 8=FIX.4.4|9=87|35=A|34=322|49=OrderGenerator|52=20250619-14:46:56.117|56=OrderAccumulator|98=0|108=30|10=150|
20250619-14:47:01.162 : 8=FIX.4.4|9=87|35=A|34=323|49=OrderGenerator|52=20250619-14:47:01.162|56=OrderAccumulator|98=0|108=30|10=142|
20250619-14:47:06.194 : 8=FIX.4.4|9=87|35=A|34=324|49=OrderGenerator|52=20250619-14:47:06.194|56=OrderAccumulator|98=0|108=30|10=153|
20250619-14:47:11.232 : 8=FIX.4.4|9=87|35=A|34=325|49=OrderGenerator|52=20250619-14:47:11.232|56=OrderAccumulator|98=0|108=30|10=143|
20250619-14:47:16.259 : 8=FIX.4.4|9=87|35=A|34=326|49=OrderGenerator|52=20250619-14:47:16.259|56=OrderAccumulator|98=0|108=30|10=158|
20250619-14:47:21.288 : 8=FIX.4.4|9=87|35=A|34=327|49=OrderGenerator|52=20250619-14:47:21.288|56=OrderAccumulator|98=0|108=30|10=157|
20250619-14:47:26.326 : 8=FIX.4.4|9=87|35=A|34=328|49=OrderGenerator|52=20250619-14:47:26.326|56=OrderAccumulator|98=0|108=30|10=156|
20250619-14:47:31.361 : 8=FIX.4.4|9=87|35=A|34=329|49=OrderGenerator|52=20250619-14:47:31.361|56=OrderAccumulator|98=0|108=30|10=152|
20250619-14:47:36.397 : 8=FIX.4.4|9=87|35=A|34=330|49=OrderGenerator|52=20250619-14:47:36.397|56=OrderAccumulator|98=0|108=30|10=158|
20250619-14:47:41.448 : 8=FIX.4.4|9=87|35=A|34=331|49=OrderGenerator|52=20250619-14:47:41.448|56=OrderAccumulator|98=0|108=30|10=152|
20250619-14:47:46.477 : 8=FIX.4.4|9=87|35=A|34=332|49=OrderGenerator|52=20250619-14:47:46.476|56=OrderAccumulator|98=0|108=30|10=159|
20250619-14:47:51.506 : 8=FIX.4.4|9=87|35=A|34=333|49=OrderGenerator|52=20250619-14:47:51.506|56=OrderAccumulator|98=0|108=30|10=150|
20250619-14:47:56.526 : 8=FIX.4.4|9=87|35=A|34=334|49=OrderGenerator|52=20250619-14:47:56.526|56=OrderAccumulator|98=0|108=30|10=158|
20250619-14:48:01.562 : 8=FIX.4.4|9=87|35=A|34=335|49=OrderGenerator|52=20250619-14:48:01.562|56=OrderAccumulator|98=0|108=30|10=150|
20250619-14:48:06.587 : 8=FIX.4.4|9=87|35=A|34=336|49=OrderGenerator|52=20250619-14:48:06.587|56=OrderAccumulator|98=0|108=30|10=163|
20250619-14:48:11.619 : 8=FIX.4.4|9=87|35=A|34=337|49=OrderGenerator|52=20250619-14:48:11.619|56=OrderAccumulator|98=0|108=30|10=156|
20250619-14:48:16.653 : 8=FIX.4.4|9=87|35=A|34=338|49=OrderGenerator|52=20250619-14:48:16.653|56=OrderAccumulator|98=0|108=30|10=160|
20250619-14:48:21.671 : 8=FIX.4.4|9=87|35=A|34=339|49=OrderGenerator|52=20250619-14:48:21.671|56=OrderAccumulator|98=0|108=30|10=157|
20250619-14:48:26.700 : 8=FIX.4.4|9=87|35=A|34=340|49=OrderGenerator|52=20250619-14:48:26.700|56=OrderAccumulator|98=0|108=30|10=147|
20250619-14:48:31.731 : 8=FIX.4.4|9=87|35=A|34=341|49=OrderGenerator|52=20250619-14:48:31.731|56=OrderAccumulator|98=0|108=30|10=148|
20250619-14:48:36.761 : 8=FIX.4.4|9=87|35=A|34=342|49=OrderGenerator|52=20250619-14:48:36.761|56=OrderAccumulator|98=0|108=30|10=157|
20250619-14:48:41.793 : 8=FIX.4.4|9=87|35=A|34=343|49=OrderGenerator|52=20250619-14:48:41.793|56=OrderAccumulator|98=0|108=30|10=159|
20250619-14:48:46.817 : 8=FIX.4.4|9=87|35=A|34=344|49=OrderGenerator|52=20250619-14:48:46.817|56=OrderAccumulator|98=0|108=30|10=162|
20250619-14:48:51.845 : 8=FIX.4.4|9=87|35=A|34=345|49=OrderGenerator|52=20250619-14:48:51.845|56=OrderAccumulator|98=0|108=30|10=160|
20250619-14:48:56.875 : 8=FIX.4.4|9=87|35=A|34=346|49=OrderGenerator|52=20250619-14:48:56.875|56=OrderAccumulator|98=0|108=30|10=169|
20250619-14:49:01.902 : 8=FIX.4.4|9=87|35=A|34=347|49=OrderGenerator|52=20250619-14:49:01.902|56=OrderAccumulator|98=0|108=30|10=152|
20250619-14:49:06.941 : 8=FIX.4.4|9=87|35=A|34=348|49=OrderGenerator|52=20250619-14:49:06.941|56=OrderAccumulator|98=0|108=30|10=161|
20250619-14:49:11.970 : 8=FIX.4.4|9=87|35=A|34=349|49=OrderGenerator|52=20250619-14:49:11.970|56=OrderAccumulator|98=0|108=30|10=160|
20250619-14:49:17.001 : 8=FIX.4.4|9=87|35=A|34=350|49=OrderGenerator|52=20250619-14:49:17.001|56=OrderAccumulator|98=0|108=30|10=143|
20250619-14:49:22.036 : 8=FIX.4.4|9=87|35=A|34=351|49=OrderGenerator|52=20250619-14:49:22.036|56=OrderAccumulator|98=0|108=30|10=148|
20250619-14:49:27.063 : 8=FIX.4.4|9=87|35=A|34=352|49=OrderGenerator|52=20250619-14:49:27.063|56=OrderAccumulator|98=0|108=30|10=154|
20250619-14:49:32.100 : 8=FIX.4.4|9=87|35=A|34=353|49=OrderGenerator|52=20250619-14:49:32.100|56=OrderAccumulator|98=0|108=30|10=143|
20250619-14:49:37.137 : 8=FIX.4.4|9=87|35=A|34=354|49=OrderGenerator|52=20250619-14:49:37.137|56=OrderAccumulator|98=0|108=30|10=159|
20250619-14:49:42.166 : 8=FIX.4.4|9=87|35=A|34=355|49=OrderGenerator|52=20250619-14:49:42.166|56=OrderAccumulator|98=0|108=30|10=158|
20250619-14:49:47.205 : 8=FIX.4.4|9=87|35=A|34=356|49=OrderGenerator|52=20250619-14:49:47.205|56=OrderAccumulator|98=0|108=30|10=158|
20250619-14:49:52.244 : 8=FIX.4.4|9=87|35=A|34=357|49=OrderGenerator|52=20250619-14:49:52.244|56=OrderAccumulator|98=0|108=30|10=158|
20250619-14:49:57.279 : 8=FIX.4.4|9=87|35=A|34=358|49=OrderGenerator|52=20250619-14:49:57.279|56=OrderAccumulator|98=0|108=30|10=172|
20250619-14:50:02.304 : 8=FIX.4.4|9=87|35=A|34=359|49=OrderGenerator|52=20250619-14:50:02.304|56=OrderAccumulator|98=0|108=30|10=144|
20250619-14:50:07.345 : 8=FIX.4.4|9=87|35=A|34=360|49=OrderGenerator|52=20250619-14:50:07.345|56=OrderAccumulator|98=0|108=30|10=146|
20250619-14:50:12.379 : 8=FIX.4.4|9=87|35=A|34=361|49=OrderGenerator|52=20250619-14:50:12.379|56=OrderAccumulator|98=0|108=30|10=150|
20250619-14:50:17.403 : 8=FIX.4.4|9=87|35=A|34=362|49=OrderGenerator|52=20250619-14:50:17.403|56=OrderAccumulator|98=0|108=30|10=144|
20250619-14:50:22.430 : 8=FIX.4.4|9=87|35=A|34=363|49=OrderGenerator|52=20250619-14:50:22.430|56=OrderAccumulator|98=0|108=30|10=141|
20250619-14:50:27.453 : 8=FIX.4.4|9=87|35=A|34=364|49=OrderGenerator|52=20250619-14:50:27.453|56=OrderAccumulator|98=0|108=30|10=152|
20250619-14:50:32.487 : 8=FIX.4.4|9=87|35=A|34=365|49=OrderGenerator|52=20250619-14:50:32.487|56=OrderAccumulator|98=0|108=30|10=156|
20250619-14:50:37.520 : 8=FIX.4.4|9=87|35=A|34=366|49=OrderGenerator|52=20250619-14:50:37.520|56=OrderAccumulator|98=0|108=30|10=150|
20250619-14:50:42.558 : 8=FIX.4.4|9=87|35=A|34=367|49=OrderGenerator|52=20250619-14:50:42.558|56=OrderAccumulator|98=0|108=30|10=158|
20250619-14:50:47.589 : 8=FIX.4.4|9=87|35=A|34=368|49=OrderGenerator|52=20250619-14:50:47.589|56=OrderAccumulator|98=0|108=30|10=168|
20250619-14:50:52.611 : 8=FIX.4.4|9=87|35=A|34=369|49=OrderGenerator|52=20250619-14:50:52.611|56=OrderAccumulator|98=0|108=30|10=151|
20250619-14:50:57.647 : 8=FIX.4.4|9=87|35=A|34=370|49=OrderGenerator|52=20250619-14:50:57.647|56=OrderAccumulator|98=0|108=30|10=157|
20250619-14:51:02.682 : 8=FIX.4.4|9=87|35=A|34=371|49=OrderGenerator|52=20250619-14:51:02.682|56=OrderAccumulator|98=0|108=30|10=148|
20250619-14:51:07.727 : 8=FIX.4.4|9=87|35=A|34=372|49=OrderGenerator|52=20250619-14:51:07.727|56=OrderAccumulator|98=0|108=30|10=154|
20250619-14:51:12.748 : 8=FIX.4.4|9=87|35=A|34=373|49=OrderGenerator|52=20250619-14:51:12.747|56=OrderAccumulator|98=0|108=30|10=153|
20250619-14:51:17.791 : 8=FIX.4.4|9=87|35=A|34=374|49=OrderGenerator|52=20250619-14:51:17.791|56=OrderAccumulator|98=0|108=30|10=158|
20250619-14:51:22.822 : 8=FIX.4.4|9=87|35=A|34=375|49=OrderGenerator|52=20250619-14:51:22.822|56=OrderAccumulator|98=0|108=30|10=150|
20250619-14:51:27.851 : 8=FIX.4.4|9=87|35=A|34=376|49=OrderGenerator|52=20250619-14:51:27.851|56=OrderAccumulator|98=0|108=30|10=158|
20250619-14:51:32.883 : 8=FIX.4.4|9=87|35=A|34=377|49=OrderGenerator|52=20250619-14:51:32.883|56=OrderAccumulator|98=0|108=30|10=160|
20250619-14:51:37.923 : 8=FIX.4.4|9=87|35=A|34=378|49=OrderGenerator|52=20250619-14:51:37.922|56=OrderAccumulator|98=0|108=30|10=160|
20250619-14:51:42.956 : 8=FIX.4.4|9=87|35=A|34=379|49=OrderGenerator|52=20250619-14:51:42.956|56=OrderAccumulator|98=0|108=30|10=164|
20250619-14:51:47.990 : 8=FIX.4.4|9=87|35=A|34=380|49=OrderGenerator|52=20250619-14:51:47.990|56=OrderAccumulator|98=0|108=30|10=159|
20250619-14:51:53.011 : 8=FIX.4.4|9=87|35=A|34=381|49=OrderGenerator|52=20250619-14:51:53.011|56=OrderAccumulator|98=0|108=30|10=141|
20250619-14:51:58.044 : 8=FIX.4.4|9=87|35=A|34=382|49=OrderGenerator|52=20250619-14:51:58.043|56=OrderAccumulator|98=0|108=30|10=152|
20250619-14:52:03.096 : 8=FIX.4.4|9=87|35=A|34=383|49=OrderGenerator|52=20250619-14:52:03.096|56=OrderAccumulator|98=0|108=30|10=152|
20250619-14:52:08.129 : 8=FIX.4.4|9=87|35=A|34=384|49=OrderGenerator|52=20250619-14:52:08.129|56=OrderAccumulator|98=0|108=30|10=155|
20250619-14:52:13.165 : 8=FIX.4.4|9=87|35=A|34=385|49=OrderGenerator|52=20250619-14:52:13.165|56=OrderAccumulator|98=0|108=30|10=152|
20250619-14:52:18.189 : 8=FIX.4.4|9=87|35=A|34=386|49=OrderGenerator|52=20250619-14:52:18.189|56=OrderAccumulator|98=0|108=30|10=164|
20250619-14:52:23.232 : 8=FIX.4.4|9=87|35=A|34=387|49=OrderGenerator|52=20250619-14:52:23.232|56=OrderAccumulator|98=0|108=30|10=150|
20250619-14:52:28.274 : 8=FIX.4.4|9=87|35=A|34=388|49=OrderGenerator|52=20250619-14:52:28.274|56=OrderAccumulator|98=0|108=30|10=162|
20250619-14:52:33.312 : 8=FIX.4.4|9=87|35=A|34=389|49=OrderGenerator|52=20250619-14:52:33.312|56=OrderAccumulator|98=0|108=30|10=152|
20250619-14:52:38.353 : 8=FIX.4.4|9=87|35=A|34=390|49=OrderGenerator|52=20250619-14:52:38.353|56=OrderAccumulator|98=0|108=30|10=154|
20250619-14:52:43.385 : 8=FIX.4.4|9=87|35=A|34=391|49=OrderGenerator|52=20250619-14:52:43.385|56=OrderAccumulator|98=0|108=30|10=156|
20250619-14:52:48.426 : 8=FIX.4.4|9=87|35=A|34=392|49=OrderGenerator|52=20250619-14:52:48.425|56=OrderAccumulator|98=0|108=30|10=157|
20250619-14:52:53.458 : 8=FIX.4.4|9=87|35=A|34=393|49=OrderGenerator|52=20250619-14:52:53.458|56=OrderAccumulator|98=0|108=30|10=160|
20250619-14:52:58.489 : 8=FIX.4.4|9=87|35=A|34=394|49=OrderGenerator|52=20250619-14:52:58.489|56=OrderAccumulator|98=0|108=30|10=170|
20250619-14:53:03.525 : 8=FIX.4.4|9=87|35=A|34=395|49=OrderGenerator|52=20250619-14:53:03.525|56=OrderAccumulator|98=0|108=30|10=153|
20250619-14:53:08.561 : 8=FIX.4.4|9=87|35=A|34=396|49=OrderGenerator|52=20250619-14:53:08.561|56=OrderAccumulator|98=0|108=30|10=159|
20250619-14:53:13.582 : 8=FIX.4.4|9=87|35=A|34=397|49=OrderGenerator|52=20250619-14:53:13.582|56=OrderAccumulator|98=0|108=30|10=159|
20250619-14:53:18.608 : 8=FIX.4.4|9=87|35=A|34=398|49=OrderGenerator|52=20250619-14:53:18.608|56=OrderAccumulator|98=0|108=30|10=164|
20250619-14:53:23.647 : 8=FIX.4.4|9=87|35=A|34=399|49=OrderGenerator|52=20250619-14:53:23.647|56=OrderAccumulator|98=0|108=30|10=164|
20250619-14:53:28.688 : 8=FIX.4.4|9=87|35=A|34=400|49=OrderGenerator|52=20250619-14:53:28.688|56=OrderAccumulator|98=0|108=30|10=157|
20250619-14:53:33.732 : 8=FIX.4.4|9=87|35=A|34=401|49=OrderGenerator|52=20250619-14:53:33.732|56=OrderAccumulator|98=0|108=30|10=144|
20250619-14:53:38.759 : 8=FIX.4.4|9=87|35=A|34=402|49=OrderGenerator|52=20250619-14:53:38.759|56=OrderAccumulator|98=0|108=30|10=159|
20250619-14:53:43.786 : 8=FIX.4.4|9=87|35=A|34=403|49=OrderGenerator|52=20250619-14:53:43.786|56=OrderAccumulator|98=0|108=30|10=156|
20250619-14:53:48.815 : 8=FIX.4.4|9=87|35=A|34=404|49=OrderGenerator|52=20250619-14:53:48.814|56=OrderAccumulator|98=0|108=30|10=154|
20250619-14:53:53.850 : 8=FIX.4.4|9=87|35=A|34=405|49=OrderGenerator|52=20250619-14:53:53.850|56=OrderAccumulator|98=0|108=30|10=151|
20250619-14:53:58.871 : 8=FIX.4.4|9=87|35=A|34=406|49=OrderGenerator|52=20250619-14:53:58.871|56=OrderAccumulator|98=0|108=30|10=160|
20250619-14:54:03.914 : 8=FIX.4.4|9=87|35=A|34=407|49=OrderGenerator|52=20250619-14:54:03.914|56=OrderAccumulator|98=0|108=30|10=150|
20250619-14:54:08.960 : 8=FIX.4.4|9=87|35=A|34=408|49=OrderGenerator|52=20250619-14:54:08.960|56=OrderAccumulator|98=0|108=30|10=157|
20250619-14:54:13.986 : 8=FIX.4.4|9=87|35=A|34=409|49=OrderGenerator|52=20250619-14:54:13.986|56=OrderAccumulator|98=0|108=30|10=162|
20250619-14:54:19.029 : 8=FIX.4.4|9=87|35=A|34=410|49=OrderGenerator|52=20250619-14:54:19.028|56=OrderAccumulator|98=0|108=30|10=147|
20250619-14:54:24.063 : 8=FIX.4.4|9=87|35=A|34=411|49=OrderGenerator|52=20250619-14:54:24.062|56=OrderAccumulator|98=0|108=30|10=142|
20250619-14:54:29.095 : 8=FIX.4.4|9=87|35=A|34=412|49=OrderGenerator|52=20250619-14:54:29.095|56=OrderAccumulator|98=0|108=30|10=154|
20250619-14:54:34.135 : 8=FIX.4.4|9=87|35=A|34=413|49=OrderGenerator|52=20250619-14:54:34.135|56=OrderAccumulator|98=0|108=30|10=146|
20250619-14:54:39.158 : 8=FIX.4.4|9=87|35=A|34=414|49=OrderGenerator|52=20250619-14:54:39.158|56=OrderAccumulator|98=0|108=30|10=157|
20250619-14:54:44.195 : 8=FIX.4.4|9=87|35=A|34=415|49=OrderGenerator|52=20250619-14:54:44.195|56=OrderAccumulator|98=0|108=30|10=155|
20250619-14:54:49.225 : 8=FIX.4.4|9=87|35=A|34=416|49=OrderGenerator|52=20250619-14:54:49.225|56=OrderAccumulator|98=0|108=30|10=155|
20250619-14:54:54.262 : 8=FIX.4.4|9=87|35=A|34=417|49=OrderGenerator|52=20250619-14:54:54.262|56=OrderAccumulator|98=0|108=30|10=153|
20250619-14:54:59.300 : 8=FIX.4.4|9=87|35=A|34=418|49=OrderGenerator|52=20250619-14:54:59.300|56=OrderAccumulator|98=0|108=30|10=152|
20250619-14:55:04.324 : 8=FIX.4.4|9=87|35=A|34=419|49=OrderGenerator|52=20250619-14:55:04.324|56=OrderAccumulator|98=0|108=30|10=150|
20250619-14:55:09.354 : 8=FIX.4.4|9=87|35=A|34=420|49=OrderGenerator|52=20250619-14:55:09.354|56=OrderAccumulator|98=0|108=30|10=150|
20250619-14:55:14.387 : 8=FIX.4.4|9=87|35=A|34=421|49=OrderGenerator|52=20250619-14:55:14.387|56=OrderAccumulator|98=0|108=30|10=153|
20250619-14:55:19.419 : 8=FIX.4.4|9=87|35=A|34=422|49=OrderGenerator|52=20250619-14:55:19.419|56=OrderAccumulator|98=0|108=30|10=155|
20250619-14:55:24.444 : 8=FIX.4.4|9=87|35=A|34=423|49=OrderGenerator|52=20250619-14:55:24.443|56=OrderAccumulator|98=0|108=30|10=149|
20250619-14:55:29.480 : 8=FIX.4.4|9=87|35=A|34=424|49=OrderGenerator|52=20250619-14:55:29.480|56=OrderAccumulator|98=0|108=30|10=156|
20250619-14:55:34.515 : 8=FIX.4.4|9=87|35=A|34=425|49=OrderGenerator|52=20250619-14:55:34.514|56=OrderAccumulator|98=0|108=30|10=151|
20250619-14:55:39.550 : 8=FIX.4.4|9=87|35=A|34=426|49=OrderGenerator|52=20250619-14:55:39.550|56=OrderAccumulator|98=0|108=30|10=157|
20250619-14:55:44.578 : 8=FIX.4.4|9=87|35=A|34=427|49=OrderGenerator|52=20250619-14:55:44.578|56=OrderAccumulator|98=0|108=30|10=164|
20250619-14:55:49.601 : 8=FIX.4.4|9=87|35=A|34=428|49=OrderGenerator|52=20250619-14:55:49.601|56=OrderAccumulator|98=0|108=30|10=157|
20250619-14:55:54.638 : 8=FIX.4.4|9=87|35=A|34=429|49=OrderGenerator|52=20250619-14:55:54.638|56=OrderAccumulator|98=0|108=30|10=164|
20250619-14:55:59.673 : 8=FIX.4.4|9=87|35=A|34=430|49=OrderGenerator|52=20250619-14:55:59.673|56=OrderAccumulator|98=0|108=30|10=160|
20250619-14:56:04.717 : 8=FIX.4.4|9=87|35=A|34=431|49=OrderGenerator|52=20250619-14:56:04.717|56=OrderAccumulator|98=0|108=30|10=151|
20250619-14:56:09.753 : 8=FIX.4.4|9=87|35=A|34=432|49=OrderGenerator|52=20250619-14:56:09.753|56=OrderAccumulator|98=0|108=30|10=157|
20250619-14:56:14.795 : 8=FIX.4.4|9=87|35=A|34=433|49=OrderGenerator|52=20250619-14:56:14.795|56=OrderAccumulator|98=0|108=30|10=160|
20250619-14:56:19.819 : 8=FIX.4.4|9=87|35=A|34=434|49=OrderGenerator|52=20250619-14:56:19.819|56=OrderAccumulator|98=0|108=30|10=163|
20250619-14:56:24.868 : 8=FIX.4.4|9=87|35=A|34=435|49=OrderGenerator|52=20250619-14:56:24.868|56=OrderAccumulator|98=0|108=30|10=164|
20250619-14:56:29.895 : 8=FIX.4.4|9=87|35=A|34=436|49=OrderGenerator|52=20250619-14:56:29.895|56=OrderAccumulator|98=0|108=30|10=170|
20250619-14:56:34.940 : 8=FIX.4.4|9=87|35=A|34=437|49=OrderGenerator|52=20250619-14:56:34.940|56=OrderAccumulator|98=0|108=30|10=158|
20250619-14:56:39.970 : 8=FIX.4.4|9=87|35=A|34=438|49=OrderGenerator|52=20250619-14:56:39.970|56=OrderAccumulator|98=0|108=30|10=167|
20250619-14:56:45.002 : 8=FIX.4.4|9=87|35=A|34=439|49=OrderGenerator|52=20250619-14:56:45.002|56=OrderAccumulator|98=0|108=30|10=151|
20250619-14:56:50.022 : 8=FIX.4.4|9=87|35=A|34=440|49=OrderGenerator|52=20250619-14:56:50.022|56=OrderAccumulator|98=0|108=30|10=141|
20250619-14:56:55.081 : 8=FIX.4.4|9=87|35=A|34=441|49=OrderGenerator|52=20250619-14:56:55.081|56=OrderAccumulator|98=0|108=30|10=152|
20250619-14:57:00.113 : 8=FIX.4.4|9=87|35=A|34=442|49=OrderGenerator|52=20250619-14:57:00.113|56=OrderAccumulator|98=0|108=30|10=140|
20250619-14:57:05.132 : 8=FIX.4.4|9=87|35=A|34=443|49=OrderGenerator|52=20250619-14:57:05.132|56=OrderAccumulator|98=0|108=30|10=147|
20250619-14:57:10.169 : 8=FIX.4.4|9=87|35=A|34=444|49=OrderGenerator|52=20250619-14:57:10.169|56=OrderAccumulator|98=0|108=30|10=154|
20250619-14:57:15.208 : 8=FIX.4.4|9=87|35=A|34=445|49=OrderGenerator|52=20250619-14:57:15.208|56=OrderAccumulator|98=0|108=30|10=154|
20250619-14:57:20.255 : 8=FIX.4.4|9=87|35=A|34=446|49=OrderGenerator|52=20250619-14:57:20.255|56=OrderAccumulator|98=0|108=30|10=153|
20250619-14:57:25.288 : 8=FIX.4.4|9=87|35=A|34=447|49=OrderGenerator|52=20250619-14:57:25.288|56=OrderAccumulator|98=0|108=30|10=165|
20250619-14:57:30.310 : 8=FIX.4.4|9=87|35=A|34=448|49=OrderGenerator|52=20250619-14:57:30.310|56=OrderAccumulator|98=0|108=30|10=148|
20250619-14:57:35.345 : 8=FIX.4.4|9=87|35=A|34=449|49=OrderGenerator|52=20250619-14:57:35.345|56=OrderAccumulator|98=0|108=30|10=162|
20250619-14:57:40.391 : 8=FIX.4.4|9=87|35=A|34=450|49=OrderGenerator|52=20250619-14:57:40.391|56=OrderAccumulator|98=0|108=30|10=151|
20250619-14:57:45.418 : 8=FIX.4.4|9=87|35=A|34=451|49=OrderGenerator|52=20250619-14:57:45.418|56=OrderAccumulator|98=0|108=30|10=157|
20250619-14:57:50.446 : 8=FIX.4.4|9=87|35=A|34=452|49=OrderGenerator|52=20250619-14:57:50.446|56=OrderAccumulator|98=0|108=30|10=155|
20250619-14:57:55.471 : 8=FIX.4.4|9=87|35=A|34=453|49=OrderGenerator|52=20250619-14:57:55.471|56=OrderAccumulator|98=0|108=30|10=159|
20250619-14:58:00.494 : 8=FIX.4.4|9=87|35=A|34=454|49=OrderGenerator|52=20250619-14:58:00.494|56=OrderAccumulator|98=0|108=30|10=156|
20250619-14:58:05.527 : 8=FIX.4.4|9=87|35=A|34=455|49=OrderGenerator|52=20250619-14:58:05.527|56=OrderAccumulator|98=0|108=30|10=159|
20250619-14:58:10.577 : 8=FIX.4.4|9=87|35=A|34=456|49=OrderGenerator|52=20250619-14:58:10.577|56=OrderAccumulator|98=0|108=30|10=161|
20250619-14:58:15.615 : 8=FIX.4.4|9=87|35=A|34=457|49=OrderGenerator|52=20250619-14:58:15.615|56=OrderAccumulator|98=0|108=30|10=160|
20250619-14:58:20.647 : 8=FIX.4.4|9=87|35=A|34=458|49=OrderGenerator|52=20250619-14:58:20.647|56=OrderAccumulator|98=0|108=30|10=162|
20250619-14:58:25.683 : 8=FIX.4.4|9=87|35=A|34=459|49=OrderGenerator|52=20250619-14:58:25.683|56=OrderAccumulator|98=0|108=30|10=168|
20250619-14:58:30.710 : 8=FIX.4.4|9=87|35=A|34=460|49=OrderGenerator|52=20250619-14:58:30.710|56=OrderAccumulator|98=0|108=30|10=147|
20250619-14:58:35.737 : 8=FIX.4.4|9=87|35=A|34=461|49=OrderGenerator|52=20250619-14:58:35.737|56=OrderAccumulator|98=0|108=30|10=162|
20250619-14:58:40.768 : 8=FIX.4.4|9=87|35=A|34=462|49=OrderGenerator|52=20250619-14:58:40.768|56=OrderAccumulator|98=0|108=30|10=163|
20250619-14:58:45.813 : 8=FIX.4.4|9=87|35=A|34=463|49=OrderGenerator|52=20250619-14:58:45.813|56=OrderAccumulator|98=0|108=30|10=160|
20250619-14:58:50.855 : 8=FIX.4.4|9=87|35=A|34=464|49=OrderGenerator|52=20250619-14:58:50.855|56=OrderAccumulator|98=0|108=30|10=163|
20250619-14:58:55.879 : 8=FIX.4.4|9=87|35=A|34=465|49=OrderGenerator|52=20250619-14:58:55.879|56=OrderAccumulator|98=0|108=30|10=175|
20250619-14:59:00.906 : 8=FIX.4.4|9=87|35=A|34=466|49=OrderGenerator|52=20250619-14:59:00.906|56=OrderAccumulator|98=0|108=30|10=158|
20250619-14:59:05.939 : 8=FIX.4.4|9=87|35=A|34=467|49=OrderGenerator|52=20250619-14:59:05.939|56=OrderAccumulator|98=0|108=30|10=170|
20250619-14:59:10.974 : 8=FIX.4.4|9=87|35=A|34=468|49=OrderGenerator|52=20250619-14:59:10.974|56=OrderAccumulator|98=0|108=30|10=166|
20250619-14:59:16.002 : 8=FIX.4.4|9=87|35=A|34=469|49=OrderGenerator|52=20250619-14:59:16.002|56=OrderAccumulator|98=0|108=30|10=155|
20250619-14:59:21.037 : 8=FIX.4.4|9=87|35=A|34=470|49=OrderGenerator|52=20250619-14:59:21.037|56=OrderAccumulator|98=0|108=30|10=151|
20250619-14:59:26.064 : 8=FIX.4.4|9=87|35=A|34=471|49=OrderGenerator|52=20250619-14:59:26.064|56=OrderAccumulator|98=0|108=30|10=157|
20250619-14:59:31.100 : 8=FIX.4.4|9=87|35=A|34=472|49=OrderGenerator|52=20250619-14:59:31.099|56=OrderAccumulator|98=0|108=30|10=162|
20250619-14:59:36.137 : 8=FIX.4.4|9=87|35=A|34=473|49=OrderGenerator|52=20250619-14:59:36.136|56=OrderAccumulator|98=0|108=30|10=160|
20250619-14:59:41.164 : 8=FIX.4.4|9=87|35=A|34=474|49=OrderGenerator|52=20250619-14:59:41.164|56=OrderAccumulator|98=0|108=30|10=158|
20250619-14:59:46.189 : 8=FIX.4.4|9=87|35=A|34=475|49=OrderGenerator|52=20250619-14:59:46.188|56=OrderAccumulator|98=0|108=30|10=170|
20250619-14:59:51.210 : 8=FIX.4.4|9=87|35=A|34=476|49=OrderGenerator|52=20250619-14:59:51.210|56=OrderAccumulator|98=0|108=30|10=153|
20250619-14:59:56.233 : 8=FIX.4.4|9=87|35=A|34=477|49=OrderGenerator|52=20250619-14:59:56.233|56=OrderAccumulator|98=0|108=30|10=164|
20250619-15:00:01.265 : 8=FIX.4.4|9=87|35=A|34=478|49=OrderGenerator|52=20250619-15:00:01.264|56=OrderAccumulator|98=0|108=30|10=146|
20250619-15:00:06.295 : 8=FIX.4.4|9=87|35=A|34=479|49=OrderGenerator|52=20250619-15:00:06.295|56=OrderAccumulator|98=0|108=30|10=156|
20250619-15:00:11.325 : 8=FIX.4.4|9=87|35=A|34=480|49=OrderGenerator|52=20250619-15:00:11.325|56=OrderAccumulator|98=0|108=30|10=138|
20250619-15:00:16.355 : 8=FIX.4.4|9=87|35=A|34=481|49=OrderGenerator|52=20250619-15:00:16.355|56=OrderAccumulator|98=0|108=30|10=147|
20250619-15:00:21.390 : 8=FIX.4.4|9=87|35=A|34=482|49=OrderGenerator|52=20250619-15:00:21.390|56=OrderAccumulator|98=0|108=30|10=143|
20250619-15:00:26.415 : 8=FIX.4.4|9=87|35=A|34=483|49=OrderGenerator|52=20250619-15:00:26.415|56=OrderAccumulator|98=0|108=30|10=147|
20250619-15:00:31.438 : 8=FIX.4.4|9=87|35=A|34=484|49=OrderGenerator|52=20250619-15:00:31.438|56=OrderAccumulator|98=0|108=30|10=149|
20250619-15:00:36.462 : 8=FIX.4.4|9=87|35=A|34=485|49=OrderGenerator|52=20250619-15:00:36.462|56=OrderAccumulator|98=0|108=30|10=152|
20250619-15:00:41.497 : 8=FIX.4.4|9=87|35=A|34=486|49=OrderGenerator|52=20250619-15:00:41.497|56=OrderAccumulator|98=0|108=30|10=157|
20250619-15:00:46.530 : 8=FIX.4.4|9=87|35=A|34=487|49=OrderGenerator|52=20250619-15:00:46.530|56=OrderAccumulator|98=0|108=30|10=151|
20250619-15:00:51.559 : 8=FIX.4.4|9=87|35=A|34=488|49=OrderGenerator|52=20250619-15:00:51.559|56=OrderAccumulator|98=0|108=30|10=159|
20250619-15:00:56.588 : 8=FIX.4.4|9=87|35=A|34=489|49=OrderGenerator|52=20250619-15:00:56.588|56=OrderAccumulator|98=0|108=30|10=167|
20250619-15:01:01.618 : 8=FIX.4.4|9=87|35=A|34=490|49=OrderGenerator|52=20250619-15:01:01.618|56=OrderAccumulator|98=0|108=30|10=144|
20250619-15:01:06.657 : 8=FIX.4.4|9=87|35=A|34=491|49=OrderGenerator|52=20250619-15:01:06.657|56=OrderAccumulator|98=0|108=30|10=153|
20250619-15:01:11.701 : 8=FIX.4.4|9=87|35=A|34=492|49=OrderGenerator|52=20250619-15:01:11.701|56=OrderAccumulator|98=0|108=30|10=140|
20250619-15:01:16.735 : 8=FIX.4.4|9=87|35=A|34=493|49=OrderGenerator|52=20250619-15:01:16.734|56=OrderAccumulator|98=0|108=30|10=152|
20250619-15:01:21.761 : 8=FIX.4.4|9=87|35=A|34=494|49=OrderGenerator|52=20250619-15:01:21.761|56=OrderAccumulator|98=0|108=30|10=149|
20250619-15:01:26.794 : 8=FIX.4.4|9=87|35=A|34=495|49=OrderGenerator|52=20250619-15:01:26.794|56=OrderAccumulator|98=0|108=30|10=161|
20250619-15:01:31.831 : 8=FIX.4.4|9=87|35=A|34=496|49=OrderGenerator|52=20250619-15:01:31.831|56=OrderAccumulator|98=0|108=30|10=150|
20250619-15:01:36.862 : 8=FIX.4.4|9=87|35=A|34=497|49=OrderGenerator|52=20250619-15:01:36.862|56=OrderAccumulator|98=0|108=30|10=160|
20250619-15:01:41.894 : 8=FIX.4.4|9=87|35=A|34=498|49=OrderGenerator|52=20250619-15:01:41.894|56=OrderAccumulator|98=0|108=30|10=162|
20250619-15:01:46.923 : 8=FIX.4.4|9=87|35=A|34=499|49=OrderGenerator|52=20250619-15:01:46.923|56=OrderAccumulator|98=0|108=30|10=161|
20250619-15:01:51.945 : 8=FIX.4.4|9=87|35=A|34=500|49=OrderGenerator|52=20250619-15:01:51.945|56=OrderAccumulator|98=0|108=30|10=144|
20250619-15:01:56.971 : 8=FIX.4.4|9=87|35=A|34=501|49=OrderGenerator|52=20250619-15:01:56.971|56=OrderAccumulator|98=0|108=30|10=149|
20250619-15:02:01.998 : 8=FIX.4.4|9=87|35=A|34=502|49=OrderGenerator|52=20250619-15:02:01.998|56=OrderAccumulator|98=0|108=30|10=150|
20250619-15:02:07.024 : 8=FIX.4.4|9=87|35=A|34=503|49=OrderGenerator|52=20250619-15:02:07.024|56=OrderAccumulator|98=0|108=30|10=137|
20250619-15:02:12.067 : 8=FIX.4.4|9=87|35=A|34=504|49=OrderGenerator|52=20250619-15:02:12.067|56=OrderAccumulator|98=0|108=30|10=141|
20250619-15:02:17.100 : 8=FIX.4.4|9=87|35=A|34=505|49=OrderGenerator|52=20250619-15:02:17.100|56=OrderAccumulator|98=0|108=30|10=135|
20250619-15:02:22.127 : 8=FIX.4.4|9=87|35=A|34=506|49=OrderGenerator|52=20250619-15:02:22.127|56=OrderAccumulator|98=0|108=30|10=141|
20250619-15:02:27.156 : 8=FIX.4.4|9=87|35=A|34=507|49=OrderGenerator|52=20250619-15:02:27.156|56=OrderAccumulator|98=0|108=30|10=149|
20250619-15:02:32.186 : 8=FIX.4.4|9=87|35=A|34=508|49=OrderGenerator|52=20250619-15:02:32.186|56=OrderAccumulator|98=0|108=30|10=149|
20250619-15:02:37.232 : 8=FIX.4.4|9=87|35=A|34=509|49=OrderGenerator|52=20250619-15:02:37.232|56=OrderAccumulator|98=0|108=30|10=147|
20250619-15:02:42.268 : 8=FIX.4.4|9=87|35=A|34=510|49=OrderGenerator|52=20250619-15:02:42.268|56=OrderAccumulator|98=0|108=30|10=144|
20250619-15:02:47.294 : 8=FIX.4.4|9=87|35=A|34=511|49=OrderGenerator|52=20250619-15:02:47.294|56=OrderAccumulator|98=0|108=30|10=149|
20250619-15:02:52.339 : 8=FIX.4.4|9=87|35=A|34=512|49=OrderGenerator|52=20250619-15:02:52.339|56=OrderAccumulator|98=0|108=30|10=146|
20250619-15:02:57.360 : 8=FIX.4.4|9=87|35=A|34=513|49=OrderGenerator|52=20250619-15:02:57.360|56=OrderAccumulator|98=0|108=30|10=146|
20250619-15:03:02.393 : 8=FIX.4.4|9=87|35=A|34=514|49=OrderGenerator|52=20250619-15:03:02.393|56=OrderAccumulator|98=0|108=30|10=144|
20250619-15:03:07.429 : 8=FIX.4.4|9=87|35=A|34=515|49=OrderGenerator|52=20250619-15:03:07.429|56=OrderAccumulator|98=0|108=30|10=150|
20250619-15:03:12.458 : 8=FIX.4.4|9=87|35=A|34=516|49=OrderGenerator|52=20250619-15:03:12.458|56=OrderAccumulator|98=0|108=30|10=149|
20250619-15:03:17.497 : 8=FIX.4.4|9=87|35=A|34=517|49=OrderGenerator|52=20250619-15:03:17.497|56=OrderAccumulator|98=0|108=30|10=158|
20250619-15:03:22.525 : 8=FIX.4.4|9=87|35=A|34=518|49=OrderGenerator|52=20250619-15:03:22.525|56=OrderAccumulator|98=0|108=30|10=147|
20250619-15:03:27.558 : 8=FIX.4.4|9=87|35=A|34=519|49=OrderGenerator|52=20250619-15:03:27.557|56=OrderAccumulator|98=0|108=30|10=158|
20250619-15:03:32.585 : 8=FIX.4.4|9=87|35=A|34=520|49=OrderGenerator|52=20250619-15:03:32.585|56=OrderAccumulator|98=0|108=30|10=147|
20250619-15:03:37.610 : 8=FIX.4.4|9=87|35=A|34=521|49=OrderGenerator|52=20250619-15:03:37.610|56=OrderAccumulator|98=0|108=30|10=142|
20250619-15:03:42.655 : 8=FIX.4.4|9=87|35=A|34=522|49=OrderGenerator|52=20250619-15:03:42.655|56=OrderAccumulator|98=0|108=30|10=148|
20250619-15:03:47.679 : 8=FIX.4.4|9=87|35=A|34=523|49=OrderGenerator|52=20250619-15:03:47.679|56=OrderAccumulator|98=0|108=30|10=160|
20250619-15:03:52.711 : 8=FIX.4.4|9=87|35=A|34=524|49=OrderGenerator|52=20250619-15:03:52.711|56=OrderAccumulator|98=0|108=30|10=144|
20250619-15:03:57.757 : 8=FIX.4.4|9=87|35=A|34=525|49=OrderGenerator|52=20250619-15:03:57.757|56=OrderAccumulator|98=0|108=30|10=160|
20250619-15:04:02.786 : 8=FIX.4.4|9=87|35=A|34=526|49=OrderGenerator|52=20250619-15:04:02.785|56=OrderAccumulator|98=0|108=30|10=153|
20250619-15:04:07.824 : 8=FIX.4.4|9=87|35=A|34=527|49=OrderGenerator|52=20250619-15:04:07.824|56=OrderAccumulator|98=0|108=30|10=153|
20250619-15:04:12.852 : 8=FIX.4.4|9=87|35=A|34=528|49=OrderGenerator|52=20250619-15:04:12.851|56=OrderAccumulator|98=0|108=30|10=150|
20250619-15:04:17.888 : 8=FIX.4.4|9=87|35=A|34=529|49=OrderGenerator|52=20250619-15:04:17.888|56=OrderAccumulator|98=0|108=30|10=166|
20250619-15:04:22.928 : 8=FIX.4.4|9=87|35=A|34=530|49=OrderGenerator|52=20250619-15:04:22.928|56=OrderAccumulator|98=0|108=30|10=149|
20250619-15:04:27.952 : 8=FIX.4.4|9=87|35=A|34=531|49=OrderGenerator|52=20250619-15:04:27.952|56=OrderAccumulator|98=0|108=30|10=152|
20250619-15:04:33.000 : 8=FIX.4.4|9=87|35=A|34=532|49=OrderGenerator|52=20250619-15:04:33.000|56=OrderAccumulator|98=0|108=30|10=134|
20250619-15:04:38.017 : 8=FIX.4.4|9=87|35=A|34=533|49=OrderGenerator|52=20250619-15:04:38.017|56=OrderAccumulator|98=0|108=30|10=148|
20250619-15:04:43.040 : 8=FIX.4.4|9=87|35=A|34=534|49=OrderGenerator|52=20250619-15:04:43.039|56=OrderAccumulator|98=0|108=30|10=149|
20250619-15:04:48.069 : 8=FIX.4.4|9=87|35=A|34=535|49=OrderGenerator|52=20250619-15:04:48.069|56=OrderAccumulator|98=0|108=30|10=158|
20250619-15:04:53.106 : 8=FIX.4.4|9=87|35=A|34=536|49=OrderGenerator|52=20250619-15:04:53.106|56=OrderAccumulator|98=0|108=30|10=147|
20250619-15:04:58.138 : 8=FIX.4.4|9=87|35=A|34=537|49=OrderGenerator|52=20250619-15:04:58.138|56=OrderAccumulator|98=0|108=30|10=158|
20250619-15:05:03.172 : 8=FIX.4.4|9=87|35=A|34=538|49=OrderGenerator|52=20250619-15:05:03.172|56=OrderAccumulator|98=0|108=30|10=148|
20250619-15:05:08.199 : 8=FIX.4.4|9=87|35=A|34=539|49=OrderGenerator|52=20250619-15:05:08.199|56=OrderAccumulator|98=0|108=30|10=163|
20250619-15:05:13.241 : 8=FIX.4.4|9=87|35=A|34=540|49=OrderGenerator|52=20250619-15:05:13.241|56=OrderAccumulator|98=0|108=30|10=139|
20250619-15:05:18.271 : 8=FIX.4.4|9=87|35=A|34=541|49=OrderGenerator|52=20250619-15:05:18.271|56=OrderAccumulator|98=0|108=30|10=148|
20250619-15:05:23.299 : 8=FIX.4.4|9=87|35=A|34=542|49=OrderGenerator|52=20250619-15:05:23.298|56=OrderAccumulator|98=0|108=30|10=154|
20250619-15:05:28.323 : 8=FIX.4.4|9=87|35=A|34=543|49=OrderGenerator|52=20250619-15:05:28.323|56=OrderAccumulator|98=0|108=30|10=149|
20250619-15:05:33.360 : 8=FIX.4.4|9=87|35=A|34=544|49=OrderGenerator|52=20250619-15:05:33.360|56=OrderAccumulator|98=0|108=30|10=147|
20250619-15:05:38.410 : 8=FIX.4.4|9=87|35=A|34=545|49=OrderGenerator|52=20250619-15:05:38.410|56=OrderAccumulator|98=0|108=30|10=149|
20250619-15:05:43.427 : 8=FIX.4.4|9=87|35=A|34=546|49=OrderGenerator|52=20250619-15:05:43.427|56=OrderAccumulator|98=0|108=30|10=154|
20250619-15:05:48.470 : 8=FIX.4.4|9=87|35=A|34=547|49=OrderGenerator|52=20250619-15:05:48.470|56=OrderAccumulator|98=0|108=30|10=158|
20250619-15:05:53.506 : 8=FIX.4.4|9=87|35=A|34=548|49=OrderGenerator|52=20250619-15:05:53.506|56=OrderAccumulator|98=0|108=30|10=155|
20250619-15:05:58.540 : 8=FIX.4.4|9=87|35=A|34=549|49=OrderGenerator|52=20250619-15:05:58.540|56=OrderAccumulator|98=0|108=30|10=159|
20250619-15:06:03.562 : 8=FIX.4.4|9=87|35=A|34=550|49=OrderGenerator|52=20250619-15:06:03.562|56=OrderAccumulator|98=0|108=30|10=146|
20250619-15:06:08.591 : 8=FIX.4.4|9=87|35=A|34=551|49=OrderGenerator|52=20250619-15:06:08.591|56=OrderAccumulator|98=0|108=30|10=154|
20250619-15:06:13.611 : 8=FIX.4.4|9=87|35=A|34=552|49=OrderGenerator|52=20250619-15:06:13.611|56=OrderAccumulator|98=0|108=30|10=144|
20250619-15:06:18.640 : 8=FIX.4.4|9=87|35=A|34=553|49=OrderGenerator|52=20250619-15:06:18.640|56=OrderAccumulator|98=0|108=30|10=152|
20250619-15:06:23.671 : 8=FIX.4.4|9=87|35=A|34=554|49=OrderGenerator|52=20250619-15:06:23.671|56=OrderAccumulator|98=0|108=30|10=153|
20250619-15:06:28.709 : 8=FIX.4.4|9=87|35=A|34=555|49=OrderGenerator|52=20250619-15:06:28.709|56=OrderAccumulator|98=0|108=30|10=161|
20250619-15:06:33.745 : 8=FIX.4.4|9=87|35=A|34=556|49=OrderGenerator|52=20250619-15:06:33.745|56=OrderAccumulator|98=0|108=30|10=158|
20250619-15:06:38.780 : 8=FIX.4.4|9=87|35=A|34=557|49=OrderGenerator|52=20250619-15:06:38.780|56=OrderAccumulator|98=0|108=30|10=163|
20250619-15:06:43.816 : 8=FIX.4.4|9=87|35=A|34=558|49=OrderGenerator|52=20250619-15:06:43.816|56=OrderAccumulator|98=0|108=30|10=160|
20250619-15:06:48.850 : 8=FIX.4.4|9=87|35=A|34=559|49=OrderGenerator|52=20250619-15:06:48.850|56=OrderAccumulator|98=0|108=30|10=164|
20250619-15:06:53.881 : 8=FIX.4.4|9=87|35=A|34=560|49=OrderGenerator|52=20250619-15:06:53.880|56=OrderAccumulator|98=0|108=30|10=155|
20250619-15:06:58.901 : 8=FIX.4.4|9=87|35=A|34=561|49=OrderGenerator|52=20250619-15:06:58.901|56=OrderAccumulator|98=0|108=30|10=155|
20250619-15:07:03.938 : 8=FIX.4.4|9=87|35=A|34=562|49=OrderGenerator|52=20250619-15:07:03.937|56=OrderAccumulator|98=0|108=30|10=156|
20250619-15:07:08.965 : 8=FIX.4.4|9=87|35=A|34=563|49=OrderGenerator|52=20250619-15:07:08.965|56=OrderAccumulator|98=0|108=30|10=163|
20250619-15:07:14.004 : 8=FIX.4.4|9=87|35=A|34=564|49=OrderGenerator|52=20250619-15:07:14.004|56=OrderAccumulator|98=0|108=30|10=145|
20250619-15:07:19.029 : 8=FIX.4.4|9=87|35=A|34=565|49=OrderGenerator|52=20250619-15:07:19.029|56=OrderAccumulator|98=0|108=30|10=158|
20250619-15:07:24.050 : 8=FIX.4.4|9=87|35=A|34=566|49=OrderGenerator|52=20250619-15:07:24.050|56=OrderAccumulator|98=0|108=30|10=149|
20250619-15:07:29.068 : 8=FIX.4.4|9=87|35=A|34=567|49=OrderGenerator|52=20250619-15:07:29.068|56=OrderAccumulator|98=0|108=30|10=164|
20250619-15:07:34.103 : 8=FIX.4.4|9=87|35=A|34=568|49=OrderGenerator|52=20250619-15:07:34.103|56=OrderAccumulator|98=0|108=30|10=151|
20250619-15:07:39.140 : 8=FIX.4.4|9=87|35=A|34=569|49=OrderGenerator|52=20250619-15:07:39.140|56=OrderAccumulator|98=0|108=30|10=158|
20250619-15:07:44.162 : 8=FIX.4.4|9=87|35=A|34=570|49=OrderGenerator|52=20250619-15:07:44.162|56=OrderAccumulator|98=0|108=30|10=150|
20250619-15:07:49.185 : 8=FIX.4.4|9=87|35=A|34=571|49=OrderGenerator|52=20250619-15:07:49.185|56=OrderAccumulator|98=0|108=30|10=161|
20250619-15:07:54.207 : 8=FIX.4.4|9=87|35=A|34=572|49=OrderGenerator|52=20250619-15:07:54.207|56=OrderAccumulator|98=0|108=30|10=153|
20250619-15:07:59.233 : 8=FIX.4.4|9=87|35=A|34=573|49=OrderGenerator|52=20250619-15:07:59.233|56=OrderAccumulator|98=0|108=30|10=158|
20250619-15:08:04.263 : 8=FIX.4.4|9=87|35=A|34=574|49=OrderGenerator|52=20250619-15:08:04.263|56=OrderAccumulator|98=0|108=30|10=153|
20250619-15:08:09.298 : 8=FIX.4.4|9=87|35=A|34=575|49=OrderGenerator|52=20250619-15:08:09.298|56=OrderAccumulator|98=0|108=30|10=167|
20250619-15:08:14.342 : 8=FIX.4.4|9=87|35=A|34=576|49=OrderGenerator|52=20250619-15:08:14.342|56=OrderAccumulator|98=0|108=30|10=154|
20250619-15:08:19.386 : 8=FIX.4.4|9=87|35=A|34=577|49=OrderGenerator|52=20250619-15:08:19.386|56=OrderAccumulator|98=0|108=30|10=168|
20250619-15:08:24.431 : 8=FIX.4.4|9=87|35=A|34=578|49=OrderGenerator|52=20250619-15:08:24.431|56=OrderAccumulator|98=0|108=30|10=156|
20250619-15:08:29.465 : 8=FIX.4.4|9=87|35=A|34=579|49=OrderGenerator|52=20250619-15:08:29.465|56=OrderAccumulator|98=0|108=30|10=169|
20250619-15:08:34.492 : 8=FIX.4.4|9=87|35=A|34=580|49=OrderGenerator|52=20250619-15:08:34.492|56=OrderAccumulator|98=0|108=30|10=157|
20250619-15:08:39.524 : 8=FIX.4.4|9=87|35=A|34=581|49=OrderGenerator|52=20250619-15:08:39.524|56=OrderAccumulator|98=0|108=30|10=159|
20250619-15:08:44.552 : 8=FIX.4.4|9=87|35=A|34=582|49=OrderGenerator|52=20250619-15:08:44.552|56=OrderAccumulator|98=0|108=30|10=157|
20250619-15:08:49.591 : 8=FIX.4.4|9=87|35=A|34=583|49=OrderGenerator|52=20250619-15:08:49.591|56=OrderAccumulator|98=0|108=30|10=166|
20250619-15:08:54.628 : 8=FIX.4.4|9=87|35=A|34=584|49=OrderGenerator|52=20250619-15:08:54.628|56=OrderAccumulator|98=0|108=30|10=164|
20250619-15:08:59.663 : 8=FIX.4.4|9=87|35=A|34=585|49=OrderGenerator|52=20250619-15:08:59.663|56=OrderAccumulator|98=0|108=30|10=169|
20250619-15:09:04.698 : 8=FIX.4.4|9=87|35=A|34=586|49=OrderGenerator|52=20250619-15:09:04.698|56=OrderAccumulator|98=0|108=30|10=169|
20250619-15:09:09.723 : 8=FIX.4.4|9=87|35=A|34=587|49=OrderGenerator|52=20250619-15:09:09.723|56=OrderAccumulator|98=0|108=30|10=164|
20250619-15:09:14.746 : 8=FIX.4.4|9=87|35=A|34=588|49=OrderGenerator|52=20250619-15:09:14.746|56=OrderAccumulator|98=0|108=30|10=166|
20250619-15:09:19.773 : 8=FIX.4.4|9=87|35=A|34=589|49=OrderGenerator|52=20250619-15:09:19.773|56=OrderAccumulator|98=0|108=30|10=172|
20250619-15:09:24.803 : 8=FIX.4.4|9=87|35=A|34=590|49=OrderGenerator|52=20250619-15:09:24.803|56=OrderAccumulator|98=0|108=30|10=154|
20250619-15:09:29.834 : 8=FIX.4.4|9=87|35=A|34=591|49=OrderGenerator|52=20250619-15:09:29.834|56=OrderAccumulator|98=0|108=30|10=164|
20250619-15:09:34.868 : 8=FIX.4.4|9=87|35=A|34=592|49=OrderGenerator|52=20250619-15:09:34.868|56=OrderAccumulator|98=0|108=30|10=168|
20250619-15:09:39.890 : 8=FIX.4.4|9=87|35=A|34=593|49=OrderGenerator|52=20250619-15:09:39.890|56=OrderAccumulator|98=0|108=30|10=169|
20250619-15:09:44.924 : 8=FIX.4.4|9=87|35=A|34=594|49=OrderGenerator|52=20250619-15:09:44.924|56=OrderAccumulator|98=0|108=30|10=164|
20250619-15:09:49.963 : 8=FIX.4.4|9=87|35=A|34=595|49=OrderGenerator|52=20250619-15:09:49.963|56=OrderAccumulator|98=0|108=30|10=173|
20250619-15:09:55.005 : 8=FIX.4.4|9=87|35=A|34=596|49=OrderGenerator|52=20250619-15:09:55.005|56=OrderAccumulator|98=0|108=30|10=158|
20250619-15:10:00.053 : 8=FIX.4.4|9=87|35=A|34=597|49=OrderGenerator|52=20250619-15:10:00.053|56=OrderAccumulator|98=0|108=30|10=144|
20250619-15:10:05.076 : 8=FIX.4.4|9=87|35=A|34=598|49=OrderGenerator|52=20250619-15:10:05.076|56=OrderAccumulator|98=0|108=30|10=155|
20250619-15:10:10.117 : 8=FIX.4.4|9=87|35=A|34=599|49=OrderGenerator|52=20250619-15:10:10.117|56=OrderAccumulator|98=0|108=30|10=148|
20250619-15:10:15.158 : 8=FIX.4.4|9=87|35=A|34=600|49=OrderGenerator|52=20250619-15:10:15.158|56=OrderAccumulator|98=0|108=30|10=141|
20250619-15:10:20.187 : 8=FIX.4.4|9=87|35=A|34=601|49=OrderGenerator|52=20250619-15:10:20.187|56=OrderAccumulator|98=0|108=30|10=140|
20250619-15:10:25.240 : 8=FIX.4.4|9=87|35=A|34=602|49=OrderGenerator|52=20250619-15:10:25.239|56=OrderAccumulator|98=0|108=30|10=144|
20250619-15:10:30.284 : 8=FIX.4.4|9=87|35=A|34=603|49=OrderGenerator|52=20250619-15:10:30.278|56=OrderAccumulator|98=0|108=30|10=144|
20250619-15:10:35.317 : 8=FIX.4.4|9=87|35=A|34=604|49=OrderGenerator|52=20250619-15:10:35.317|56=OrderAccumulator|98=0|108=30|10=144|
20250619-15:10:40.367 : 8=FIX.4.4|9=87|35=A|34=605|49=OrderGenerator|52=20250619-15:10:40.367|56=OrderAccumulator|98=0|108=30|10=146|
20250619-15:10:45.403 : 8=FIX.4.4|9=87|35=A|34=606|49=OrderGenerator|52=20250619-15:10:45.403|56=OrderAccumulator|98=0|108=30|10=143|
20250619-15:10:50.435 : 8=FIX.4.4|9=87|35=A|34=607|49=OrderGenerator|52=20250619-15:10:50.435|56=OrderAccumulator|98=0|108=30|10=145|
20250619-15:10:55.476 : 8=FIX.4.4|9=87|35=A|34=608|49=OrderGenerator|52=20250619-15:10:55.475|56=OrderAccumulator|98=0|108=30|10=155|
20250619-15:11:00.516 : 8=FIX.4.4|9=87|35=A|34=609|49=OrderGenerator|52=20250619-15:11:00.516|56=OrderAccumulator|98=0|108=30|10=143|
20250619-15:11:05.544 : 8=FIX.4.4|9=87|35=A|34=610|49=OrderGenerator|52=20250619-15:11:05.544|56=OrderAccumulator|98=0|108=30|10=141|
20250619-15:11:10.571 : 8=FIX.4.4|9=87|35=A|34=611|49=OrderGenerator|52=20250619-15:11:10.571|56=OrderAccumulator|98=0|108=30|10=138|
20250619-15:11:15.607 : 8=FIX.4.4|9=87|35=A|34=612|49=OrderGenerator|52=20250619-15:11:15.607|56=OrderAccumulator|98=0|108=30|10=144|
20250619-15:11:20.645 : 8=FIX.4.4|9=87|35=A|34=613|49=OrderGenerator|52=20250619-15:11:20.644|56=OrderAccumulator|98=0|108=30|10=142|
20250619-15:11:25.683 : 8=FIX.4.4|9=87|35=A|34=614|49=OrderGenerator|52=20250619-15:11:25.683|56=OrderAccumulator|98=0|108=30|10=151|
20250619-15:11:30.736 : 8=FIX.4.4|9=87|35=A|34=615|49=OrderGenerator|52=20250619-15:11:30.736|56=OrderAccumulator|98=0|108=30|10=147|
20250619-15:11:35.760 : 8=FIX.4.4|9=87|35=A|34=616|49=OrderGenerator|52=20250619-15:11:35.760|56=OrderAccumulator|98=0|108=30|10=150|
20250619-15:11:40.785 : 8=FIX.4.4|9=87|35=A|34=617|49=OrderGenerator|52=20250619-15:11:40.785|56=OrderAccumulator|98=0|108=30|10=154|
20250619-15:11:45.817 : 8=FIX.4.4|9=87|35=A|34=618|49=OrderGenerator|52=20250619-15:11:45.817|56=OrderAccumulator|98=0|108=30|10=156|
20250619-15:11:50.845 : 8=FIX.4.4|9=87|35=A|34=619|49=OrderGenerator|52=20250619-15:11:50.845|56=OrderAccumulator|98=0|108=30|10=154|
20250619-15:11:55.883 : 8=FIX.4.4|9=87|35=A|34=620|49=OrderGenerator|52=20250619-15:11:55.883|56=OrderAccumulator|98=0|108=30|10=153|
20250619-15:12:00.932 : 8=FIX.4.4|9=87|35=A|34=621|49=OrderGenerator|52=20250619-15:12:00.932|56=OrderAccumulator|98=0|108=30|10=140|
20250619-15:12:05.967 : 8=FIX.4.4|9=87|35=A|34=622|49=OrderGenerator|52=20250619-15:12:05.967|56=OrderAccumulator|98=0|108=30|10=154|
20250619-15:12:11.003 : 8=FIX.4.4|9=87|35=A|34=623|49=OrderGenerator|52=20250619-15:12:11.003|56=OrderAccumulator|98=0|108=30|10=133|
20250619-15:12:16.041 : 8=FIX.4.4|9=87|35=A|34=624|49=OrderGenerator|52=20250619-15:12:16.041|56=OrderAccumulator|98=0|108=30|10=141|
20250619-15:12:21.061 : 8=FIX.4.4|9=87|35=A|34=625|49=OrderGenerator|52=20250619-15:12:21.061|56=OrderAccumulator|98=0|108=30|10=140|
20250619-15:12:26.087 : 8=FIX.4.4|9=87|35=A|34=626|49=OrderGenerator|52=20250619-15:12:26.086|56=OrderAccumulator|98=0|108=30|10=153|
20250619-15:12:31.112 : 8=FIX.4.4|9=87|35=A|34=627|49=OrderGenerator|52=20250619-15:12:31.112|56=OrderAccumulator|98=0|108=30|10=140|
20250619-15:12:36.166 : 8=FIX.4.4|9=87|35=A|34=628|49=OrderGenerator|52=20250619-15:12:36.165|56=OrderAccumulator|98=0|108=30|10=154|
20250619-15:12:41.208 : 8=FIX.4.4|9=87|35=A|34=629|49=OrderGenerator|52=20250619-15:12:41.208|56=OrderAccumulator|98=0|108=30|10=149|
20250619-15:12:46.253 : 8=FIX.4.4|9=87|35=A|34=630|49=OrderGenerator|52=20250619-15:12:46.253|56=OrderAccumulator|98=0|108=30|10=146|
20250619-15:12:51.288 : 8=FIX.4.4|9=87|35=A|34=631|49=OrderGenerator|52=20250619-15:12:51.288|56=OrderAccumulator|98=0|108=30|10=151|
20250619-15:12:56.322 : 8=FIX.4.4|9=87|35=A|34=632|49=OrderGenerator|52=20250619-15:12:56.322|56=OrderAccumulator|98=0|108=30|10=146|
20250619-15:13:01.349 : 8=FIX.4.4|9=87|35=A|34=633|49=OrderGenerator|52=20250619-15:13:01.349|56=OrderAccumulator|98=0|108=30|10=147|
20250619-15:13:06.375 : 8=FIX.4.4|9=87|35=A|34=634|49=OrderGenerator|52=20250619-15:13:06.375|56=OrderAccumulator|98=0|108=30|10=152|
20250619-15:13:11.397 : 8=FIX.4.4|9=87|35=A|34=635|49=OrderGenerator|52=20250619-15:13:11.397|56=OrderAccumulator|98=0|108=30|10=153|
20250619-15:13:16.417 : 8=FIX.4.4|9=87|35=A|34=636|49=OrderGenerator|52=20250619-15:13:16.416|56=OrderAccumulator|98=0|108=30|10=151|
20250619-15:13:21.475 : 8=FIX.4.4|9=87|35=A|34=637|49=OrderGenerator|52=20250619-15:13:21.475|56=OrderAccumulator|98=0|108=30|10=153|
20250619-15:13:26.503 : 8=FIX.4.4|9=87|35=A|34=638|49=OrderGenerator|52=20250619-15:13:26.502|56=OrderAccumulator|98=0|108=30|10=150|
20250619-15:13:31.528 : 8=FIX.4.4|9=87|35=A|34=639|49=OrderGenerator|52=20250619-15:13:31.528|56=OrderAccumulator|98=0|108=30|10=155|
20250619-15:13:36.559 : 8=FIX.4.4|9=87|35=A|34=640|49=OrderGenerator|52=20250619-15:13:36.559|56=OrderAccumulator|98=0|108=30|10=156|
20250619-15:13:41.580 : 8=FIX.4.4|9=87|35=A|34=641|49=OrderGenerator|52=20250619-15:13:41.580|56=OrderAccumulator|98=0|108=30|10=147|
20250619-15:13:46.601 : 8=FIX.4.4|9=87|35=A|34=642|49=OrderGenerator|52=20250619-15:13:46.601|56=OrderAccumulator|98=0|108=30|10=147|
20250619-15:13:51.645 : 8=FIX.4.4|9=87|35=A|34=643|49=OrderGenerator|52=20250619-15:13:51.645|56=OrderAccumulator|98=0|108=30|10=152|
20250619-15:13:56.683 : 8=FIX.4.4|9=87|35=A|34=644|49=OrderGenerator|52=20250619-15:13:56.683|56=OrderAccumulator|98=0|108=30|10=160|
20250619-15:14:01.708 : 8=FIX.4.4|9=87|35=A|34=645|49=OrderGenerator|52=20250619-15:14:01.708|56=OrderAccumulator|98=0|108=30|10=150|
20250619-15:14:06.747 : 8=FIX.4.4|9=87|35=A|34=646|49=OrderGenerator|52=20250619-15:14:06.747|56=OrderAccumulator|98=0|108=30|10=159|
20250619-15:14:11.779 : 8=FIX.4.4|9=87|35=A|34=647|49=OrderGenerator|52=20250619-15:14:11.779|56=OrderAccumulator|98=0|108=30|10=161|
20250619-15:14:16.806 : 8=FIX.4.4|9=87|35=A|34=648|49=OrderGenerator|52=20250619-15:14:16.805|56=OrderAccumulator|98=0|108=30|10=157|
20250619-15:14:21.851 : 8=FIX.4.4|9=87|35=A|34=649|49=OrderGenerator|52=20250619-15:14:21.851|56=OrderAccumulator|98=0|108=30|10=155|
20250619-15:14:26.896 : 8=FIX.4.4|9=87|35=A|34=650|49=OrderGenerator|52=20250619-15:14:26.896|56=OrderAccumulator|98=0|108=30|10=161|
20250619-15:14:31.922 : 8=FIX.4.4|9=87|35=A|34=651|49=OrderGenerator|52=20250619-15:14:31.922|56=OrderAccumulator|98=0|108=30|10=148|
20250619-15:14:36.956 : 8=FIX.4.4|9=87|35=A|34=652|49=OrderGenerator|52=20250619-15:14:36.956|56=OrderAccumulator|98=0|108=30|10=161|
20250619-15:14:41.972 : 8=FIX.4.4|9=87|35=A|34=653|49=OrderGenerator|52=20250619-15:14:41.972|56=OrderAccumulator|98=0|108=30|10=156|
20250619-15:14:47.005 : 8=FIX.4.4|9=87|35=A|34=654|49=OrderGenerator|52=20250619-15:14:47.005|56=OrderAccumulator|98=0|108=30|10=150|
20250619-15:14:52.031 : 8=FIX.4.4|9=87|35=A|34=655|49=OrderGenerator|52=20250619-15:14:52.031|56=OrderAccumulator|98=0|108=30|10=146|
20250619-15:14:57.060 : 8=FIX.4.4|9=87|35=A|34=656|49=OrderGenerator|52=20250619-15:14:57.060|56=OrderAccumulator|98=0|108=30|10=154|
20250619-15:15:02.092 : 8=FIX.4.4|9=87|35=A|34=657|49=OrderGenerator|52=20250619-15:15:02.092|56=OrderAccumulator|98=0|108=30|10=151|
20250619-15:15:07.121 : 8=FIX.4.4|9=87|35=A|34=658|49=OrderGenerator|52=20250619-15:15:07.121|56=OrderAccumulator|98=0|108=30|10=150|
20250619-15:15:12.135 : 8=FIX.4.4|9=87|35=A|34=659|49=OrderGenerator|52=20250619-15:15:12.135|56=OrderAccumulator|98=0|108=30|10=152|
20250619-15:15:17.170 : 8=FIX.4.4|9=87|35=A|34=660|49=OrderGenerator|52=20250619-15:15:17.170|56=OrderAccumulator|98=0|108=30|10=148|
20250619-15:15:22.200 : 8=FIX.4.4|9=87|35=A|34=661|49=OrderGenerator|52=20250619-15:15:22.200|56=OrderAccumulator|98=0|108=30|10=139|
20250619-15:15:27.238 : 8=FIX.4.4|9=87|35=A|34=662|49=OrderGenerator|52=20250619-15:15:27.238|56=OrderAccumulator|98=0|108=30|10=156|
20250619-15:15:32.262 : 8=FIX.4.4|9=87|35=A|34=663|49=OrderGenerator|52=20250619-15:15:32.262|56=OrderAccumulator|98=0|108=30|10=150|
20250619-15:15:37.289 : 8=FIX.4.4|9=87|35=A|34=664|49=OrderGenerator|52=20250619-15:15:37.289|56=OrderAccumulator|98=0|108=30|10=165|
20250619-15:15:42.304 : 8=FIX.4.4|9=87|35=A|34=665|49=OrderGenerator|52=20250619-15:15:42.304|56=OrderAccumulator|98=0|108=30|10=150|
20250619-15:15:47.329 : 8=FIX.4.4|9=87|35=A|34=666|49=OrderGenerator|52=20250619-15:15:47.329|56=OrderAccumulator|98=0|108=30|10=163|
20250619-15:15:52.345 : 8=FIX.4.4|9=87|35=A|34=667|49=OrderGenerator|52=20250619-15:15:52.345|56=OrderAccumulator|98=0|108=30|10=158|
20250619-15:15:57.391 : 8=FIX.4.4|9=87|35=A|34=668|49=OrderGenerator|52=20250619-15:15:57.391|56=OrderAccumulator|98=0|108=30|10=165|
20250619-15:16:02.429 : 8=FIX.4.4|9=87|35=A|34=669|49=OrderGenerator|52=20250619-15:16:02.429|56=OrderAccumulator|98=0|108=30|10=159|
20250619-15:16:07.466 : 8=FIX.4.4|9=87|35=A|34=670|49=OrderGenerator|52=20250619-15:16:07.466|56=OrderAccumulator|98=0|108=30|10=157|
20250619-15:16:12.506 : 8=FIX.4.4|9=87|35=A|34=671|49=OrderGenerator|52=20250619-15:16:12.506|56=OrderAccumulator|98=0|108=30|10=149|
20250619-15:16:17.570 : 8=FIX.4.4|9=87|35=A|34=672|49=OrderGenerator|52=20250619-15:16:17.570|56=OrderAccumulator|98=0|108=30|10=156|
20250619-15:16:22.584 : 8=FIX.4.4|9=87|35=A|34=673|49=OrderGenerator|52=20250619-15:16:22.584|56=OrderAccumulator|98=0|108=30|10=158|
20250619-15:16:27.618 : 8=FIX.4.4|9=87|35=A|34=674|49=OrderGenerator|52=20250619-15:16:27.618|56=OrderAccumulator|98=0|108=30|10=162|
20250619-15:16:32.667 : 8=FIX.4.4|9=87|35=A|34=675|49=OrderGenerator|52=20250619-15:16:32.666|56=OrderAccumulator|98=0|108=30|10=162|
20250619-15:16:37.714 : 8=FIX.4.4|9=87|35=A|34=676|49=OrderGenerator|52=20250619-15:16:37.714|56=OrderAccumulator|98=0|108=30|10=162|
20250619-15:16:42.748 : 8=FIX.4.4|9=87|35=A|34=677|49=OrderGenerator|52=20250619-15:16:42.748|56=OrderAccumulator|98=0|108=30|10=166|
20250619-15:16:47.787 : 8=FIX.4.4|9=87|35=A|34=678|49=OrderGenerator|52=20250619-15:16:47.787|56=OrderAccumulator|98=0|108=30|10=175|
20250619-15:16:52.834 : 8=FIX.4.4|9=87|35=A|34=679|49=OrderGenerator|52=20250619-15:16:52.834|56=OrderAccumulator|98=0|108=30|10=165|
20250619-15:16:57.870 : 8=FIX.4.4|9=87|35=A|34=680|49=OrderGenerator|52=20250619-15:16:57.870|56=OrderAccumulator|98=0|108=30|10=162|
20250619-15:17:02.896 : 8=FIX.4.4|9=87|35=A|34=681|49=OrderGenerator|52=20250619-15:17:02.896|56=OrderAccumulator|98=0|108=30|10=162|
20250619-15:17:07.932 : 8=FIX.4.4|9=87|35=A|34=682|49=OrderGenerator|52=20250619-15:17:07.932|56=OrderAccumulator|98=0|108=30|10=159|
20250619-15:17:12.967 : 8=FIX.4.4|9=87|35=A|34=683|49=OrderGenerator|52=20250619-15:17:12.967|56=OrderAccumulator|98=0|108=30|10=164|
20250619-15:17:18.013 : 8=FIX.4.4|9=87|35=A|34=684|49=OrderGenerator|52=20250619-15:17:18.013|56=OrderAccumulator|98=0|108=30|10=153|
20250619-15:17:23.039 : 8=FIX.4.4|9=87|35=A|34=685|49=OrderGenerator|52=20250619-15:17:23.039|56=OrderAccumulator|98=0|108=30|10=158|
20250619-15:17:28.075 : 8=FIX.4.4|9=87|35=A|34=686|49=OrderGenerator|52=20250619-15:17:28.075|56=OrderAccumulator|98=0|108=30|10=164|
20250619-15:17:33.101 : 8=FIX.4.4|9=87|35=A|34=687|49=OrderGenerator|52=20250619-15:17:33.101|56=OrderAccumulator|98=0|108=30|10=151|
20250619-15:17:38.135 : 8=FIX.4.4|9=87|35=A|34=688|49=OrderGenerator|52=20250619-15:17:38.134|56=OrderAccumulator|98=0|108=30|10=163|
20250619-15:17:43.175 : 8=FIX.4.4|9=87|35=A|34=689|49=OrderGenerator|52=20250619-15:17:43.175|56=OrderAccumulator|98=0|108=30|10=165|
20250619-15:17:48.197 : 8=FIX.4.4|9=87|35=A|34=690|49=OrderGenerator|52=20250619-15:17:48.197|56=OrderAccumulator|98=0|108=30|10=166|
20250619-15:17:53.243 : 8=FIX.4.4|9=87|35=A|34=691|49=OrderGenerator|52=20250619-15:17:53.243|56=OrderAccumulator|98=0|108=30|10=155|
20250619-15:17:58.287 : 8=FIX.4.4|9=87|35=A|34=692|49=OrderGenerator|52=20250619-15:17:58.287|56=OrderAccumulator|98=0|108=30|10=169|
20250619-15:18:03.317 : 8=FIX.4.4|9=87|35=A|34=693|49=OrderGenerator|52=20250619-15:18:03.317|56=OrderAccumulator|98=0|108=30|10=155|
20250619-15:18:08.352 : 8=FIX.4.4|9=87|35=A|34=694|49=OrderGenerator|52=20250619-15:18:08.352|56=OrderAccumulator|98=0|108=30|10=160|
20250619-15:18:13.381 : 8=FIX.4.4|9=87|35=A|34=695|49=OrderGenerator|52=20250619-15:18:13.380|56=OrderAccumulator|98=0|108=30|10=158|
20250619-15:18:18.411 : 8=FIX.4.4|9=87|35=A|34=696|49=OrderGenerator|52=20250619-15:18:18.411|56=OrderAccumulator|98=0|108=30|10=159|
20250619-15:18:23.457 : 8=FIX.4.4|9=87|35=A|34=697|49=OrderGenerator|52=20250619-15:18:23.457|56=OrderAccumulator|98=0|108=30|10=166|
20250619-15:18:28.501 : 8=FIX.4.4|9=87|35=A|34=698|49=OrderGenerator|52=20250619-15:18:28.501|56=OrderAccumulator|98=0|108=30|10=162|
20250619-15:18:33.526 : 8=FIX.4.4|9=87|35=A|34=699|49=OrderGenerator|52=20250619-15:18:33.526|56=OrderAccumulator|98=0|108=30|10=166|
20250619-15:18:38.590 : 8=FIX.4.4|9=87|35=A|34=700|49=OrderGenerator|52=20250619-15:18:38.590|56=OrderAccumulator|98=0|108=30|10=155|
20250619-15:18:43.640 : 8=FIX.4.4|9=87|35=A|34=701|49=OrderGenerator|52=20250619-15:18:43.640|56=OrderAccumulator|98=0|108=30|10=148|
20250619-15:18:48.673 : 8=FIX.4.4|9=87|35=A|34=702|49=OrderGenerator|52=20250619-15:18:48.673|56=OrderAccumulator|98=0|108=30|10=160|
20250619-15:18:53.699 : 8=FIX.4.4|9=87|35=A|34=703|49=OrderGenerator|52=20250619-15:18:53.699|56=OrderAccumulator|98=0|108=30|10=165|
20250619-15:18:58.725 : 8=FIX.4.4|9=87|35=A|34=704|49=OrderGenerator|52=20250619-15:18:58.725|56=OrderAccumulator|98=0|108=30|10=161|
20250619-15:19:03.769 : 8=FIX.4.4|9=87|35=A|34=705|49=OrderGenerator|52=20250619-15:19:03.769|56=OrderAccumulator|98=0|108=30|10=161|
20250619-15:19:08.783 : 8=FIX.4.4|9=87|35=A|34=706|49=OrderGenerator|52=20250619-15:19:08.783|56=OrderAccumulator|98=0|108=30|10=163|
20250619-15:19:13.823 : 8=FIX.4.4|9=87|35=A|34=707|49=OrderGenerator|52=20250619-15:19:13.823|56=OrderAccumulator|98=0|108=30|10=155|
20250619-15:19:18.863 : 8=FIX.4.4|9=87|35=A|34=708|49=OrderGenerator|52=20250619-15:19:18.863|56=OrderAccumulator|98=0|108=30|10=165|
20250619-15:19:23.889 : 8=FIX.4.4|9=87|35=A|34=709|49=OrderGenerator|52=20250619-15:19:23.889|56=OrderAccumulator|98=0|108=30|10=170|
20250619-15:19:28.913 : 8=FIX.4.4|9=87|35=A|34=710|49=OrderGenerator|52=20250619-15:19:28.913|56=OrderAccumulator|98=0|108=30|10=155|
20250619-15:19:33.961 : 8=FIX.4.4|9=87|35=A|34=711|49=OrderGenerator|52=20250619-15:19:33.961|56=OrderAccumulator|98=0|108=30|10=155|
20250619-15:19:38.998 : 8=FIX.4.4|9=87|35=A|34=712|49=OrderGenerator|52=20250619-15:19:38.998|56=OrderAccumulator|98=0|108=30|10=171|
20250619-15:19:44.017 : 8=FIX.4.4|9=87|35=A|34=713|49=OrderGenerator|52=20250619-15:19:44.017|56=OrderAccumulator|98=0|108=30|10=151|
20250619-15:19:49.044 : 8=FIX.4.4|9=87|35=A|34=714|49=OrderGenerator|52=20250619-15:19:49.044|56=OrderAccumulator|98=0|108=30|10=157|
20250619-15:19:54.080 : 8=FIX.4.4|9=87|35=A|34=715|49=OrderGenerator|52=20250619-15:19:54.080|56=OrderAccumulator|98=0|108=30|10=154|
20250619-15:19:59.103 : 8=FIX.4.4|9=87|35=A|34=716|49=OrderGenerator|52=20250619-15:19:59.103|56=OrderAccumulator|98=0|108=30|10=156|
20250619-15:20:04.150 : 8=FIX.4.4|9=87|35=A|34=717|49=OrderGenerator|52=20250619-15:20:04.150|56=OrderAccumulator|98=0|108=30|10=141|
20250619-15:20:09.180 : 8=FIX.4.4|9=87|35=A|34=718|49=OrderGenerator|52=20250619-15:20:09.180|56=OrderAccumulator|98=0|108=30|10=150|
20250619-15:20:14.197 : 8=FIX.4.4|9=87|35=A|34=719|49=OrderGenerator|52=20250619-15:20:14.197|56=OrderAccumulator|98=0|108=30|10=155|
20250619-15:20:19.262 : 8=FIX.4.4|9=87|35=A|34=720|49=OrderGenerator|52=20250619-15:20:19.261|56=OrderAccumulator|98=0|108=30|10=144|
20250619-15:20:24.290 : 8=FIX.4.4|9=87|35=A|34=721|49=OrderGenerator|52=20250619-15:20:24.290|56=OrderAccumulator|98=0|108=30|10=143|
20250619-15:20:29.313 : 8=FIX.4.4|9=87|35=A|34=722|49=OrderGenerator|52=20250619-15:20:29.313|56=OrderAccumulator|98=0|108=30|10=145|
20250619-15:20:34.352 : 8=FIX.4.4|9=87|35=A|34=723|49=OrderGenerator|52=20250619-15:20:34.351|56=OrderAccumulator|98=0|108=30|10=144|
20250619-15:20:39.387 : 8=FIX.4.4|9=87|35=A|34=724|49=OrderGenerator|52=20250619-15:20:39.387|56=OrderAccumulator|98=0|108=30|10=159|
20250619-15:20:44.408 : 8=FIX.4.4|9=87|35=A|34=725|49=OrderGenerator|52=20250619-15:20:44.408|56=OrderAccumulator|98=0|108=30|10=150|
20250619-15:20:49.457 : 8=FIX.4.4|9=87|35=A|34=726|49=OrderGenerator|52=20250619-15:20:49.457|56=OrderAccumulator|98=0|108=30|10=160|
20250619-15:20:54.471 : 8=FIX.4.4|9=87|35=A|34=727|49=OrderGenerator|52=20250619-15:20:54.471|56=OrderAccumulator|98=0|108=30|10=153|
20250619-15:20:59.501 : 8=FIX.4.4|9=87|35=A|34=728|49=OrderGenerator|52=20250619-15:20:59.501|56=OrderAccumulator|98=0|108=30|10=153|
20250619-15:21:04.572 : 8=FIX.4.4|9=87|35=A|34=729|49=OrderGenerator|52=20250619-15:21:04.572|56=OrderAccumulator|98=0|108=30|10=153|
20250619-15:21:09.609 : 8=FIX.4.4|9=87|35=A|34=730|49=OrderGenerator|52=20250619-15:21:09.609|56=OrderAccumulator|98=0|108=30|10=151|
20250619-15:21:14.666 : 8=FIX.4.4|9=87|35=A|34=731|49=OrderGenerator|52=20250619-15:21:14.665|56=OrderAccumulator|98=0|108=30|10=150|
20250619-15:21:19.694 : 8=FIX.4.4|9=87|35=A|34=732|49=OrderGenerator|52=20250619-15:21:19.694|56=OrderAccumulator|98=0|108=30|10=158|
20250619-15:21:24.718 : 8=FIX.4.4|9=87|35=A|34=733|49=OrderGenerator|52=20250619-15:21:24.718|56=OrderAccumulator|98=0|108=30|10=152|
20250619-15:21:29.751 : 8=FIX.4.4|9=87|35=A|34=734|49=OrderGenerator|52=20250619-15:21:29.751|56=OrderAccumulator|98=0|108=30|10=155|
20250619-15:21:34.772 : 8=FIX.4.4|9=87|35=A|34=735|49=OrderGenerator|52=20250619-15:21:34.772|56=OrderAccumulator|98=0|108=30|10=155|
20250619-15:21:39.801 : 8=FIX.4.4|9=87|35=A|34=736|49=OrderGenerator|52=20250619-15:21:39.801|56=OrderAccumulator|98=0|108=30|10=154|
20250619-15:21:44.821 : 8=FIX.4.4|9=87|35=A|34=737|49=OrderGenerator|52=20250619-15:21:44.821|56=OrderAccumulator|98=0|108=30|10=153|
20250619-15:21:49.856 : 8=FIX.4.4|9=87|35=A|34=738|49=OrderGenerator|52=20250619-15:21:49.856|56=OrderAccumulator|98=0|108=30|10=167|
20250619-15:21:54.907 : 8=FIX.4.4|9=87|35=A|34=739|49=OrderGenerator|52=20250619-15:21:54.907|56=OrderAccumulator|98=0|108=30|10=161|
20250619-15:21:59.943 : 8=FIX.4.4|9=87|35=A|34=740|49=OrderGenerator|52=20250619-15:21:59.943|56=OrderAccumulator|98=0|108=30|10=158|
20250619-15:22:04.983 : 8=FIX.4.4|9=87|35=A|34=741|49=OrderGenerator|52=20250619-15:22:04.983|56=OrderAccumulator|98=0|108=30|10=154|
